:020000040000FA
:100000000C94E4000C940C010C940C010C940C0165
:100010000C940C010C940C010C940C010C940C012C
:100020000C940C010C940C010C940C010C940C011C
:100030000C940C010C940C010C940C010C940C010C
:100040000C94441A0C940C010C940C010C940C01AB
:100050000C940C010C940C010C940C010C940C01EC
:100060000C940C010C940C01626C6E6B696E660052
:1000700076657200312E312E3000682D6265617414
:1000800000343500627566662D696E0032353600C3
:100090006465760041726475696E6F20556E6F00FD
:1000A0006370750041546D65676133323850006389
:1000B0006F6E0057353130300066772D747970657A
:1000C00000544D504C59624B74735478570062750C
:1000D000696C64004465632032372032303232204C
:1000E00031353A34303A3334000000000000002447
:1000F0000027002A0000000000250028002B000037
:100100000000002300260029000404040404040461
:1001100004020202020202030303030303010204B6
:100120000810204080010204081020010204081079
:100130002000000008000201000003040700000086
:1001400000000000000F010F010F010F010F010F50
:10015000010F010F010F010F010F010F010F010F1F
:10016000010F010F010F010F010F010F010F010F0F
:10017000010F010F010F010F010F010F010F010FFF
:10018000010F010F01F5040E010E010E010E010E0B
:10019000010E010E010E010E010E010E010E010EE7
:1001A000010E010E010E010E010E010E010E010ED7
:1001B000010E010E010E010E010E010E010E010EC7
:1001C000010E010E01003F1B11241FBECFEFD8E02E
:1001D000DEBFCDBF11E0A0E0B1E0E4ECF6E402C088
:1001E00005900D92AE3CB107D9F722E0AEECB1E03C
:1001F00001C01D92AD3DB207E1F710E0C4EED0E0C2
:1002000004C02197FE010E941E23C33ED107C9F7F7
:100210000E94DD1B0C9460230C9400000895089547
:100220008CBD9DBD089520E3FC0120833296862F6E
:1002300082958F706F706A3030F4605D6293682FC2
:100240008111F5CF0895695CF9CFFC01818D928D04
:100250000895833081F028F4813099F08230A9F03C
:1002600008958730A9F08830C9F08430B1F48091C6
:1002700080008F7D03C0809180008F778093800005
:10028000089584B58F7784BD089584B58F7DFBCFA5
:100290008091B0008F778093B00008958091B00076
:1002A0008F7DF9CF1F93CF93DF93282F30E0F90193
:1002B000EF5CFE4F8491F901E35EFE4FD491F901AA
:1002C000E75FFE4FC491CC23A9F0162F81110E9445
:1002D0002901EC2FF0E0EE0FFF1FEB50FF4FA5912F
:1002E000B4918FB7F894EC91111108C0D095DE232A
:1002F000DC938FBFDF91CF911F910895DE2BF8CF54
:10030000CF93DF9390E0FC01E35EFE4F2491875F83
:100310009E4FFC0184918823C9F090E0880F991FBB
:10032000FC01E551FF4FA591B491FC01EB50FF4F4B
:10033000C591D49161110DC09FB7F8948C9120950F
:1003400082238C938881282328839FBFDF91CF91BC
:100350000895623051F49FB7F8943C91822F8095B4
:1003600083238C93E8812E2BEFCF8FB7F894EC91F9
:100370002E2B2C938FBFEACF3FB7F8948091410288
:1003800090914202A0914302B091440226B5A89BED
:1003900005C02F3F19F00196A11DB11D3FBFBA2F17
:1003A000A92F982F8827BC01CD01620F711D811DD7
:1003B000911D42E0660F771F881F991F4A95D1F75C
:1003C00008958F929F92AF92BF92CF92DF92EF9259
:1003D000FF926B017C010E94BC014B015C01C114C6
:1003E000D104E104F104B9F00E94BC016819790953
:1003F0008A099B09683E73408105910580F321E0DD
:10040000C21AD108E108F10888EE880E83E0981E30
:10041000A11CB11CE4CFFF90EF90DF90CF90BF9074
:10042000AF909F908F9008952FB7F89460913D0200
:1004300070913E0280913F02909140022FBF08953B
:100440004F925F926F927F92AF92BF92CF92DF9264
:10045000EF92FF920F931F93CF93DF93EC016B0109
:100460007B01E40EF51E8B015801AC18BD080E157A
:100470001F0511F10E941402688779878A879B877C
:10048000E881F9810284F385E02DCE01099597FF7B
:1004900023C00E941402488459846A847B846419AE
:1004A0007509860997094C805D806E807F80641590
:1004B00075058605970520F3C501DF91CF911F9142
:1004C0000F91FF90EF90DF90CF90BF90AF907F9013
:1004D0006F905F904F900895F80181938F01C4CF82
:1004E000FC0120812EBD9B012150310941F0518139
:1004F0000DB407FEFDCF4EB55EBD4193F5CF615003
:100500007109860F971F0DB407FEFDCF2EB5FC01B4
:1005100020830895E091CF01F091D00180819091E6
:10052000CE01892B80830895E091CF01F091D00115
:1005300090818091CE0180958923808308958EBD1E
:1005400000000DB407FEFDCF8EB50895AF92BF92A7
:10055000CF92DF92EF92FF920F931F93CF93DF938F
:10056000CDB7DEB728970FB6F894DEBF0FBECDBF6C
:100570008C017B016A01809161028333E1F45801AF
:10058000A40EB51EA016B10609F46FC00E94940215
:1005900080EF0E949F02812F0E949F02802F0E9465
:1005A0009F020F5F1F4FF70181917F010E949F0201
:1005B0000E948A02E7CF5B01A40EB51E8433C1F40A
:1005C0000E94940219830A838D2D80688B83CC82CC
:1005D00064E070E0CE0101960E947002AE14BF0488
:1005E00009F441C0F70181917F010E949F02F6CF7B
:1005F0000E9494020F3F110509F028F419820A8322
:1006000084E08B830CC017FD17C019820A8333E086
:10061000169507953A95E1F7007E0C600B8386E00E
:10062000C816D104A0F5F701DE011496EA15FB0502
:1006300099F081918D93FACFC80126E09695879520
:100640002A95E1F7807E19830A830115104C10F476
:100650008461D7CF8C61D5CFB6016D5F7F4FCE015E
:1006600001960E9470020E948A02C60128960FB667
:10067000F894DEBF0FBECDBFDF91CF911F910F91D8
:10068000FF90EF90DF90CF90BF90AF90089563E020
:1006900070E0CE0101960E947002F70181917F0106
:1006A0000E949F02AE14BF04C1F7DDCFCF93DF934A
:1006B0001F92CDB7DEB7898341E050E0BE016F5F86
:1006C0007F4F90E080E00E94A6020F90DF91CF91D3
:1006D000089590E020916102233339F40C96982F0D
:1006E000990F990F990F80E008954896F8CFDA0195
:1006F000E091D201F0E0FE2FEE27E60FF71F90E029
:10070000982F8827A901BD018E0F9F1F0C94A60268
:10071000CF93DF9300D0CDB7DEB779836A8322E031
:1007200030E0AE014F5F5F4F60E170E00E94770301
:100730000F900F90DF91CF910895CF93DF9300D06A
:10074000CDB7DEB779836A8322E030E0AE014F5F38
:100750005F4F64E070E00E9477030F900F90DF918D
:10076000CF910895CF93DF931F92CDB7DEB720913D
:10077000D20130E0322F2227260F371F90E0982F2A
:100780008827498341E050E0BE016F5F7F4F820FB1
:10079000931F0E94A6020F90DF91CF910895CF93EF
:1007A000DF931F92CDB7DEB76983DC01ED91FC9139
:1007B0000280F381E02D41E050E0BE016F5F7F4F8A
:1007C00009950F90DF91CF910895FC019485FB016D
:1007D0008485981303C081E0943008F080E0089588
:1007E000CF93DF931F92CDB7DEB76983DC01ED9124
:1007F000FC910280F381E02D41E050E0BE016F5F8B
:100800007F4F09950F90DF91CF9108950895FF9242
:100810000F931F93CF93DF93EB01FC01178A168A86
:100820002A81211109C02B81211106C02C8121119F
:1008300003C02D81222301F141155105E9F08A0100
:10084000FC01F08C80E591E00E941001AE014E5F4A
:100850005F4F24E030E06CE070E08F2D0E94770362
:10086000B8018F2D0E94880381E090E0DF91CF9145
:100870001F910F91FF90089580E0F7CFFC018485D0
:1008800095850895FC0184899589089523E931E0CF
:10089000FC0131832083FB0140895189628973897E
:1008A000FC0142835383648375830895DC01ED91D9
:1008B000FC91048CF58DE02D099490E080E0089582
:1008C000FC019485992369F080819181DC01ED918F
:1008D000FC910688F789E02D099591E0811101C00E
:1008E00090E0892F0895DC011C961C921C978D9135
:1008F0009C91DC01ED91FC910488F589E02D09942F
:10090000FC01768765870895DC01ED91FC9102A0DA
:10091000F3A1E02D099591E089270895862F089588
:1009200081E08627089521E0FC018485843008F069
:1009300020E0822F089508958F929F92AF92BF92E8
:10094000EF92FF920F931F93CF93DF93CDB7DEB754
:10095000A1970FB6F894DEBF0FBECDBF7C01FA01A0
:10096000CB0119A2223008F42AE08E010F5D1F4F3F
:10097000822E912CB12CA12CBF01A50194010E94C3
:10098000E622F901CA016A3074F5605DD8016E9300
:100990008D01232B242B252B79F790E080E01097F5
:1009A00089F0FD0101900020E9F73197AF014A1B62
:1009B0005B0BD701ED91FC910280F381E02DB80132
:1009C000C7010995A1960FB6F894DEBF0FBECDBF43
:1009D000DF91CF911F910F91FF90EF90BF90AF905B
:1009E0009F908F900895695CD1CFFB0180819181A8
:1009F0000E94142261E0892B09F460E082E00C94EB
:100A00005201AF92BF92CF92DF92EF92FF920F937B
:100A10001F93CF93DF9300D000D0CDB7DEB78C010A
:100A20006B017A01809161028333E9F45B01680113
:100A3000C40ED51EC016D106A9F10E9494028FE003
:100A40000E949F02812F0E949F02802F0E949F027E
:100A50000F5F1F4F80E00E949F02F50181935F01AD
:100A60000E948A02E7CF843369F50E9494021983B9
:100A70000A838F2D8F778B83EC8264E070E0CE0148
:100A800001960E947002A70170E060E0C6010E941A
:100A90003A23E114F10421F0B701C6010E9470026B
:100AA0000E948A02C7010F900F900F900F90DF9164
:100AB000CF911F910F91FF90EF90DF90CF90BF905B
:100AC000AF9008950E9494020F3F110509F030F491
:100AD00019820A831B8263E070E0D1CF17FD0BC03F
:100AE00019820A8333E0169507953A95E1F7007E5F
:100AF00008600B83F0CFC80126E0969587952A956C
:100B0000E1F7807E19830A830115104C18F4806187
:100B10008B83E1CF8861FCCFCF93DF931F92CDB75A
:100B2000DEB72091D20130E0322F2227260F371F67
:100B300090E0982F882741E050E0BE016F5F7F4F23
:100B4000820F931F0E94010589810F90DF91CF9141
:100B50000895CF93C82F462F61E070E00E94B20342
:100B600061E070E08C2F0E948C058111F9CFCF914C
:100B70000895CF93C82F80E591E00E94100168E0AE
:100B800070E08C2FCF910C94A905CF93C82F80E5EE
:100B900091E00E94100160E170E08C2FCF910C94E5
:100BA000A905CF93DF93EC01888D843020F40E9457
:100BB000C50584E0888FDF91CF910895CF93C82F2A
:100BC00080E591E00E94100163E070E08C2FCF91EE
:100BD0000C948C05CF93DF93EC018C858430D0F49A
:100BE0000E94DE05843189F0882379F0883169F02C
:100BF00021E08C3159F4E881F9810084F185E02D00
:100C0000CE01099521E0892B09F420E0822FDF91A4
:100C1000CF91089580E0FBCFCF92DF92EF92FF92C9
:100C2000CF93DF93EC018C85843068F40E94B90582
:100C30000E9414026B017C018C850E94DE058111EB
:100C400009C084E08C87DF91CF91FF90EF90DF9017
:100C5000CF90089561E070E080E090E00E94E101B3
:100C60000E941402AB01BC014C195D096E097F0999
:100C70008D859E85B0E0A0E0481759076A077B077D
:100C8000D8F28C850E94C505DCCFCF93FC01C08DC6
:100C900080E591E00E94100160E270E08C2F0E94DC
:100CA000A90562E070E08C2F0E948C0584FD16C0BF
:100CB00062E070E08C2F0E948C0583FF0AC048E13F
:100CC00062E070E08C2F0E94B20380E090E0CF9150
:100CD000089580E591E00E941001E3CF40E162E0D9
:100CE00070E08C2F0E94B20381E0F0CFCF93DF93AE
:100CF0001F92CDB7DEB741E050E0BE016F5F7F4F7E
:100D000090E080E00E94010589810F90DF91CF91F2
:100D10000895CF93DF93C4E1D0E00E947606882344
:100D200061F061E070E080E090E00E94E1012197D5
:100D3000A1F780E0DF91CF91089581E0FBCF1F9371
:100D4000CF93DF931F92CDB7DEB7182F80E591E0E8
:100D50000E941001812F0E94690327E0129FF00179
:100D60001124EB5BFD4F22813381377041E050E06D
:100D7000BE016F5F7F4F820F931F0E940105898123
:100D80000F90DF91CF911F910895FC01808D8430E9
:100D900040F4218D328D232B21F00E949F0690E09C
:100DA00008958FEF9FEF0895CF93DF93FC01248583
:100DB000243028F08FEF9FEFDF91CF910895EC0161
:100DC0000190F081E02D0084F185E02D0995892BBB
:100DD00089F38C850E949F0690E0EECFDA01E091C6
:100DE000D201F0E0FE2FEE27E60FF71F90E0982FDC
:100DF0008827A901BD018E0F9F1F0C9401058F92BA
:100E00009F92AF92BF92CF92DF92EF92FF921F9389
:100E1000CF93DF93CDB7DEB72C970FB6F894DEBF34
:100E20000FBECDBF2091610214E0222339F16B0186
:100E30007C0180E591E00E9410015E0127E0A20E96
:100E4000B11C450110E063E070E0812F0E948C0529
:100E5000F40181934F01882349F11F5F143099F702
:100E600010E0F50181915F018D31D9F08831C9F031
:100E70008A518230B0F01F5F143099F7812F2C9681
:100E80000FB6F894DEBF0FBECDBFDF91CF911F919B
:100E9000FF90EF90DF90CF90BF90AF909F908F909A
:100EA000089560E170E0812F0E94A905A12EB12C68
:100EB00083EE93E00197F1F742E870E060E0812F64
:100EC0000E94B2034FEF62E070E0812F0E94B203F4
:100ED000B601C114D10491F48091210190912201B5
:100EE00001968115F0EC9F0708F45CC090932201F5
:100EF000809321016091210170912201812F0E9434
:100F00009D0386E0EDE2F1E0DE01119601900D9285
:100F10008A95E1F7F70183818F778C8384818D83B4
:100F200085818E83A7014E5F5F4F24E030E06CE047
:100F300070E0812F0E947703B601812F0E94880301
:100F400026E030E0AE014F5F5F4F66E070E0812F3A
:100F50000E94770361E070E0812F0E94A90527E0DD
:100F60002A9DC0012B9D900D11249C012B5B3D4FB0
:100F70007901F9011182108222E030E0AE01455F73
:100F80005F4F68E270E0812F0E94EE068B859C85A2
:100F9000982789279827F7019383828316821582E1
:100FA00014826CCF80E090ECA1CFCF92DF92EF92D1
:100FB000FF920F931F93CF93DF9300D000D000D008
:100FC000CDB7DEB78C016B017A01FC01808D8430D6
:100FD00010F40E94C50583E991E09A838983F601A4
:100FE00082819381A481B5818B839C83AD83BE83F1
:100FF000B701CE0101960E94FF06F801808F843070
:10100000A0F4F586E486128E118E81E026960FB646
:10101000F894DEBF0FBECDBFDF91CF911F910F912E
:10102000FF90EF90DF90CF90089580E0EFCFAF92E8
:10103000BF92CF92DF92EF92FF920F931F93CF93C5
:10104000DF9300D000D000D0CDB7DEB7082F6B0102
:1010500080E591E00E9410019E012F5F3F4F7901D2
:10106000590110E063E070E0812F0E948C05F501CA
:1010700081935F01882341F11F5F143099F710E0DD
:10108000F70181917F018D31D1F08831C1F08A5112
:101090008230A8F01F5F143099F7812F26960FB683
:1010A000F894DEBF0FBECDBFDF91CF911F910F919E
:1010B000FF90EF90DF90CF90BF90AF90089560E1E8
:1010C00070E0812F0E94A905E12EF12C83EE93E0C0
:1010D0000197F1F7402F70E060E0812F0E94B2038A
:1010E0004FEF62E070E0812F0E94B203B601CD287D
:1010F00089F4809121019091220101968115F0ECF3
:101100009F0798F190932201809321016091210122
:1011100070912201812F0E949D0361E070E0812F78
:101120000E94A90527E02E9DC0012F9D900D11243E
:101130009C012B5B3D4F7901F9011182108222E065
:1011400030E0AE014B5F5F4F68E270E0812F0E949C
:10115000EE068D819E81982789279827F701938332
:10116000828316821582148298CF80E090ECCACFD9
:10117000CF92DF92EF92FF921F93CF93DF93EC0118
:101180007B016A018C85843048F40E94DE05882347
:1011900019F08C850E94B90584E08C87F701828163
:1011A0009381A481B5810097A105B10551F490E028
:1011B00080E0DF91CF911F91FF90EF90DF90CF9073
:1011C00008958F3F9F4FAF4FBF4F89F380916102CA
:1011D000811103C084E08C87EACF70E060E081E297
:1011E0000E941708182F8C87843008F780E591E05B
:1011F0000E941001A7014E5F5F4F24E030E06CE0D9
:1012000070E0812F0E947703B601812F0E9488032E
:1012100064E070E0812F0E94A9050E9414026B0116
:101220007C018C850E94DE05873109F18C31F9F053
:10123000882309F4BCCF0E941402AB01BC014C19F5
:101240005D096E097F098D859E85B0E0A0E0841759
:101250009507A607B70738F061E070E080E090E0FE
:101260000E94E101DECF8C850E94C505B3CF81E0ED
:1012700090E09FCF0F931F93CF93DF93EC018B01EF
:10128000888D843010F40E94C5058091610281111F
:1012900007C094E0988FDF91CF911F910F9108952F
:1012A000B80182E00E941708888F843030F41D87CF
:1012B0000C871A8E198E81E0EECF80E0ECCF7F9202
:1012C0008F929F92AF92BF92CF92DF92EF92FF9256
:1012D0000F931F93CF93DF9300D0CDB7DEB7782E57
:1012E0008B014A01590122E030E0AE014F5F5F4FB0
:1012F00064E270E00E94EE06E980FA80FE24EF24AA
:10130000FE24E00EF11E9701377040916102072D17
:1013100010E0433309F042C0085F1F4F102F002731
:10132000110F110F110FC901800F911F4733C9F120
:10133000A9014A0D5B1D4130584098F160E078E00A
:101340006B01C21AD30AA601B4010E94A602A5012C
:101350004C195D09B4016C0D7D1DC8010E94A602E7
:10136000EA0CFB1CF982EA8222E030E0AE014F5F1A
:101370005F4F64E270E0872D0E9477030F900F901B
:10138000DF91CF911F910F91FF90EF90DF90CF9061
:10139000BF90AF909F908F907F900895005F1F4FF8
:1013A000BDCFA501B401DACFEF92FF921F93CF9387
:1013B000DF9300D0CDB7DEB7182F22E030E0AE01CA
:1013C0004F5F5F4F60E270E00E94EE06E980FA80B6
:1013D000FE24EF24FE2422E030E0AE014F5F5F4F99
:1013E00060E270E0812F0E94EE0689819A81982741
:1013F00089279827E816F90689F487E0189FF001F5
:101400001124EB5BFD4FF582E482C7010F900F9032
:10141000DF91CF911F91FF90EF9008957C01DBCF7A
:101420001F93CF93DF93182F80E591E00E94100166
:10143000812F0E94D409EC0163E070E0812F0E94AB
:101440008C05873121F08C3111F0D0E0C0E0CE0165
:10145000DF91CF911F910895CF93DF93EC018C859D
:10146000843060F40E94DE05873111F08C3131F454
:101470008C850E94100A8115984088F3DF91CF91E6
:101480000895FC018485843010F40C94100A90E0D7
:1014900080E008959F92AF92BF92CF92DF92EF9239
:1014A000FF920F931F93CF93DF938C015B01942ED8
:1014B000E52EFC01C688D788F08C80E591E00E947B
:1014C00010018F2D0E94D409C92DDE2D8C179D0788
:1014D00008F4EC019E01A501B6018F2D0E945F0961
:1014E000F801868997898C0F9D1F978B868BCE017B
:1014F000DF91CF911F910F91FF90EF90DF90CF90F0
:10150000BF90AF909F9008958F929F92AF92BF929D
:10151000CF92DF92EF92FF920F931F93CF936C01C4
:101520005B018A01FC01C485C430F0F57A014130C9
:10153000584018F0E12C88E0F82E80E591E00E94F8
:1015400010018C2F0E94D4094C0163E070E08C2FB5
:101550000E948C05873111F08C3149F58E149F045F
:1015600060F380E591E00E9410019701A50170E011
:1015700060E08C2F0E945F0960E270E08C2F0E9477
:10158000A90562E070E08C2F0E948C0584FD17C0D5
:1015900063E070E08C2F0E948C0581110BC081E00C
:1015A00090E0F6019383828310E000E010C0F12CFC
:1015B000E12CD7CF80E591E00E941001E2CF40E11D
:1015C00062E070E08C2F0E94B203EF2841F3C80163
:1015D000CF911F910F91FF90EF90DF90CF90BF9030
:1015E000AF909F908F900895FF920F931F93CF938A
:1015F000DF9300D0CDB7DEB7F82E22E030E0AE01A9
:101600004F5F5F4F66E270E00E94EE0609811A812B
:1016100010270127102722E030E0AE014F5F5F4F17
:1016200066E270E08F2D0E94EE0689819A819827EC
:10163000892798270817190749F4C8010F900F90B8
:10164000DF91CF911F910F91FF9008958C01E3CF0F
:101650001F93CF93DF93182F87E0189FE001112489
:10166000CB5BDD4F88819981009761F480E591E043
:101670000E941001812F0E94F40A2E81821B910981
:1016800099838883DF91CF911F910895FC01848510
:10169000843010F40C94280B90E080E008954F9271
:1016A0005F927F928F929F92AF92BF92CF92DF9282
:1016B000EF92FF920F931F93CF93DF9300D0CDB79C
:1016C000DEB7782E6B014A01A82EB12C27E0829F4D
:1016D000C0011124FC01EB5BFD4F7F0100811181F2
:1016E00080E591E00E9410010815190554F4872D3A
:1016F0000E94F40AF70126818C01021B1109118353
:1017000000830115110529F563E070E0872D0E9423
:101710008C05843159F0882349F001E010E08C31C8
:1017200011F410E000E0119501951109C8010F9026
:101730000F90DF91CF911F910F91FF90EF90DF906D
:10174000CF90BF90AF909F908F907F905F904F9081
:101750000895801691060CF4840187E08A9DF001BB
:101760008B9DF00D1124EB5BFD4FE280F380C114E3
:10177000D10451F12701F7E05F22872D0E94690310
:10178000840D951D20916102273309F453C09801FF
:10179000240D351D2130384008F44CC020E038E0DD
:1017A000490184189508A401B6010E94010526018B
:1017B000480C591C6801C818D908872D0E94690374
:1017C000A601B2010E940105E00EF11E87E08A9D8C
:1017D000F0018B9DF00D1124EB5BFD4FF382E28253
:1017E00020813181201B310B318320838681800F42
:1017F000912F911D8A3F910510F4232BF1F487E07E
:101800008A9DF0018B9DF00D1124EB5BFD4F16823C
:10181000F982EA8222E030E0AE014F5F5F4F68E27A
:1018200070E0872D0E94770360E470E0872D0E94AE
:10183000A9057CCFA801B601C5CF868377CFCF930A
:10184000DF93FC01218D328D2115310529F48FEFB5
:101850009FEFDF91CF910895EC01808D42175307E0
:1018600008F0A9010E944F0B1816190684F7298D5C
:101870003A8D281B390B3A8F298FEBCF0F931F938B
:10188000CF93DF931F92CDB7DEB7FC01218D328D50
:10189000232B41F48FEF9FEF0F90DF91CF911F919A
:1018A0000F9108958C0141E050E0BE016F5F7F4FC2
:1018B000FC01808D0E944F0B181619065CF7F80189
:1018C000818D928D0197928F818F898190E0E4CFF5
:1018D000CF93DF931F92CDB7DEB741E050E0BE015A
:1018E0006F5F7F4FFC0184850E944F0B181619060D
:1018F00034F4898190E00F90DF91CF9108958FEFBC
:101900009FEFF9CFFC018485843010F40C944F0BC9
:1019100090E080E008950F931F93CF93DF9300D062
:10192000CDB7DEB7FC0124852430E0F48C0180E5DE
:1019300091E00E94100122E030E0AE014F5F5F4F66
:1019400060E170E0F80184850E94EE0689819A8149
:101950009827892798270F900F90DF91CF911F919B
:101960000F91089590E080E0F6CF0F931F93CF93EF
:10197000DF9300D0CDB7DEB7FC0124852430E0F43E
:101980008C0180E591E00E94100122E030E0AE0180
:101990004F5F5F4F64E070E0F80184850E94EE06BF
:1019A00089819A819827892798270F900F90DF9136
:1019B000CF911F910F91089590E080E0F6CFDC0168
:1019C00083E991E08D939D9384E0FB0101900D925A
:1019D0008A95E1F70895EF92FF920F931F93CF93AB
:1019E000DF9300D000D0CDB7DEB78C017B01FB01C7
:1019F00084858430A8F083E991E0F80191838083A5
:101A00001282138214821582C8010F900F900F90DA
:101A10000F90DF91CF911F910F91FF90EF9008955C
:101A200080E591E00E94100124E030E0AE014F5FBC
:101A30005F4F6CE070E0F70184850E94EE06BE0106
:101A40006F5F7F4FC8010E94DF0CDECF0F931F93A3
:101A5000CF93DF93CDB7DEB728970FB6F894DEBFEC
:101A60000FBECDBF8C01D80159964D915C915A970C
:101A70004115510551F0ED91FC91048CF58DE02D4F
:101A800070E060E0C8010995EECFF801808D0E94FA
:101A9000280B892BB1F148E050E0BE016F5F7F4F0A
:101AA000D80158968C910E944F0B18161906F4F421
:101AB000D801509684E0FE01319601900D928A95EE
:101AC000E1F78D8190E0982F88272E81820F911D5C
:101AD000F801958B848B8F81282F30E0322F2227BD
:101AE0008885820F932F911D928F818F28960FB634
:101AF000F894DEBF0FBECDBFDF91CF911F910F9144
:101B0000089590E080E0F2CF4F925F926F927F92C3
:101B10008F929F92AF92BF92CF92DF92EF92FF92FD
:101B20000F931F93CF93DF93CDB7DEB763970FB6B5
:101B3000F894DEBF0FBECDBF7C016B013A01FB0103
:101B400020E090E080E06AE03191332309F461C045
:101B500040ED430F4A3008F04DC0689FA001699FD7
:101B6000500D1124CA01C097830F911D37FD9A951E
:101B70008F3F910549F340F3F7014281538164811E
:101B8000758180918E0290918F02A0919002B09108
:101B90009102481759076A077B0709F40DC28701AC
:101BA000085F1F4F0E9414026F7077277C5FC80187
:101BB0000E943A09813009F004C283E991E09A83D6
:101BC0008983F70182819381A481B5818B839C8372
:101BD000AD83BE8345E350E0BE016F5F7F4FC80118
:101BE0000E940704892BA9F5D12CC12CC8010E94A1
:101BF000D10517C03E3209F0BFCF233009F4BCCF66
:101C0000D301A20FB11D12968C932F5F90E080E05C
:101C10009BCF233009F0B0CFF3018583CC24C3944C
:101C2000D12CC60163960FB6F894DEBF0FBECDBFB0
:101C3000DF91CF911F910F91FF90EF90DF90CF90A8
:101C4000BF90AF909F908F907F906F905F904F90DC
:101C500008950E941402F7017783668342E050E002
:101C6000B7016A5F7F4FC8010E944A0A81E090E095
:101C70009A83898342E050E0BE016F5F7F4FC801C5
:101C80000E944A0A80E091E09A83898342E050E012
:101C9000BE016F5F7F4FC8010E944A0A1A821982F3
:101CA00042E050E0BE016F5F7F4FC8010E944A0AC8
:101CB00042E050E0BE016F5F7F4FC8010E944A0AB8
:101CC00042E050E0BE016F5F7F4FC8010E944A0AA8
:101CD0005601F6018081882301F16501F6018191A9
:101CE0002F01882311F08E32B1F446018A189B0827
:101CF0001814190474F48D8641E050E0BE01635F4E
:101D00007F4FC8010E944A0AA401B501C8010E9480
:101D10004A0A5201DECF6201E1CF1D8641E050E068
:101D2000BE01635F7F4FC8010E944A0AC12CDD24B7
:101D3000D394DA82C98242E050E0BE016F5F7F4FE8
:101D4000C8010E944A0ADA82C98242E050E0BE011C
:101D50006F5F7F4FC8010E944A0AC8010E94450672
:101D6000892B09F441CFF3E0AF2EB12C230122E0FF
:101D7000420E511CD4C0F7014281538164817581A8
:101D8000808D918DA28DB38D481759076A077B0707
:101D900009F008C1848D958DC59709F003C181A113
:101DA00092A15DEFC52EDD24DA940C970CF4ADC042
:101DB0004CE050E0BE016F5F7F4FC8010E941F0CD6
:101DC0008B819C819827892798279A8B898BF7018B
:101DD0004681578129813A814217530709F0E7C0AC
:101DE00097FFE5C08F7092703BEFC32EDD24DA942D
:101DF000892B09F08AC06F80788476246724762442
:101E00002AEFC22EDD24DA946114710409F47DC036
:101E1000D12CC12C8D819E81982789279827C8169F
:101E2000D906F8F441E050E0BE01635F7F4FC8017E
:101E30000E941F0C4D85442331F050E070E060E0BB
:101E4000C8010E941F0C8D858111ECCF44E050E049
:101E500070E060E0C8010E941F0CFFEFCF1ADF0A9C
:101E6000D9CF912C812C41E050E0BE016D5E7F4FB7
:101E7000C8010E941F0C4B89842F807C09F06CC024
:101E8000442331F050E070E060E0C8010E941F0C74
:101E90008B898111E8CF42E050E0BE01615F7F4F46
:101EA000C8010E941F0C42E050E0BE01635F7F4FFB
:101EB000C8010E941F0C44E050E070E060E0C801DF
:101EC0000E941F0C42E050E0BE016F5E7F4FC801D0
:101ED0000E941F0C8F85988949895A8981159140E4
:101EE00009F043C0CD84DE84DC24CD24DC2481E0F1
:101EF000C816D104D1F54115544009F04AC044E058
:101F000050E0B201C8010E941F0C21E0A21AB108E2
:101F100009F46CCEFFEFCF16DF0609F067CE0E9402
:101F200014023B014C01C8010E94260D1816190627
:101F30000CF421CF0E9414026619770988099909C7
:101F4000693873418105910548F562E370E080E0EE
:101F500090E00E94E101E7CF41E050E070E060E0F6
:101F6000C8010E941F0C1B8A93CF54274527542772
:101F700070E060E0C8010E941F0CFFEF8F1A9F0AFB
:101F80006814790409F06FCF96EFC92EDD24DA9436
:101F9000BCCFE7EFCE2EDD24DA94B7CFCC24CA94A1
:101FA000DC2CB3CF6EEFC62EDD24DA94AECF4CEF2F
:101FB000C42EDD24DA94A9CF8EEFC82EDD24DA9466
:101FC00030CED12CC12C2DCECF92DF92EF92FF924A
:101FD0000F931F93CF93DF93CDB7DEB7AF970FB6B5
:101FE000F894DEBF0FBECDBF7C016A0103E911E0AA
:101FF0001A8309831C861B8688EE93E0A0E0B0E07C
:102000008D879E87AF87B88B87E391E09A87898712
:10201000188F0F8B198E1A8E1B8E1C8E84E089A34D
:102020001BA70AA71CA61DA61EA61FA6809182029A
:1020300090918302A0918402B09185028EA39FA308
:10204000A8A7B9A78B839C83AD83BE8318861F8204
:10205000AE01465D5F4FCE0101960E94840D813036
:102060009105B1F4D701ED91FC910488F589E02D3B
:102070001DA30CA38CA59DA5AEA5BFA58EA39FA354
:10208000A8A7B9A7A601BE016C5D7F4FC70109953E
:10209000AF960FB6F894DEBF0FBECDBFDF91CF91E4
:1020A0001F910F91FF90EF90DF90CF900895CF9206
:1020B000DF92EF92FF920F931F93CF93DF93CDB7F1
:1020C000DEB7AF970FB6F894DEBF0FBECDBF8C0161
:1020D0006B017A0183E991E09A8389831B821C82D8
:1020E0001D821E821C861B8648EE53E060E070E075
:1020F0004D875E876F87788B27E331E03A872987A2
:10210000988F8F8B198E1A8E1B8E1C8E24E029A31C
:102110009BA78AA71CA61DA61EA61FA6D8011C96B3
:102120008C91843060F40E94DE05882321F0F80150
:1021300084850E94B90584E0D8011C968C93809117
:10214000820290918302A0918402B09185028EA3B5
:102150009FA3A8A7B9A78B839C83AD83BE83188652
:102160001F82AE01465D5F4FB601CE0101960E940F
:10217000840D0097C1F0D801ED91FC910684F7859C
:10218000E02D83E991E09DA38CA38CA59DA5AEA530
:10219000BFA58EA39FA3A8A7B9A7A701BE016C5D89
:1021A0007F4FC8010995AF960FB6F894DEBF0FBEFA
:1021B000CDBFDF91CF911F910F91FF90EF90DF90F6
:1021C000CF9008950F931F93CF93DF93EC01FB0102
:1021D00001900020E9F78F01061B170B8A819B8174
:1021E000A801480F591F2C813D812417350768F03D
:1021F00028813981A801820F931F0E9431234A81CF
:102200005B81400F511F5B834A83DF91CF911F9108
:102210000F9108958F929F92AF92BF92CF92DF92CB
:10222000EF92FF920F931F93CF93DF937C01EB010B
:102230006C0182E0C80ED11C4701E5E08E0E911CB6
:1022400010E000E0F60141916F0150E070E060E0C5
:102250002AE0CE010E949C045C01E881F981019092
:10226000F081E02D6EE2CE0109958A0D9B1D080FCD
:10227000191FC814D90431F7F701458150E070E007
:1022800060E02AE0CE010E949C04800F911FDF9144
:10229000CF911F910F91FF90EF90DF90CF90BF9063
:1022A000AF909F908F9008953F924F925F926F9260
:1022B0007F928F929F92AF92BF92CF92DF92EF92D6
:1022C000FF920F931F93CF93DF93CDB7DEB7EA97BB
:1022D0000FB6F894DEBF0FBECDBF7C012A013B01D3
:1022E00069010E9414024B015C0187010D5B1F4FC5
:1022F000C8010E94260D181619069CF00E941402AF
:10230000681979098A099B094616570668067906ED
:1023100008F466C162E370E080E090E00E94E101B1
:10232000E7CF42E250E0BE016F5F7F4FC8010E94DD
:102330001F0C89818230D1F0312C832DEA960FB6A3
:10234000F894DEBF0FBECDBFDF91CF911F910F91EB
:10235000FF90EF90DF90CF90BF90AF909F908F90C5
:102360007F906F905F904F903F900895F80184891F
:1023700095898334910501F76D817E818F819885E0
:102380000E9417234B015C01F60180829182A28298
:10239000B38246E050E0B701685F7F4FCE014D96B3
:1023A0000E942423892B41F6F70180819181A2812B
:1023B000B38188169906AA06BB0608F4BDCF8481AE
:1023C0009581A681B78188159905AA05BB0508F4F2
:1023D000B3CF89899A89AB89BC8986879787A08B77
:1023E000B18B4EEC50E070E060E0C8010E941F0C21
:1023F000312CC701829698AB8FA7F701B696FAAB3E
:10240000E9AB08969CAB8BAB67019AE1C90ED11C76
:10241000BD96FEABEDABC701429698AF8FABFD9773
:10242000FAAFE9AF4701FEE18F0E911CF801818DF3
:10243000928D181619060CF080CFC8010E943E0C30
:102440008333910509F4B2C014F58130910509F484
:1024500064C044F4892B51F3C8010E943E0CAC01C6
:10246000552775C08330910509F462C00697A1F71E
:10247000C8010E943E0CB82E44E050E0B401C801EF
:102480000E941F0CEB2DE450FF0BAF0160C08A339C
:10249000910509F45FC084F585339105B1F1C697C4
:1024A000D9F6C8010E943E0C5C01B601CE018996A6
:1024B0000E94DF0C8BA59CA5ADA5BEA5892B8A2B00
:1024C0008B2BB1F0EDA9FEA9408051806280738012
:1024D000B601CE0183960E94DF0C8DA19EA1AFA113
:1024E000B8A5A501481659066A067B0609F0B8CFBB
:1024F00044E050E0B60118C08B33910509F440C0A8
:102500008F3F910509F492CFA7CFC8010E943E0CDE
:10251000C8010E943E0C382E89CFC8010E943E0C93
:1025200044E050E06FA978ADC8010E941F0C7ECF37
:10253000C8010E943E0CB82E44E050E069AD7AAD6F
:10254000C8010E941F0C8B2D8450990BAC0170E0C8
:1025500060E0EACFC8010E943E0C44E050E069A967
:102560007AA9C8010E941F0CF70166A177A180A576
:1025700091A50E94172366A377A380A791A756CFA2
:10258000C8010E943E0C44E050E06BA97CA9C80140
:102590000E941F0CF70162A573A584A595A50E9452
:1025A000172362A773A784A795A740CFC8010E94ED
:1025B0003E0C44E050E06FA578A9C8010E941F0CB2
:1025C000F70162A173A184A195A10E94172362A3C0
:1025D00073A384A395A366A777A780AB91AB26CFFF
:1025E00033243A94AACE7F928F929F92AF92BF9259
:1025F000CF92DF92EF92FF920F931F93CF93DF93CF
:10260000CDB7DEB7A6970FB6F894DEBF0FBECDBF2D
:102610008C01762E942E852E20E2A22ECE010196DC
:102620007C01DC01EA2D1D92EA95E9F76801F3E4EB
:10263000CF0ED11C83E991E09AA389A38FEF8BA3DE
:102640008CA38DA38EA343E450E0BE016F5D7F4F4A
:10265000C6010E940704019609F4BFC081E0898386
:102660008A8386E0B82EBB821C82D80114966D91B5
:102670007D918D919C9117970E9417236D837E8386
:102680008F83988789869A8680E890E09C878B87DD
:102690004CE150E0B701C6010E944A0AFE0137969C
:1026A0008AE1DF011D928A95E9F74801B8E08B0EB7
:1026B000911CF401D70101900D92BA94E1F740E129
:1026C00050E0B701C6010E944A0AF7011192AA948C
:1026D000E9F796E0A92EB12C40E250E0B701C6011F
:1026E0000E944A0AF1E0AF1AB108B1F783E6898384
:1026F00092E89A8393E59B838C8385E38D8381E0C5
:102700008E837F829DE3988797E099878A8786E00A
:10271000F401DE011B9601900D928A95E1F78CE0A1
:10272000898B8A8B65E971E0CE0143960E944A232A
:10273000D8011B966C91CE0149960E941301F801B5
:102740006485CE014B960E941301D8011D966C91B1
:10275000CE014D960E9413014EE150E0B701C60133
:102760000E944A0AB3E07B121EC082E3898384E0A0
:102770008A83F80196859B8397859C8390899D83A6
:1027800091899E8396E39F838887828D8987838D35
:102790008A87848D8B87858D8C874CE050E0B701CC
:1027A000C6010E944A0A87E3898386E08A8391E012
:1027B0009B8393E09C838D838FE08E838AE38F835A
:1027C0008BE388878FEF898749E050E0B701C60126
:1027D0000E944A0AC6010E944506A6960FB6F894C2
:1027E000DEBF0FBECDBFDF91CF911F910F91FF9044
:1027F000EF90DF90CF90BF90AF909F908F907F90A1
:1028000008953F924F925F926F927F928F929F9224
:10281000AF92BF92CF92DF92EF92FF920F931F93EE
:10282000CF93DF93CDB7DEB7A3970FB6F894DEBF93
:102830000FBECDBF5C010DB71EB71BA30AA360E09E
:1028400070E0CB010E94E101D50157968D919C91DA
:102850005897912C029709F498C056968C915697E8
:102860008F5F56968C93569754962D913C91232BBF
:1028700019F09924939482C08330D8F7F5018081B0
:1028800091810E946004882309F4AFC38E010F5F19
:102890001F4F380150E1452E512CD501ED91FC918F
:1028A00080819181DC01ED91FC910084F185E02D26
:1028B0000995181619060CF098C3D501ED91FC91F5
:1028C00045E050E0BE01695E7F4F808191810E94AA
:1028D0002002009711F3059709F04AC0888D998D61
:1028E000982789279827998F888F0A8D1B8D102705
:1028F000012710271B8F0A8F892BD1F18F89811116
:1029000069C00E941402F5016683778380879187EE
:102910002789308D4A8D5B8D232B09F056C0288D79
:10292000398D2130310509F050C049305105E1F0B1
:10293000483C510519F044305105D1F4D5011E969B
:102940006D937D938D939C935197E1E0F0E05896C1
:10295000FC93EE935797C5010E94D51A60E070E092
:10296000CB010E94E10199CF83E090E0908F878BAB
:10297000D5018D919C910E947304912CD50156969E
:102980008C915697815056968C93892DAAA1BBA104
:102990000FB6F894BEBF0FBEADBFA3960FB6F894A6
:1029A000DEBF0FBECDBFDF91CF911F910F91FF9082
:1029B000EF90DF90CF90BF90AF909F908F907F90DF
:1029C0006F905F904F903F9008954530510509F00A
:1029D00064CFCECFF501808191810130F1E01F07F6
:1029E00040F0D50158961C921E9257970E9473048E
:1029F00054CF8DB69EB698012F5F3F4FEDB7FEB70F
:102A0000E21BF30B0FB6F894FEBF0FBEEDBF2DB760
:102A10003EB72F5F3F4F7901A801B901DC018D91CD
:102A20009C910E9420028017910709F06AC0EA8DEC
:102A3000FB8DEE0DFF1D10820E941402F5016683CE
:102A40007783808791878F89813109F4B9C258F5DE
:102A50008630D1F08F3009F4AFC0823051F5D50106
:102A600057968D919C915897892B71F4E1E0F0E095
:102A70005896FC93EE935797C5010E94D51A60E0D3
:102A800070E0CB010E94E101488D598DD12CC12C01
:102A9000F12CE12C08EC10E030E020E060E0C50112
:102AA0000E94151912C08D31D1F258F4843109F405
:102AB00083C0F501108E178A808191810E94730472
:102AC00004C0893241F08733A1F70FB6F8949EBE57
:102AD0000FBE8DBEE2CE84819581892B39F480E4CE
:102AE00090E00E944B20F501958384830A8D1B8D15
:102AF0000E0D1F1DFA82E9821C830B83E016F1067E
:102B000030F00FB6F8949EBE0FBE8DBE31CF40E4BC
:102B100050E0B701D50114968D919C910E945123EC
:102B2000D5011496ED91FC9117AEC3010E948E1A47
:102B3000FC018081918180179107D8F589819A8164
:102B4000009799F12B813C818217930770F50E94C1
:102B500032228B01D5018D919C910E947304D50185
:102B6000ED91FC91119714968D919C9115979187F9
:102B700080871387028758961C921E9257970E944F
:102B80001402DC01CB0188589341A109B109F50178
:102B900082879387A487B58786839783A087B18729
:102BA00086879787A08BB18B90CF60E070E0CB01D8
:102BB000D0CF00E510E0CECF888D998DD501559608
:102BC0009C938E9354970A8D1B8D19A308A36801BB
:102BD000CE0CDF1CFD8EEC8EDF8ECE8EEC14FD0451
:102BE00008F083C1D7010D911C91CE014C960E9433
:102BF0008E1AFC01808191818C159D0508F075C1AC
:102C00008C8D9D8DDC012C91213409F065C00196DD
:102C10000E9414224EE0342E380E06970CF461C048
:102C20000637B2E71B0709F460C108F0EDC20136B0
:102C3000F2E71F0709F4D3C2043622E7120709F0AE
:102C400060C033243A947A8A698A1C8A1B8A5E8A15
:102C50004D8A6AEA71E0CE0141960E94E210032D8E
:102C600010E0B801CE0141960E94B01AF801EF5C65
:102C7000FE4F8491F801E35EFE4FF490075F1E4F14
:102C8000F801049160E070E0002389F081110E9456
:102C90002901E02FF0E0EE0FFF1FE150FF4FA5915B
:102CA000B491EC91FE2261E070E009F460E0CE01A5
:102CB00041960E94B01A0B891C890150110929897B
:102CC0003A89D12CC12CF12CE12C50E040E064E198
:102CD000C5010E94151909C1CE014C960E94A11A86
:102CE000382E0637B2E71B0709F422C1E0F401369B
:102CF000F2E71F0709F4AAC0043622E7120709F415
:102D0000A2CF00371D4609F466C0D50154964D91F7
:102D10005C91D12CC12CF12CE12C02E010E030E0D0
:102D200020E060E0D5CF043647E7140709F473C00C
:102D3000063757E7150709F414C10136174729F775
:102D4000CE014C960E948E1ADC018D919C918C15BF
:102D50009D0508F0CAC061E0832D0E948001CE016C
:102D60004C960E94A11A8C0161E0832D0E94800183
:102D70000115110509F465C00F3F110509F090C058
:102D800061E060C0CE014C960E94A11AF82ECE01DF
:102D90004C960E948E1A0C8D1D8D6CE971E0C80155
:102DA0000E94412360E0892B79F06FE971E0C8014E
:102DB0000E944123892B39F063EA71E0C8010E9427
:102DC0004123892BE9F461E08F2D0E948001CE011F
:102DD0004C960E948E1A8C8D9D8D8C159D0508F049
:102DE00084C0DC012C91213469F601960E941422E2
:102DF0003EE0F32EF80E069754F2FF24FA94C7CF64
:102E000067EA71E0C8010E944123892B01F762E063
:102E1000DBCF33243A94CE014C960E948E1ADC010B
:102E20008D919C918C159D0508F05FC061E0832D0C
:102E30000E948001CE014C960E94A11A61E0892B6C
:102E400009F460E0832D0E9452014FC07A8A698A9A
:102E50001C8A1B8A5E8A4D8A6DEA71E0CE0141961A
:102E60000E94E210632D70E0CE0141960E94B01ADC
:102E7000BDE0B31510F4E2EF3E0E832D8770806441
:102E800080937C0080917A00806480937A008091A6
:102E90007A0086FDFCCF609178007091790007CFB1
:102EA000E32DF0E0EF5CFE4FE491E33039F148F4BC
:102EB000E130B9F0E230E9F0003811050CF060CFF4
:102EC000C0CFE73029F1E83059F1E430A9F780911B
:102ED000800080628093800010938B0000938A00B2
:102EE00004C084B5806884BD07BDF501158A148AC5
:102EF000ECCD84B5806284BD08BDF7CF80918000A1
:102F00008068809380001093890000938800EDCF43
:102F10008091B00080688093B0000093B300E5CF4B
:102F20008091B00080628093B0000093B400DDCF48
:102F30003982BFE1B315C8F2E32DF0E0EE0FFF1FB9
:102F4000EB5BFE4F259134912115310571F2E1E0E3
:102F50002F303E0751F2C301F9010995C6CF332442
:102F60003A94CE014C960E948E1A2C8D3D8DC9014B
:102F70008E199F0908A119A1081B190B3A832983EF
:102F80001C830B831E830D83398A1FE1131508F4FC
:102F9000ACCFE32DF0E0EE0FFF1FEB57FE4F259176
:102FA00034912115310509F4A0CF41E02E303407CA
:102FB00009F49BCFB301CE014196F901099595CF54
:102FC0008A8D9B8D8E0D9F1DFA82E9829C838B8357
:102FD000E816F90608F079CDC3010E948E1AD501D2
:102FE00055961C921E92549770CD0E9414022B018C
:102FF0003C01F501808191810E946004D5015796C2
:103000002D913C912130310509F05EC0F50181110F
:1030100009C046865786608A718A108E178A808119
:103020009181A9CC86819781A085B1859301820188
:10303000081B190B2A0B3B0BD901C801893116EF6C
:103040009107A105B10548F7893C9F4AA105B10543
:1030500090F482859385A485B58593018201081B30
:10306000190B2A0B3B0BD901C801893C9F4AA105CA
:10307000B10508F4FECBF50186859785A089B18955
:1030800093018201081B190B2A0B3B0BD901C801C4
:1030900081379741A105B10508F4EBCBD12CC12CA8
:1030A000F12CE12C10E000E030E020E050E040E0C6
:1030B00066E0C5010E941519D5011E964D925D92DC
:1030C0006D927C925197D5CB232B09F0D2CBF50191
:1030D000468557856089718993018201041B150B10
:1030E000260B370BB901A801882381F041375741DE
:1030F0006105710508F4BDCB808191810E94730444
:10310000D50158961C921E92579737CC4938534197
:103110006105710508F4ADCB808191810E94730433
:10312000D5010D911C91F801608571858081918197
:1031300042855385DC01ED91FC916115710599F093
:103140000088F189E02D099521E0019709F020E040
:10315000F8012487948491101CC0F5014686578697
:10316000608A718A0BCC0684F785E02D23E931E073
:103170003A832983D8011496CD90DD90ED90FC9090
:103180001797CB82DC82ED82FE82BE016F5F7F4F9C
:10319000DACF81E090E0D50153969C938E935297BD
:1031A00012962D913C91F90101900020E9F7319799
:1031B0008F01021B130BD12CC12CF12CE12C41E00F
:1031C00050E06DE1C5010E941519F50182859385D6
:1031D000A485B58586879787A08BB18BCFCB7A8A5C
:1031E000698A1C8A1B8A5E8A4D8A6DEA71E0CE016B
:1031F00041960E94E2106FEF70E0CE0141960E946E
:10320000B01A33243A9437CE043647E7140709F44A
:1032100000CE063757E7150709F4A1CE0136174748
:1032200009F073CD33243A948BCD2F923F924F9275
:103230005F926F927F928F929F92AF92BF92CF9246
:10324000DF92EF92FF920F931F93CF93DF9300D003
:1032500000D000D0CDB7DEB75C016E834A013901E2
:10326000DC018D919C910E946004882309F4D3C0F5
:103270008E818D7F09F401C1BE81B63009F4FDC095
:10328000BD3109F4FAC0F5018789908D019709F0E5
:10329000C2C081149104B9F4D50154968D909C90CC
:1032A00055978114910479F452968D919C9153977E
:1032B000019609F4C9C053969C938E935297D501F9
:1032C00052968D909C908E818C50893090F5F501AE
:1032D00082859385A485B5854681578160857185F2
:1032E000481759076A077B0710F4AC01BD011A01A2
:1032F0002B01F2E42F0E311C411C511C0E941402C0
:10330000A2019101261B370B480B590BDA01C901A9
:10331000B7FDA0C0C5010E9401140E941402A201C1
:103320009101261B370B480B590BDA01C901B7FF76
:10333000F1CFC80105966114710411F485E090E0A5
:10334000512C412CE114F10409F02601480E591EBC
:10335000BE81B9839824892498249B828A82C801DB
:103360008C0D9D1D9827892798279D838C83D501D7
:10337000ED91FC9180819181DC01ED91FC910280C5
:10338000F381E02D45E050E0BE016F5F7F4F09956E
:103390004C0160E070E0CB010E94E101BE81BB23E3
:1033A00081F101151105A9F0D501ED91FC91808104
:1033B0009181DC01ED91FC910280F381E02DA80167
:1033C000B3010995880E991E60E070E0CB010E9460
:1033D000E101C114D104A9F0D501ED91FC918081E6
:1033E0009181DC01ED91FC910280F381E02DA60139
:1033F000B7010995880E991E60E070E0CB010E942C
:10340000E1018414950479F1F501108E178A808109
:1034100091810E94730426960FB6F894DEBF0FBE0A
:10342000CDBFDF91CF911F910F91FF90EF90DF9073
:10343000CF90BF90AF909F908F907F906F905F9054
:103440004F903F902F90089581E090E0F501938B8D
:10345000828B35CFD50156968C9181116ACFC501EB
:103460000E94011466CF0E941402D5011A966D9332
:103470007D938D939C931D97CECF8114910409F079
:1034800058CF0ACF0C94E7201F920F920FB60F92DD
:1034900011242F933F938F939F93AF93BF9380916A
:1034A0003D0290913E02A0913F02B09140023091C6
:1034B0003C0223E0230F2D3758F50196A11DB11DC5
:1034C00020933C0280933D0290933E02A0933F02E2
:1034D000B09340028091410290914202A091430238
:1034E000B09144020196A11DB11D809341029093B9
:1034F0004202A0934302B0934402BF91AF919F91C7
:103500008F913F912F910F900FBE0F901F901895A4
:1035100026E8230F0296A11DB11DD2CFDC01ED914B
:10352000FC911197309761F012962D913C91139771
:10353000E217F30728F401900020E9F7ED93FC93DC
:103540000895FC0180819181009739F022813381B7
:103550008217930710F40C94142290E080E00895F1
:103560000F931F93CF93DF93CDB7DEB762970FB65C
:10357000F894DEBF0FBECDBF8C01CB014AE0BE0187
:103580006F5F7F4F0E946222BE016F5F7F4FC80155
:103590000E94E21062960FB6F894DEBF0FBECDBF58
:1035A000DF91CF911F910F910895AF92BF92CF926B
:1035B000DF92EF92FF920F931F93CF93DF93CDB7DC
:1035C000DEB7CF5BD1090FB6F894DEBF0FBECDBF1B
:1035D0005C01CE0186589F4FC654DF4F9983888384
:1035E000CA5BD040C454DF4F19821882CC5BD040F4
:1035F00080E490E0C254DF4F99838883CE5BD04053
:1036000060EB71E0CE0186549F4F0E94E21065EBA3
:1036100071E0CE0186549F4F0E94E21049E750E0CE
:1036200060E770E0CE0101960E945922C454DF4F3A
:10363000C880D980CC5BD040C654DF4FE880F98089
:10364000CA5BD04009E710E09E012F5F3F4F50E07A
:1036500040E061E1C5010E941519C154DF4F0FB66A
:10366000F894DEBF0FBECDBFDF91CF911F910F91B8
:10367000FF90EF90DF90CF90BF90AF900895E2E67B
:10368000F2E083E991E091838083128213821482B5
:103690001582E8E6F2E0918380831282138214821D
:1036A0001582EEE6F2E09183808312821382148207
:1036B0001582E4E7F2E09183808312821382148200
:1036C0001582EAE7F2E091838083128213821482EA
:1036D0001582E6E8F2E091838083128213821482DD
:1036E0001582E0E8F2E091838083128213821482D3
:1036F0001582ECE8F2E091838083128213821482B7
:103700001582E2E9F2E091838083128213821482AF
:103710001582E3EDF2E0918380831282138214829A
:103720001582E4ECF2E01382128221E631E031836B
:10373000208324E0248728EE33E036872587A7EB13
:10374000B2E013969C938E93129714961D921D923D
:103750001D921C92179719961C921E9218971B96F1
:103760001C921E921A971C961C921C971196FC9301
:10377000EE9340E757E160E070E044835583668351
:103780007783E8E9F2E0B183A08313821282158285
:10379000148216821782108611861286138614866A
:1037A000158616861786108A118A138A128A158A38
:1037B000148A168A108E178A0895CF93DF93CDB797
:1037C000DEB72A970FB6F894DEBF0FBECDBF789450
:1037D00084B5826084BD84B5816084BD85B5826016
:1037E00085BD85B5816085BD80916E0081608093C7
:1037F0006E00109281008091810082608093810030
:10380000809181008160809381008091800081603F
:10381000809380008091B10084608093B10080919A
:10382000B00081608093B00080917A0084608093C2
:103830007A0080917A00826080937A0080917A0089
:10384000816080937A0080917A00806880937A000A
:103850001092C10061E082E00E9480018EEF8093AF
:10386000B1029DEE9093B2022AEB2093B3028093B3
:10387000B4028093B5029093B60220E031E0D90102
:103880000D900020E9F79D0121503140A0E0B1E00A
:10389000E1E0F0E0AD01405051404217530784F49D
:1038A000AF014F5F5F4F6D91E856FD4F818D8627C9
:1038B000818F4630510514F041E050E0FA01EACF23
:1038C0008091340281112AC010921C0210921B02B6
:1038D00088EE93E0A0E0B0E080931D0290931E027A
:1038E000A0931F02B093200287E391E090931A0205
:1038F0008093190283E991E0909328028093270234
:103900001092290210922A0210922B0210922C027D
:1039100084E08093310281E08093340286ED91E06F
:103920009093D5018093D4018091D3018111ADC0D2
:1039300060E372E080E090E00E94E101DFB6F8947D
:1039400003E111E0E7E2EE2EE1E0FE2E8091D101ED
:10395000811125C0F8018491F7019491E82FF0E0DE
:10396000EE0FFF1FE551FF4FA591B4918C91982365
:1039700021F461E08AE00E94520161E08AE00E9445
:1039800080018CB580618CBD8CB580648CBD61E09C
:103990008DE00E94800161E08BE00E9480018091B7
:1039A000D1018F5F8093D101DFBEF8010491E02F38
:1039B000F0E0EE0FFF1FEB50FF4F85919491909335
:1039C000D0018093CF01F701E490E092CE0161E055
:1039D0008AE00E9480010E948A0280E591E00E94B4
:1039E000100184E38093610280E80E9456030E94E4
:1039F0008906882309F4FEC188E00E9456030E94CC
:103A00007606883009F0F6C180E10E9456030E94D4
:103A10007606803109F0EEC180E00E9456030E94D4
:103A20007606182F8111E6C141E050E0BE016F5FBC
:103A30007F4F8FE190E00E9401058981833009F07A
:103A4000D9C180E48093D20142E06EE170E0812F21
:103A50000E94B20342E06FE170E0812F0E94B20346
:103A60001F5F143089F740E06EE170E0812F0E9403
:103A7000B20340E06FE170E0812F0E94B2031F5F4C
:103A8000183089F781E08093D30180E591E00E94AE
:103A9000100146E050E061EB72E089E090E00E94A6
:103AA000A60283E991E09A8389831B821C821D828E
:103AB0001E8244E050E0BE016D5F7F4F8FE090E0DA
:103AC0000E94A6020091D4011091D501D8019296CE
:103AD0001D921D921D921C929597F80116A217A295
:103AE00010A611A69A961D921D921D921C929D974A
:103AF00080E69AEEA0E0B0E086AB97ABA0AFB1AFA6
:103B000080EA9FE0A0E0B0E082AF93AFA4AFB5AF92
:103B1000D801189686E0FD01282F11922A95E9F721
:103B20009801225F3F4F94E1F90111929A95E9F7CC
:103B3000E1EBF2E001900D928A95E1F7C8018E5B0E
:103B40009F4F9A878987DC011C920E94BC212FEC31
:103B500037E040E050E00E94B422DC01CB01019646
:103B6000A11DB11DF80184839583A683B78380834B
:103B70009183A283B3835801F3E4AF0EB11CC50156
:103B80000E94D10564E470E0C5010E943A098823CF
:103B900009F499C10E9414022B013C0148EEC42E85
:103BA00043E0D42EE12CF12C52E0252E912C812CD7
:103BB000A985BA858C918330B9F181118EC1F80144
:103BC00084819581A681B7810196A11DB11D848351
:103BD0009583A683B7830E94140264197509860928
:103BE0009709A70196010E94E622A90161E0C80198
:103BF0000E94F31281E0A985BA858C93F1E08F16BB
:103C00009104B1F20E94140264197509860997099A
:103C1000D801D6962D913D914D915C91D99726175B
:103C200037074807590710F6C5010E94D105F8016A
:103C300084819581A681B7810196A11DB11D8483E0
:103C40009583A683B7830E941402F801FE966083D1
:103C50007183828393838A94892809F034C180E533
:103C600091E00E9410010091D4011091D501B8019A
:103C7000625F7F4FCE0101960E94DF0C44E050E06E
:103C8000BE016D5F7F4F8FE090E00E94A602B801F9
:103C90006A5E7F4FCE0101960E94DF0C44E050E047
:103CA000BE016D5F7F4F81E090E00E94A602B801E7
:103CB0006E5E7F4FCE0101960E94DF0C44E050E023
:103CC000BE016D5F7F4F85E090E00E94A602B801C3
:103CD000625E7F4FCE0101960E94DF0C8B819C813A
:103CE000AD81BE818093820290938302A09384026F
:103CF000B09385020E94BC017F7380912101909155
:103D0000220168277927709322016093210168EED0
:103D100073E080E090E00E94E10183E991E09A8302
:103D200089831B821C821D821E8280E591E00E9495
:103D3000100144E050E0BE016D5F7F4F8FE090E0E6
:103D40000E94010580E091E090939B0280939A028B
:103D50000E941402DC01CB0188589341A109B109EA
:103D60008093A2029093A302A093A402B093A50211
:103D700080939E0290939F02A093A002B093A10211
:103D80008093A6029093A702A093A802B093A902E1
:103D9000E0919802F091990282EC91E091878087FE
:103DA00080E590E0938782878091980290919902B4
:103DB0000E9473041092B0021092AF020E9414028B
:103DC0006B017C018091AF029091B002019709F4E0
:103DD0004FC10E9414026C197D098E099F0960353C
:103DE00076448105910508F043C188E992E00E947C
:103DF0000114E8CF87E38093610280E80E945603B4
:103E00000E948906882329F188E00E9456030E94B7
:103E100076068830F1F480E10E9456030E9476060F
:103E2000182F8031B1F480E00E9456030E9476067C
:103E300081110FC041E050E0BE016F5F7F4F89E309
:103E400090E00E9401058981843019F41093D20119
:103E500019CE83E38093610280E80E9456030E949A
:103E60008906882371F180E10E9456030E9476063C
:103E7000803139F582E10E9456030E947606823134
:103E800001F580E00E9456030E947606811119C058
:103E900084E08093D20115E5188741E050E0BE012F
:103EA000685F7F4F8BE190E00E94A6021F8341E094
:103EB00050E0BE01695F7F4F8AE190E00E94A60258
:103EC000E1CD1092610260E177E280E090E00E9433
:103ED000E101F0E0E0E00995FFCF8430F9F4F8016A
:103EE00084819581A681B7810196A11DB11D84832E
:103EF0009583A683B7830E94140264197509860905
:103F00009709A70196010E94E622A90163E0C80172
:103F10000E94F312A985BA852C9270CE813059F592
:103F2000F80142AD53AD64AD75AD9E012F5F3F4FBB
:103F3000C8010E945411382EF2E08F1392C089817B
:103F40009A81AB81BC81F80184839583A683B78372
:103F50000E9414026419750986099709A701960140
:103F60000E94E622A90163E0C8010E94F312A9851C
:103F7000BA853C9243CE823009F040CEF80142AD82
:103F800053AD64AD75AD9E012F5F3F4FC8010E94D8
:103F90005411382EF5E08F135DC0E3E0A985BA8592
:103FA000EC93F80182A193A1A4A1B5A1892B8A2B3E
:103FB0008B2B41F484E893E0A0E0B0E082A393A3CC
:103FC000A4A3B5A3F80186A197A1A0A5B1A5892BAB
:103FD0008A2B8B2B61F482A193A1A4A1B5A1B695E4
:103FE000A7959795879586A397A3A0A7B1A7F80152
:103FF00082A593A5A4A5B5A5892B8A2B8B2BA9F403
:1040000082A193A1A4A1B5A1AC01BD0123E0769545
:104010006795579547952A95D1F7841B950BA60B65
:10402000B70B82A793A7A4A7B5A7F80186A197A16C
:10403000A0A5B1A586A797A7A0ABB1AB82A593A574
:10404000A4A5B5A582AB93ABA4ABB5AB88248394F0
:10405000912CD4CDF6E08F1304C0A985BA851C92AB
:10406000CDCDBFEF3B12CACDE985FA851082C6CD12
:104070008091AF029091B002019709F095CE00E0D7
:1040800010E088E992E00E94011401151105C9F3BE
:104090000E940000F6CF0F931F93CF93DF938230DF
:1040A000910510F482E090E0E091DB02F091DC02F7
:1040B00030E020E0B0E0A0E0309799F42115310520
:1040C00009F44AC0281B390B24303105D8F58A8100
:1040D0009B816115710589F1FB0193838283FE0148
:1040E00011C0408151810281138148175907E0F0C6
:1040F0004817590799F4109761F012960C9312978C
:1041000013961C933296CF01DF91CF911F910F919F
:1041100008950093DB021093DC02F4CF21153105E2
:1041200051F04217530738F0A901DB019A01BD0194
:10413000DF01F801C1CFEF01F9CF9093DC0280934A
:10414000DB02CDCFFE01E20FF31F8193919322504A
:10415000310939832883D7CF2091D9023091DA02EF
:10416000232B41F420912501309126013093DA026E
:104170002093D9022091230130912401211531058A
:1041800041F42DB73EB74091270150912801241BDF
:10419000350BE091D902F091DA02E217F307A0F4AF
:1041A0002E1B3F0B2817390778F0AC014E5F5F4F8D
:1041B0002417350748F04E0F5F1F5093DA024093E3
:1041C000D902819391939FCFF0E0E0E09CCFCF9311
:1041D000DF930097E9F0FC01329713821282A091DD
:1041E000DB02B091DC02ED0130E020E01097A1F499
:1041F00020813181820F931F2091D9023091DA0200
:104200002817390709F061C0F093DA02E093D90268
:10421000DF91CF910895EA01CE17DF07E8F54A81D3
:104220005B819E0141155105B1F7E901FB83EA83EA
:1042300049915991C40FD51FEC17FD0761F4808196
:1042400091810296840F951FE90199838883828169
:1042500093819B838A83F0E0E0E012968D919C919C
:1042600013970097B9F52D913C911197CD010296C6
:10427000820F931F2091D9023091DA022817390753
:1042800039F6309751F51092DC021092DB02B093B0
:10429000DA02A093D902BCCFD383C283408151817B
:1042A000840F951FC817D90761F44E5F5F4F88814F
:1042B0009981480F591F518340838A819B81938341
:1042C00082832115310509F0B0CFF093DC02E09331
:1042D000DB029ECFFD01DC01C0CF13821282D7CF5B
:1042E0008F929F92AF92BF92CF92DF92EF92FF9206
:1042F000CF93DF93EC01688179818A819B8161157D
:1043000071058105910521F464E279ED8BE597E073
:104310002DE133EF41E050E00E94B42249015A01FF
:104320009B01AC01A7EAB1E40E94D3226B017C019E
:10433000ACEEB4EFA50194010E94E122C60ED71E97
:10434000E81EF91EF7FE06C081E0C81AD108E10890
:1043500080E8F80AC882D982EA82FB82C701B601E6
:104360009F77DF91CF91FF90EF90DF90CF90BF903C
:10437000AF909F908F9008958F929F92AF92BF922F
:10438000CF92DF92EF92FF926091290170912A0102
:1043900080912B0190912C0161157105810591058A
:1043A00021F464E279ED8BE597E02DE133EF41E014
:1043B00050E00E94B42249015A019B01AC01A7EAD6
:1043C000B1E40E94D3226B017C01ACEEB4EFA501F5
:1043D00094010E94E122C60ED71EE81EF91EF7FEC8
:1043E00006C081E0C81AD108E10880E8F80AC09246
:1043F0002901D0922A01E0922B01F0922C01C701F1
:10440000B6019F77FF90EF90DF90CF90BF90AF9075
:104410009F908F9008956093290170932A01809353
:104420002B0190932C010895FC0188279927E8948B
:1044300021912032E9F3293010F02E30C8F32B32CD
:1044400041F02D3239F4689404C00E948222820F18
:10445000911D219120532A30C0F31EF4909581952F
:104460009F4F08951F93FC0199278827BC01E8946A
:1044700011911032E9F3193010F01E30C8F31B32DD
:1044800051F01D3249F4689406C00E946D22610FFC
:10449000711D811D911D119110531A30B0F33EF41E
:1044A00090958095709561957F4F8F4F9F4F1F918D
:1044B0000895FB01DC0102C005900D92415050406F
:1044C000D8F70895BB274A3031F4992322F4BDE28E
:1044D000909581959F4F0C948B22592F482F372F01
:1044E000262F660F771F881F991F660F771F881F5B
:1044F000991F620F731F841F951F660F771F881FF8
:10450000991F08957AE0979F902D879F802D910D98
:1045100011240895BB27FB015527AA27880F991F4F
:10452000AA1FA41710F0A41B83955051B9F7A05DE2
:10453000AA3308F0A95DA193009779F7B111B1935F
:104540001192CB010C94A422DC01FC01672F719124
:104550007723E1F7329704C07C916D937083629169
:10456000AE17BF07C8F30895052E97FB1EF40094FD
:104570000E94CB2257FD07D00E94E62207FC03D001
:104580004EF40C94CB2250954095309521953F4F99
:104590004F4F5F4F089590958095709561957F4F2F
:1045A0008F4F9F4F08950E940823A59F900DB49FA1
:1045B000900DA49F800D911D11240895B7FF0C94B8
:1045C000D3220E94D322821B930B0895A1E21A2EBC
:1045D000AA1BBB1BFD010DC0AA1FBB1FEE1FFF1FA7
:1045E000A217B307E407F50720F0A21BB30BE40BF7
:1045F000F50B661F771F881F991F1A9469F760953E
:104600007095809590959B01AC01BD01CF010895F7
:10461000A29FB001B39FC001A39F700D811D112403
:10462000911DB29F700D811D1124911D0895692760
:10463000962769277827872778270895EE0FFF1F89
:104640000590F491E02D0994FB01DC0104C08D91EB
:104650000190801921F441505040C8F7881B990BF4
:104660000895FB01DC0102C001900D9241505040C1
:10467000D8F70895DC0101C06D9341505040E0F738
:104680000895FB01DC018D91019080190110D9F38F
:10469000990B0895FB01DC0101900D920020E1F7D8
:1046A0000895FB01DC014150504048F001900D920B
:1046B0000020C9F701C01D9241505040E0F7089515
:1046C000F894FFCF384873693653447462554B6889
:1046D00056484B7866355F3046376B6E5336756398
:1046E0004464304E0000C00000DD02800001000084
:1046F0000001005E00000000000000CF034A0A5DD8
:10470000040F0125013E0CC5063A09D507D105075E
:1047100004E40F4506260D1F0C5604460442043ED1
:104720000400000000F003840A410A2C0A460B68CA
:104730000CD406B8085710820C0C06EA0593049BAB
:1047400004421A90048E04E5038404B50CEB0C8B30
:104750000C8004000000000A1157495A6E6574006D
:10476000696E006F75740070776D00707500647706
:1047700000617700746D706C00544D504C59624B61
:10478000747354785700626C796E6B2E636C6F751E
:024790006400C3
:107E0000112484B714BE81FFF0D085E080938100F7
:107E100082E08093C00088E18093C10086E0809377
:107E2000C20080E18093C4008EE0C9D0259A86E02C
:107E300020E33CEF91E0309385002093840096BBD3
:107E4000B09BFECF1D9AA8958150A9F7CC24DD24C4
:107E500088248394B5E0AB2EA1E19A2EF3E0BF2EE7
:107E6000A2D0813461F49FD0082FAFD0023811F036
:107E7000013811F484E001C083E08DD089C08234E0
:107E800011F484E103C0853419F485E0A6D080C0E4
:107E9000853579F488D0E82EFF2485D0082F10E0AE
:107EA000102F00270E291F29000F111F8ED06801E7
:107EB0006FC0863521F484E090D080E0DECF843638
:107EC00009F040C070D06FD0082F6DD080E0C81688
:107ED00080E7D80618F4F601B7BEE895C0E0D1E017
:107EE00062D089930C17E1F7F0E0CF16F0E7DF06D8
:107EF00018F0F601B7BEE89568D007B600FCFDCFD4
:107F0000A601A0E0B1E02C9130E011968C91119780
:107F100090E0982F8827822B932B1296FA010C0160
:107F200087BEE89511244E5F5F4FF1E0A038BF0790
:107F300051F7F601A7BEE89507B600FCFDCF97BE46
:107F4000E89526C08437B1F42ED02DD0F82E2BD052
:107F50003CD0F601EF2C8F010F5F1F4F84911BD097
:107F6000EA94F801C1F70894C11CD11CFA94CF0C13
:107F7000D11C0EC0853739F428D08EE10CD085E9AC
:107F80000AD08FE07ACF813511F488E018D01DD067
:107F900080E101D065CF982F8091C00085FFFCCF94
:107FA0009093C60008958091C00087FFFCCF809118
:107FB000C00084FD01C0A8958091C6000895E0E648
:107FC000F0E098E1908380830895EDDF803219F02E
:107FD00088E0F5DFFFCF84E1DECF1F93182FE3DFCA
:107FE0001150E9F7F2DF1F91089580E0E8DFEE27F6
:047FF000FF270994CA
:027FFE00040479
:00000001FF
