:020000040000FA
:100000000C9418020C9440020C9440020C94400290
:100010000C9440020C9440020C9440020C94400258
:100020000C9440020C9440020C9440020C94400248
:100030000C9440020C9440020C9440020C94400238
:100040000C94F9220C9440020C94C7220C94A12227
:100050000C9440020C9440020C9440020C94400218
:100060000C9443230C94400200407A10F35A00A0F1
:10007000724E18090010A5D4E80000E87648170071
:1000800000E40B54020000CA9A3B000000E1F505B1
:10009000000080969800000040420F000000A086FB
:1000A00001000000102700000000E803000000002D
:1000B0006400000000000A000000000001000000D1
:1000C00000002C76D888DC674F0823DFC1DFAE59EB
:1000D000E1B1B796E5E3E453C63AE651997696E87E
:1000E000E6C28426EB898C9B62ED407C6FFCEFBC02
:1000F0009C9F40F2BAA56FA5F490055A2AF75C932D
:100100006B6CF9676DC11BFCE0E40D47FEF520E662
:10011000B500D0ED902E0300943577050080841E45
:10012000080000204E0A000000C80C333333330FA0
:10013000986E12831141EF8D2114893BE65516CF3D
:10014000FEE6DB18D1844B381BF77C1D901DA4BB49
:10015000E424203284725E228100C9F124ECA1E5FE
:100160003D275D2000626C6E6B696E66007665727D
:1001700000312E302E3100682D62656174003435F7
:1001800000627566662D696E0032353600646576EC
:100190000041726475696E6F20556E6F00637075F3
:1001A0000041546D6567613332385000636F6E00F3
:1001B00057353130300066772D7479706500544DB5
:1001C000504C6D506A6B307A344C006275696C64C7
:1001D000004A756C20203520323032322031383AD6
:1001E00034313A34390000000D0A202020205F5FAE
:1001F0005F20205F5F202020202020202020205F03
:100200005F0D0A2020202F205F20292F202F5F2024
:100210005F5F5F5F5F20202F202F5F5F0D0A202030
:100220002F205F20202F202F202F2F202F205F20F6
:100230005C2F2020275F2F0D0A202F5F5F5F5F2F2D
:100240005F2F5C5F2C202F5F2F2F5F2F5F2F5C5F56
:100250005C0D0A20202020202020202F5F5F5F2FB0
:100260002076312E302E31206F6E204172647569F8
:100270006E6F20556E6F0D0A0000000000250028EB
:10028000002B0000000000240027002A0049503AFB
:100290000044484350204661696C6564210047650D
:1002A0007474696E672049502E2E2E00436F6E6E57
:1002B000656374696E6720746F2000436F6E6E65AE
:1002C0006374696E6720746F20006D73292E00526D
:1002D00065616479202870696E673A20000000002B
:1002E000002300260029000404040404040404027A
:1002F00002020202020303030303030102040810C3
:10030000204080010204081020010204081020008F
:1003100000000800020100000304070000000000C4
:1003200000000043024302430243024302430243EC
:100330000243024302430243024302430243024395
:100340000243024302430243024302430243024385
:100350000243024302430243024302430243024375
:100360000243023A0B4202140B4202F20ACA0A4248
:10037000024202420242024202420242024202425D
:10038000024202420242024202420242024202424D
:10039000024202420242024202420242024202423D
:1003A000024202496E76616C696420485720636D91
:1003B000643A20005365727665723A200052656493
:1003C0006972656374696E6720746F20005265619D
:1003D0006479005061636B657420746F6F2062698B
:1003E000673A2000436F6E6E656374206661696CC6
:1003F00065642E20636F64653A2000496E76616CF7
:100400006964206175746820746F6B656E004C6F51
:1004100067696E2074696D656F75740048656172F7
:1004200074626561742074696D656F75740001256F
:1004300011241FBECFEFD8E0DEBFCDBF13E0A0E098
:10044000B1E0E4EAFCE602C005900D92A630B107E7
:10045000D9F726E0A6E0B3E001C01D92AB3CB2079D
:10046000E1F712E0C8E1D2E004C02197FE010E944A
:100470005135C731D107C9F70E94EC250C9450368D
:100480000C940000089508958CBD9DBD089520E34F
:10049000FC0120833296862F82958F706F706A30B0
:1004A00030F4605D6293682F8111F5CF0895695C27
:1004B000F9CFFC01818D928D0895089508950895D6
:1004C000DC01ED91FC910190F081E02D0994AF9257
:1004D000BF92CF92DF92EF92FF920F931F93CF9331
:1004E000DF936C017B018B01040F151FEB015E0193
:1004F000AE18BF08C017D10759F06991D601ED9128
:10050000FC910190F081E02DC6010995892B79F7C6
:10051000C501DF91CF911F910F91FF90EF90DF9078
:10052000CF90BF90AF900895FC01538D448D252F3F
:1005300030E0842F90E0821B930B541710F0CF967D
:10054000089501970895FC01918D828D981761F0AF
:10055000A28DAE0FBF2FB11D5D968C91928D9F5FC6
:100560009F73928F90E008958FEF9FEF0895FC01A5
:10057000918D828D981731F0828DE80FF11D858D58
:1005800090E008958FEF9FEF0895FC01918D228DEB
:10059000892F90E0805C9F4F821B91098F73992770
:1005A000089589E594E00E94C50221E0892B09F4B1
:1005B00020E0822F089580E090E0892B29F00E94AE
:1005C000D10281110C9400000895FC01A48DA80FA4
:1005D000B92FB11DA35ABF4F2C91848D90E0019685
:1005E0008F739927848FA689B7892C93A089B189A5
:1005F0008C91837080648C93938D848D981306C046
:100600000288F389E02D80818F7D80830895EF92A9
:10061000FF920F931F93CF93DF93EC0181E0888FBC
:100620009B8D8C8D98131AC0E889F989808185FF8C
:1006300015C09FB7F894EE89FF896083E889F9892E
:1006400080818370806480839FBF81E090E0DF9130
:10065000CF911F910F91FF90EF900895F62E0B8D83
:1006600010E00F5F1F4F0F731127E02E8C8D8E113E
:100670000CC00FB607FCFACFE889F989808185FFA5
:10068000F5CFCE010E94E502F1CFEB8DEC0FFD2FEF
:10069000F11DE35AFF4FF0829FB7F8940B8FEA8960
:1006A000FB8980818062CFCF0F931F93CF93DF931D
:1006B0008C01D0E0C0E0F801EC0FFD1F64916623CF
:1006C00041F089E594E00E940703892B11F02196FF
:1006D000F2CFCE01DF91CF911F910F910895682F36
:1006E00089E594E00C940703CF93DF93EC01888DA8
:1006F0008823B9F0AA89BB89E889F9898C9185FD9D
:1007000003C0808186FD0DC00FB607FCF7CF8C912A
:1007100085FFF2CF808185FFEDCFCE010E94E502FB
:10072000E9CFDF91CF910895833081F028F48130B3
:1007300099F08230A9F008958730A9F08830C9F087
:100740008430B1F4809180008F7D03C0809180005F
:100750008F7780938000089584B58F7784BD089546
:1007600084B58F7DFBCF8091B0008F778093B000F0
:1007700008958091B0008F7DF9CF1F93CF93DF93C1
:10078000282F30E0F901E15FFC4F8491F901E55039
:10079000FD4FD491F901E951FD4FC491CC23A9F04B
:1007A000162F81110E949403EC2FF0E0EE0FFF1F33
:1007B000E758FD4FA591B4918FB7F894EC911111C2
:1007C00008C0D095DE23DC938FBFDF91CF911F91BE
:1007D0000895DE2BF8CFCF93DF9390E0FC01E55036
:1007E000FD4F249189519D4FFC0184918823C9F0CC
:1007F00090E0880F991FFC01ED57FD4FA591B49132
:10080000FC01E758FD4FC591D49161110DC09FB710
:10081000F8948C91209582238C93888128232883B7
:100820009FBFDF91CF910895623051F49FB7F89444
:100830003C91822F809583238C93E8812E2BEFCFE0
:100840008FB7F894EC912E2B2C938FBFEACF1F9388
:10085000CF93DF93182FEB0161E00E94EB03209709
:1008600039F460E0812FDF91CF911F910C94BD038B
:10087000CF3FD10511F461E0F5CFE12FF0E0E15F6A
:10088000FC4FE491E33031F140F4E130B1F0E2307B
:10089000E1F0C038D1057CF7E4CFE73029F1E8304A
:1008A00059F1E430B1F7809180008062809380003C
:1008B000D0938B00C0938A0004C084B5806884BD47
:1008C000C7BDDF91CF911F91089584B5806284BD2B
:1008D000C8BDF7CF80918000806880938000D0935E
:1008E0008900C0938800EDCF8091B000806880932C
:1008F000B000C093B300E5CF8091B00080628093D8
:10090000B000C093B400DDCF8E3008F08E508770F9
:10091000806480937C0080917A00806480937A0068
:1009200080917A0086FDFCCF8091780090917900CB
:1009300008953FB7F8948091BD039091BE03A091B4
:10094000BF03B091C00326B5A89B05C02F3F19F087
:100950000196A11DB11D3FBFBA2FA92F982F88273F
:10096000BC01CD01620F711D811D911D42E0660F1A
:10097000771F881F991F4A95D1F708958F929F92EC
:10098000AF92BF92CF92DF92EF92FF926B017C0108
:100990000E9499044B015C01C114D104E104F104EB
:1009A000B9F00E949904681979098A099B09683E7F
:1009B00073408105910580F321E0C21AD108E10856
:1009C000F10888EE880E83E0981EA11CB11CE4CFCC
:1009D000FF90EF90DF90CF90BF90AF909F908F905F
:1009E00008952FB7F8946091B9037091BA0380917C
:1009F000BB039091BC032FBF08954F925F926F92FB
:100A00007F92AF92BF92CF92DF92EF92FF920F93BD
:100A10001F93CF93DF93EC016B017B01E40EF51E76
:100A20008B015801AC18BD080E151F0511F10E946D
:100A3000F104688779878A879B87E881F981028436
:100A4000F385E02DCE01099597FF23C00E94F104A4
:100A5000488459846A847B846419750986099709D6
:100A60004C805D806E807F806415750586059705D6
:100A700020F3C501DF91CF911F910F91FF90EF906F
:100A8000DF90CF90BF90AF907F906F905F904F902E
:100A90000895F80181938F01C4CF20914703260F59
:100AA0003327331F21323105ECF420919003FC01F0
:100AB00090E080E0243069F082E00895A09147033F
:100AC0002191AC01495D5C4FA40FB52FB11D2C9352
:100AD0000196861798F380914703680F6093470348
:100AE00080E0089581E008951092900381E0809362
:100AF0008F0310926A0361E082E10E94BD0361E00E
:100B000083E10E94BD03E9EBF0E080818E7F80836A
:100B100080818D7F808388E48093B80085E4809312
:100B2000BC000895CF93DF9391E090932603882330
:100B3000B9F0C091B800D091BA008091BC008A7B16
:100B40008093BC0060E082E10E94BD0360E083E12D
:100B50000E94BD030E947405D093BA00C093B800F0
:100B6000DF91CF910895E091360480913504E81724
:100B700030F4F0E0EA5FFC4F808190E008958FEF61
:100B80009FEF089590913604809135042FEF3FEF49
:100B9000981748F4E92FF0E0EA5FFC4F208130E03D
:100BA0009F5F90933604C901089580913504909118
:100BB0003604891B990B0895CF92DF92EF92FF9232
:100BC0000F931F93CF93DF937C01CB018A01209178
:100BD0009603222389F0EB016B01C40ED51ECC15C0
:100BE000DD0569F06991D701ED91FC910190F081EB
:100BF000E02DC7010995F3CF642F0E944D05C80170
:100C0000DF91CF911F910F91FF90EF90DF90CF90E8
:100C10000895CF93DF931F92CDB7DEB769832091FC
:100C200096032223F9F020913304203258F021E07A
:100C300030E0FC013383228390E080E00F90DF916D
:100C4000CF91089580913404E82FF0E0E956FC4FED
:100C5000998190838F5F809334048093330481E083
:100C600090E0ECCF61E0CE0101960E944D05F7CFF8
:100C7000CF92DF92EF92FF920F931F93CF93DF9368
:100C8000FC01C48121E020939603C093B703109226
:100C90003404109233048385682B86EF94E00E941D
:100CA0000906D0913304D13208F092C00E94990411
:100CB0006B017C0180919003811165C082E080937B
:100CC000900381E080938F038FEF80938E031092C7
:100CD0008D03D0938C03A7E9B3E0ECE6F3E080E06A
:100CE000D81385C010926B0380916B03CC0FC82B77
:100CF000C0936B0380916A03813009F07CC010922D
:100D00006A030E9499046B017C0180916B038093BC
:100D1000BB008091920390919303A0919403B091B2
:100D20009503892B8A2B8B2B99F00E9499040091B3
:100D300092031091930320919403309195036C19C1
:100D40007D098E099F090617170728073907E0F163
:100D50008091BC0083FDD9CF85EC8093BC000E94BC
:100D600099046B017C0180919003823009F445C0A5
:100D700080918E038F3F61F180918E03803241F12B
:100D800080918E0325C08091920390919303A0914E
:100D90009403B0919503892B8A2B8B2B09F48ACF6E
:100DA0000E9499040091920310919303209194035F
:100DB000309195036C197D098E099F090617170755
:100DC0002807390708F076CF809191030E94920599
:100DD000109234041092330410929603DF91CF9155
:100DE0001F910F91FF90EF90DF90CF9008959D910C
:100DF00091938F5F75CF85EEB0CF809192039091E4
:100E00009303A0919403B0919503892B8A2B8B2B8C
:100E100009F4A9CF0E9499040091920310919303C1
:100E200020919403309195036C197D098E099F09D7
:100E3000061717072807390708F095CFC5CFFC011B
:100E400020812EBD9B012150310941F051810DB40B
:100E500007FEFDCF4EB55EBD4193F5CF61507109E0
:100E6000860F971F0DB407FEFDCF2EB5FC01208322
:100E70000895E091C203F091C30380819091C10372
:100E8000892B80830895E091C203F091C303908180
:100E90008091C10380958923808308958EBD0000D1
:100EA0000DB407FEFDCF8EB50895AF92BF92CF92DD
:100EB000DF92EF92FF920F931F93CF93DF93CDB703
:100EC000DEB728970FB6F894DEBF0FBECDBF8C01FA
:100ED0007B016A01809158048333E1F45801A40E28
:100EE000B51EA016B10609F46FC00E94430780EF3B
:100EF0000E944E07812F0E944E07802F0E944E07AE
:100F00000F5F1F4FF70181917F010E944E070E94E2
:100F10003907E7CF5B01A40EB51E8433C1F40E94EC
:100F2000430719830A838D2D80688B83CC8264E00C
:100F300070E0CE0101960E941F07AE14BF0409F4B1
:100F400041C0F70181917F010E944E07F6CF0E94B8
:100F500043070F3F110509F028F419820A8384E042
:100F60008B830CC017FD17C019820A8333E01695D6
:100F700007953A95E1F7007E0C600B8386E0C81672
:100F8000D104A0F5F701DE011496EA15FB0599F0EE
:100F900081918D93FACFC80126E0969587952A9581
:100FA000E1F7807E19830A830115104C10F48461E7
:100FB000D7CF8C61D5CFB6016D5F7F4FCE01019643
:100FC0000E941F070E943907C60128960FB6F894A1
:100FD000DEBF0FBECDBFDF91CF911F910F91FF906C
:100FE000EF90DF90CF90BF90AF90089563E070E0F6
:100FF000CE0101960E941F07F70181917F010E9497
:101000004E07AE14BF04C1F7DDCFCF93DF931F921D
:10101000CDB7DEB7898341E050E0BE016F5F7F4FFF
:1010200090E080E00E9455070F90DF91CF910895E6
:1010300090E020915804233339F40C96982F990F9F
:10104000990F990F80E008954896F8CFDA01E09162
:10105000C503F0E0FE2FEE27E60FF71F90E0982F74
:101060008827A901BD018E0F9F1F0C945507CF93B0
:10107000DF9300D0CDB7DEB779836A8322E030E01A
:10108000AE014F5F5F4F60E170E00E9426080F9055
:101090000F90DF91CF910895CF93DF9300D0CDB71C
:1010A000DEB779836A8322E030E0AE014F5F5F4FA5
:1010B00064E070E00E9426080F900F90DF91CF91BE
:1010C0000895CF93DF931F92CDB7DEB72091C5036C
:1010D00030E0322F2227260F371F90E0982F8827E5
:1010E000498341E050E0BE016F5F7F4F820F931F45
:1010F0000E9455070F90DF91CF910895CF93DF9312
:101100001F92CDB7DEB76983DC01ED91FC910280BF
:10111000F381E02D41E050E0BE016F5F7F4F099504
:101120000F90DF91CF910895FC019485FB01848598
:10113000981303C081E0943008F080E00895CF93C5
:10114000DF931F92CDB7DEB76983DC01ED91FC918F
:101150000280F381E02D41E050E0BE016F5F7F4FE0
:1011600009950F90DF91CF9108950895FF920F9305
:101170001F93CF93DF93EB01FC01178A168A2A8114
:10118000211109C02B81211106C02C81211103C01E
:101190002D81222301F141155105E9F08A01FC015D
:1011A000F08C80E591E00E944402AE014E5F5F4FFB
:1011B00024E030E06CE070E08F2D0E942608B8013A
:1011C0008F2D0E94370881E090E0DF91CF911F9131
:1011D0000F91FF90089580E0F7CFFC0184859585FD
:1011E0000895FC0184899589089527EC31E0FC017C
:1011F00031832083FB014089518962897389FC0115
:1012000042835383648375830895DC01ED91FC91DF
:10121000048CF58DE02D099490E080E008958EE037
:101220000E948404BC01990F880B990B0E940C3317
:1012300020E030E040EA50E40E946B3320E030ECE4
:101240004FE754E40E94C3342AE037ED43E25CE305
:101250000E94C334089590E080E00E946F0390E004
:1012600080E00C946F0390E080E00E946F0381E0C7
:1012700090E00C946F03FC019485992369F08081C0
:101280009181DC01ED91FC910688F789E02D0995AB
:1012900091E0811101C090E0892F0895DC011C9636
:1012A0001C921C978D919C91DC01ED91FC9104881E
:1012B000F589E02D0994FC01768765870895DC01A6
:1012C000ED91FC91068CF78DE02D099591E0892731
:1012D0000895862F089581E08627089521E0FC0176
:1012E0008485843008F020E0822F08950F931F93A7
:1012F000CF938C01C62F0E9438066C2F6460C80102
:101300000E9438066C2F6B7FC8010E94380683EC60
:1013100090E00197F1F7CF911F910F9108950F93EE
:101320001F93CF93DF938C01D62FC42F607F642B44
:101330000E94760980E1D89FB00111246C2BC8016E
:10134000DF91CF911F910F910C947609CF93DF938A
:10135000CDB7DEB728970FB6F894DEBF0FBECDBF6E
:1013600098E0EDE2F1E0DE01119601900D929A9580
:10137000E1F790914005961708F46FEF262F30E0C3
:10138000220F331F41E050E04C0F5D1F240F351F2B
:10139000F9016081680F606840E088E395E0289675
:1013A0000FB6F894DEBF0FBECDBFDF91CF910C9486
:1013B0008F0940E061E088E395E00E948F098BE3AC
:1013C0009FE10197F1F7089541E00E948F0981E0C4
:1013D00090E00895FB0101900020E9F73197AF01FB
:1013E000461B570BDC01ED91FC910280F381E02D4F
:1013F0000994CF93DF930E945403EC0169EC71E0F0
:1014000089E594E00E94EA098C0F9D1FDF91CF913E
:1014100008958F929F92AF92BF92EF92FF920F9397
:101420001F93CF93DF93CDB7DEB7A1970FB6F89494
:10143000DEBF0FBECDBF7C01FA01CB0119A2223065
:1014400008F42AE08E010F5D1F4F822E912CB12CE3
:10145000A12CBF01A50194010E949234F901CA0197
:101460006A300CF5605DD8016E938D01232B242B1F
:10147000252B79F790E080E0109721F0BD01C7019E
:101480000E94EA09A1960FB6F894DEBF0FBECDBF49
:10149000DF91CF911F910F91FF90EF90BF90AF9090
:1014A0009F908F900895695CDECFCF93DF93AC015E
:1014B00070E060E02AE089E594E00E94090AEC010E
:1014C00069EC71E089E594E00E94EA098C0F9D1FA8
:1014D000DF91CF910895462F50E070E060E02AE060
:1014E0000C94090A8F929F92AF92BF92CF92DF9293
:1014F000EF92FF920F931F93CF93DF937C018B01A9
:101500004C0182E0880E911C5701E5E0AE0EB11C43
:10151000D0E0C0E0F40161914F01C8010E946B0A64
:101520006C016EE2C8010E9460028C0D9D1DC80F07
:10153000D91F8A149B0471F7F7016581C8010E94C5
:101540006B0A8C0F9D1FDF91CF911F910F91FF9020
:10155000EF90DF90CF90BF90AF909F908F900895C5
:101560006BE589E594E00E9460020E94F104AB0102
:10157000BC012AE089E594E00E94090A82E691E034
:101580000C9454036115710511F00C94EA0990E074
:1015900080E00895FB01808191810E943330892B86
:1015A00091F081E090E00E946F0381E090E00E9462
:1015B0006F0361E087E00E94A6096CEC71E088E3AC
:1015C00095E00C94C20A81E090E00E946F0390E0E5
:1015D00080E00E946F0361E087E00E94A60966ED4B
:1015E00071E0EDCFFB01808191810E94333021E0D9
:1015F000009709F420E020933804892B61F00E94C1
:10160000330961E087E00E94A60960EE71E088E39B
:1016100095E00C94C20A0E942B0961E087E00E94C9
:10162000A6096AEE71E0F3CFFB01808191810E94EF
:10163000333021E0009709F420E020933904892B0E
:1016400071F061E085E00E94BD0360E087E00E94E8
:10165000A60964EF71E088E395E00C94C20A60E0AB
:1016600085E00E94BD0360E087E00E94A6096DEF5F
:1016700071E0F1CFFB01808191810E943330892B91
:1016800071F061E084E00E94BD0360E087E00E94A9
:10169000A60966E072E088E395E00C94C20A60E077
:1016A00084E00E94BD0360E087E00E94A60960E13B
:1016B00072E0F1CFAF92BF92CF92DF92EF92FF92A2
:1016C0000F931F93CF93DF9300D000D0CDB7DEB739
:1016D0008C016B017A01809158048333E9F45B013A
:1016E0006801C40ED51EC016D106A9F10E94430799
:1016F0008FE00E944E07812F0E944E07802F0E948C
:101700004E070F5F1F4F80E00E944E07F501819347
:101710005F010E943907E7CF843369F50E944307D0
:1017200019830A838F2D8F778B83EC8264E070E0BE
:10173000CE0101960E941F07A70170E060E0C6017C
:101740000E942A36E114F10421F0B701C6010E947B
:101750001F070E943907C7010F900F900F900F903D
:10176000DF91CF911F910F91FF90EF90DF90CF907D
:10177000BF90AF9008950E9443070F3F110509F0F5
:1017800030F419820A831B8263E070E0D1CF17FD29
:101790000BC019820A8333E0169507953A95E1F755
:1017A000007E08600B83F0CFC80126E096958795F0
:1017B0002A95E1F7807E19830A830115104C18F4ED
:1017C00080618B83E1CF8861FCCFCF93DF931F9241
:1017D000CDB7DEB72091C50330E0322F2227260F88
:1017E000371F90E0982F882741E050E0BE016F5FDF
:1017F0007F4F820F931F0E945A0B89810F90DF91B8
:10180000CF910895CF93C82F462F61E070E00E94DA
:10181000610861E070E08C2F0E94E50B8111F9CF27
:10182000CF910895CF93C82F80E591E00E944402A4
:1018300068E070E08C2FCF910C94020CCF93C82FEE
:1018400080E591E00E94440260E170E08C2FCF912E
:101850000C94020CCF93DF93EC01888D843020F43C
:101860000E941E0C84E0888FDF91CF910895CF9362
:10187000C82F80E591E00E94440263E070E08C2F65
:10188000CF910C94E50BCF93DF93EC018C858430E2
:10189000D0F40E94370C843189F0882379F08831A4
:1018A00069F021E08C3159F4E881F9810084F185F7
:1018B000E02DCE01099521E0892B09F420E0822F4B
:1018C000DF91CF91089580E0FBCFCF92DF92EF922E
:1018D000FF92CF93DF93EC018C85843068F40E94F3
:1018E000120C0E94F1046B017C018C850E94370C64
:1018F000811109C084E08C87DF91CF91FF90EF9038
:10190000DF90CF90089561E070E080E090E00E9469
:10191000BE040E94F104AB01BC014C195D096E09C3
:101920007F098D859E85B0E0A0E0481759076A07BA
:101930007B07D8F28C850E941E0CDCCFCF93FC0174
:10194000C08D80E591E00E94440260E270E08C2F3F
:101950000E94020C62E070E08C2F0E94E50B84FD77
:1019600016C062E070E08C2F0E94E50B83FF0AC076
:1019700048E162E070E08C2F0E94610880E090E016
:10198000CF91089580E591E00E944402E3CF40E1C9
:1019900062E070E08C2F0E94610881E0F0CFCF936D
:1019A000DF931F92CDB7DEB741E050E0BE016F5F1D
:1019B0007F4F90E080E00E945A0B89810F90DF9169
:1019C000CF910895CF93DF93C4E1D0E00E94CF0C74
:1019D000882361F061E070E080E090E00E94BE0446
:1019E0002197A1F780E0DF91CF91089581E0FBCFAF
:1019F0001F93CF93DF931F92CDB7DEB7182F80E5EB
:101A000091E00E944402812F0E94180827E0129F53
:101A1000F0011124E45CFB4F22813381377041E0F7
:101A200050E0BE016F5F7F4F820F931F0E945A0BE1
:101A300089810F90DF91CF911F910895FC01808DD6
:101A4000843040F4218D328D232B21F00E94F80C3C
:101A500090E008958FEF9FEF0895CF93DF93FC01FF
:101A60002485243028F08FEF9FEFDF91CF910895E8
:101A7000EC010190F081E02D0084F185E02D0995C5
:101A8000892B89F38C850E94F80C90E0EECFDA0167
:101A9000E091C503F0E0FE2FEE27E60FF71F90E080
:101AA000982F8827A901BD018E0F9F1F0C945A0BF8
:101AB0008F929F92AF92BF92CF92DF92EF92FF925E
:101AC0001F93CF93DF93CDB7DEB72C970FB6F89463
:101AD000DEBF0FBECDBF2091580414E0222339F1A0
:101AE0006B017C0180E591E00E9444025E0127E0E9
:101AF000A20EB11C450110E063E070E0812F0E944E
:101B0000E50BF40181934F01882349F11F5F1430E5
:101B100099F710E0F50181915F018D31D9F088319D
:101B2000C9F08A518230B0F01F5F143099F7812FCD
:101B30002C960FB6F894DEBF0FBECDBFDF91CF91CC
:101B40001F91FF90EF90DF90CF90BF90AF909F904C
:101B50008F90089560E170E0812F0E94020CA12E09
:101B6000B12C83EE93E00197F1F742E870E060E07A
:101B7000812F0E9461084FEF62E070E0812F0E9488
:101B80006108B601C114D10491F4809121019091B2
:101B9000220101968115F0EC9F0708F45CC0909338
:101BA0002201809321016091210170912201812FF6
:101BB0000E944C0886E0E5E3F1E0DE011196019019
:101BC0000D928A95E1F7F70183818F778C83848169
:101BD0008D8385818E83A7014E5F5F4F24E030E0C7
:101BE0006CE070E0812F0E942608B601812F0E94D0
:101BF000370826E030E0AE014F5F5F4F66E070E0EF
:101C0000812F0E94260861E070E0812F0E94020C63
:101C100027E02A9DC0012B9D900D11249C01245C7E
:101C20003B4F7901F9011182108222E030E0AE01D0
:101C3000455F5F4F68E270E0812F0E94470D8B8502
:101C40009C85982789279827F7019383828316829A
:101C5000158214826CCF80E090ECA1CFCF92DF92FE
:101C6000EF92FF920F931F93CF93DF9300D000D09A
:101C700000D0CDB7DEB78C016B017A01FC01808DFD
:101C8000843010F40E941E0C87EC91E09A838983C3
:101C9000F60182819381A481B5818B839C83AD837E
:101CA000BE83B701CE0101960E94580DF801808FC6
:101CB0008430A0F4F586E486128E118E81E026969B
:101CC0000FB6F894DEBF0FBECDBFDF91CF911F914D
:101CD0000F91FF90EF90DF90CF90089580E0EFCFCD
:101CE000AF92BF92CF92DF92EF92FF920F931F932A
:101CF000CF93DF9300D000D000D0CDB7DEB7082F50
:101D00006B0180E591E00E9444029E012F5F3F4FEE
:101D10007901590110E063E070E0812F0E94E50B2A
:101D2000F50181935F01882341F11F5F143099F71A
:101D300010E0F70181917F018D31D1F08831C1F040
:101D40008A518230A8F01F5F143099F7812F2696B0
:101D50000FB6F894DEBF0FBECDBFDF91CF911F91BC
:101D60000F91FF90EF90DF90CF90BF90AF900895CC
:101D700060E170E0812F0E94020CE12EF12C83EED5
:101D800093E00197F1F7402F70E060E0812F0E940F
:101D900061084FEF62E070E0812F0E946108B60198
:101DA000CD2889F48091210190912201019681151D
:101DB000F0EC9F0798F190932201809321016091AC
:101DC000210170912201812F0E944C0861E070E096
:101DD000812F0E94020C27E02E9DC0012F9D900DA7
:101DE00011249C01245C3B4F7901F901118210827E
:101DF00022E030E0AE014B5F5F4F68E270E0812F80
:101E00000E94470D8D819E81982789279827F70189
:101E10009383828316821582148298CF80E090EC9F
:101E2000CACFCF92DF92EF92FF921F93CF93DF93AF
:101E3000EC017B016A018C85843048F40E94370CE8
:101E4000882319F08C850E94120C84E08C87F7019E
:101E500082819381A481B5810097A105B10551F4D8
:101E600090E080E0DF91CF911F91FF90EF90DF90A5
:101E7000CF9008958F3F9F4FAF4FBF4F89F3809111
:101E80005804811103C084E08C87EACF70E060E0E1
:101E900081E20E94700E182F8C87843008F780E54D
:101EA00091E00E944402A7014E5F5F4F24E030E0C2
:101EB0006CE070E0812F0E942608B601812F0E94FD
:101EC000370864E070E0812F0E94020C0E94F10448
:101ED0006B017C018C850E94370C873109F18C31B4
:101EE000F9F0882309F4BCCF0E94F104AB01BC01D6
:101EF0004C195D096E097F098D859E85B0E0A0E0D3
:101F000084179507A607B70738F061E070E080E016
:101F100090E00E94BE04DECF8C850E941E0CB3CFE1
:101F200081E090E09FCF0F931F93CF93DF93EC015D
:101F30008B01888D843010F40E941E0C809158040F
:101F4000811107C094E0988FDF91CF911F910F917D
:101F50000895B80182E00E94700E888F843030F4BA
:101F60001D870C871A8E198E81E0EECF80E0ECCFB2
:101F70007F928F929F92AF92BF92CF92DF92EF9219
:101F8000FF920F931F93CF93DF9300D0CDB7DEB7AF
:101F9000782E8B014A01590122E030E0AE014F5FFB
:101FA0005F4F64E270E00E94470DE980FA80FE24F2
:101FB000EF24FE24E00EF11E970137704091580483
:101FC000072D10E0433309F042C0085F1F4F102F68
:101FD0000027110F110F110FC901800F911F4733F7
:101FE000C9F1A9014A0D5B1D4130584098F160E0EC
:101FF00078E06B01C21AD30AA601B4010E9455070A
:10200000A5014C195D09B4016C0D7D1DC8010E942C
:102010005507EA0CFB1CF982EA8222E030E0AE01AF
:102020004F5F5F4F64E270E0872D0E9426080F909B
:102030000F90DF91CF911F910F91FF90EF90DF9064
:10204000CF90BF90AF909F908F907F900895005F4A
:102050001F4FBDCFA501B401DACFEF92FF921F93BE
:10206000CF93DF9300D0CDB7DEB7182F22E030E05A
:10207000AE014F5F5F4F60E270E00E94470DE98064
:10208000FA80FE24EF24FE2422E030E0AE014F5F10
:102090005F4F60E270E0812F0E94470D89819A8135
:1020A000982789279827E816F90689F487E0189F6A
:1020B000F0011124E45CFB4FF582E482C7010F902C
:1020C0000F90DF91CF911F91FF90EF9008957C01C9
:1020D000DBCF1F93CF93DF93182F80E591E00E9411
:1020E0004402812F0E942D10EC0163E070E0812FEB
:1020F0000E94E50B873121F08C3111F0D0E0C0E077
:10210000CE01DF91CF911F910895CF93DF93EC0122
:102110008C85843060F40E94370C873111F08C314B
:1021200031F48C850E9469108115984088F3DF9105
:10213000CF910895FC018485843010F40C946910CB
:1021400090E080E008959F92AF92BF92CF92DF928D
:10215000EF92FF920F931F93CF93DF938C015B015C
:10216000942EE52EFC01C688D788F08C80E591E09E
:102170000E9444028F2D0E942D10C92DDE2D8C1738
:102180009D0708F4EC019E01A501B6018F2D0E9468
:10219000B80FF801868997898C0F9D1F978B868BC6
:1021A000CE01DF91CF911F910F91FF90EF90DF90C3
:1021B000CF90BF90AF909F9008958F929F92AF92D3
:1021C000BF92CF92DF92EF92FF920F931F93CF9324
:1021D0006C015B018A01FC01C485C430F0F57A0111
:1021E0004130584018F0E12C88E0F82E80E591E06D
:1021F0000E9444028C2F0E942D104C0163E070E07D
:102200008C2F0E94E50B873111F08C3149F58E142B
:102210009F0460F380E591E00E9444029701A501CC
:1022200070E060E08C2F0E94B80F60E270E08C2FAD
:102230000E94020C62E070E08C2F0E94E50B84FD8E
:1022400017C063E070E08C2F0E94E50B81110BC07A
:1022500081E090E0F6019383828310E000E010C0FB
:10226000F12CE12CD7CF80E591E00E944402E2CF2F
:1022700040E162E070E08C2F0E946108EF2841F39A
:10228000C801CF911F910F91FF90EF90DF90CF90F9
:10229000BF90AF909F908F900895FF920F931F93E0
:1022A000CF93DF9300D0CDB7DEB7F82E22E030E039
:1022B000AE014F5F5F4F66E270E00E94470D0981FB
:1022C0001A8110270127102722E030E0AE014F5F6E
:1022D0005F4F66E270E08F2D0E94470D89819A81E1
:1022E0009827892798270817190749F4C8010F90DC
:1022F0000F90DF91CF911F910F91FF9008958C0166
:10230000E3CF1F93CF93DF93182F87E0189FE0014F
:102310001124C45CDB4F88819981009761F480E5CA
:1023200091E00E944402812F0E944D112E81821B58
:10233000910999838883DF91CF911F910895FC01C2
:102340008485843010F40C94811190E080E008952D
:102350004F925F927F928F929F92AF92BF92CF9255
:10236000DF92EF92FF920F931F93CF93DF9300D0F2
:10237000CDB7DEB7782E6B014A01A82EB12C27E02D
:10238000829FC0011124FC01E45CFB4F7F010081AE
:10239000118180E591E00E9444020815190554F46A
:1023A000872D0E944D11F70126818C01021B110916
:1023B000118300830115110529F563E070E0872D75
:1023C0000E94E50B843159F0882349F001E010E0C8
:1023D0008C3111F410E000E0119501951109C8014C
:1023E0000F900F90DF91CF911F910F91FF90EF9081
:1023F000DF90CF90BF90AF909F908F907F905F9035
:102400004F900895801691060CF4840187E08A9D10
:10241000F0018B9DF00D1124E45CFB4FE280F38012
:10242000C114D10451F12701F7E05F22872D0E94EA
:102430001808840D951D20915804273309F453C0C2
:102440009801240D351D2130384008F44CC020E09F
:1024500038E0490184189508A401B6010E945A0B7E
:102460002601480C591C6801C818D908872D0E94FC
:102470001808A601B2010E945A0BE00EF11E87E077
:102480008A9DF0018B9DF00D1124E45CFB4FF382DB
:10249000E28220813181201B310B318320838681B0
:1024A000800F912F911D8A3F910510F4232BF1F499
:1024B00087E08A9DF0018B9DF00D1124E45CFB4FB9
:1024C0001682F982EA8222E030E0AE014F5F5F4F70
:1024D00068E270E0872D0E94260860E470E0872D96
:1024E0000E94020C7CCFA801B601C5CF868377CFAE
:1024F000CF93DF93FC01218D328D2115310529F415
:102500008FEF9FEFDF91CF910895EC01808D4217FF
:10251000530708F0A9010E94A8111816190684F79C
:10252000298D3A8D281B390B3A8F298FEBCF0F93CA
:102530001F93CF93DF931F92CDB7DEB7FC01218DA0
:10254000328D232B41F48FEF9FEF0F90DF91CF91CE
:102550001F910F9108958C0141E050E0BE016F5F23
:102560007F4FFC01808D0E94A811181619065CF798
:10257000F801818D928D0197928F818F898190E0F2
:10258000E4CFCF93DF931F92CDB7DEB741E050E0A9
:10259000BE016F5F7F4FFC0184850E94A811181651
:1025A000190634F4898190E00F90DF91CF9108955E
:1025B0008FEF9FEFF9CFFC018485843010F40C94E9
:1025C000A81190E080E008950F931F93CF93DF93BD
:1025D00000D0CDB7DEB7FC0124852430E0F48C01B7
:1025E00080E591E00E94440222E030E0AE014F5FBE
:1025F0005F4F60E170E0F80184850E94470D89819A
:102600009A819827892798270F900F90DF91CF9173
:102610001F910F91089590E080E0F6CF0F931F93E4
:10262000CF93DF9300D0CDB7DEB7FC0124852430F3
:10263000E0F48C0180E591E00E94440222E030E069
:10264000AE014F5F5F4F64E070E0F80184850E9447
:10265000470D89819A819827892798270F900F9095
:10266000DF91CF911F910F91089590E080E0F6CF18
:10267000DC0187EC91E08D939D9384E0FB01019058
:102680000D928A95E1F70895EF92FF920F931F93B1
:10269000CF93DF9300D000D0CDB7DEB78C017B01A4
:1026A000FB0184858430A8F087EC91E0F8019183E8
:1026B00080831282138214821582C8010F900F90BA
:1026C0000F900F90DF91CF911F910F91FF90EF909E
:1026D000089580E591E00E94440224E030E0AE01DC
:1026E0004F5F5F4F6CE070E0F70184850E94470DFB
:1026F000BE016F5F7F4FC8010E943813DECF0F937A
:102700001F93CF93DF93CDB7DEB728970FB6F8941A
:10271000DEBF0FBECDBF8C01D80159964D915C91A3
:102720005A974115510551F0ED91FC91048CF58DAE
:10273000E02D70E060E0C8010995EECFF801808DD2
:102740000E948111892BB1F148E050E0BE016F5F1A
:102750007F4FD80158968C910E94A811181619061F
:10276000F4F4D801509684E0FE01319601900D9268
:102770008A95E1F78D8190E0982F88272E81820F2E
:10278000911DF801958B848B8F81282F30E0322F9B
:1027900022278885820F932F911D928F818F2896F3
:1027A0000FB6F894DEBF0FBECDBFDF91CF911F9162
:1027B0000F91089590E080E0F2CF4F925F926F9278
:1027C0007F928F929F92AF92BF92CF92DF92EF92C1
:1027D000FF920F931F93CF93DF93CDB7DEB763972D
:1027E0000FB6F894DEBF0FBECDBF7C016B013A017E
:1027F000FB0120E090E080E06AE03191332309F4AE
:1028000061C040ED430F4A3008F04DC0689FA00101
:10281000699F500D1124CA01C097830F911D37FD88
:102820009A958F3F910549F340F3F7014281538117
:102830006481758180912E0590912F05A0913005BE
:10284000B0913105481759076A077B0709F40DC293
:102850008701085F1F4F0E94F1046F7077277C5F2C
:10286000C8010E94930F813009F004C287EC91E007
:102870009A838983F70182819381A481B5818B83B7
:102880009C83AD83BE8345E350E0BE016F5F7F4F05
:10289000C8010E94B608892BA9F5D12CC12CC8010A
:1028A0000E942A0C17C03E3209F0BFCF233009F432
:1028B000BCCFD301A20FB11D12968C932F5F90E075
:1028C00080E09BCF233009F0B0CFF3018583CC2487
:1028D000C394D12CC60163960FB6F894DEBF0FBE29
:1028E000CDBFDF91CF911F910F91FF90EF90DF90BF
:1028F000CF90BF90AF909F908F907F906F905F90A0
:102900004F9008950E94F104F7017783668342E0B7
:1029100050E0B7016A5F7F4FC8010E94A31081E0B9
:1029200090E09A83898342E050E0BE016F5F7F4F61
:10293000C8010E94A31080E091E09A83898342E05D
:1029400050E0BE016F5F7F4FC8010E94A3101A8242
:10295000198242E050E0BE016F5F7F4FC8010E94C4
:10296000A31042E050E0BE016F5F7F4FC8010E949C
:10297000A31042E050E0BE016F5F7F4FC8010E948C
:10298000A3105601F6018081882301F16501F6014B
:1029900081912F01882311F08E32B1F446018A18FB
:1029A0009B081814190474F48D8641E050E0BE01B0
:1029B000635F7F4FC8010E94A310A401B501C80145
:1029C0000E94A3105201DECF6201E1CF1D8641E0DB
:1029D00050E0BE01635F7F4FC8010E94A310C12C6D
:1029E000DD24D394DA82C98242E050E0BE016F5FF9
:1029F0007F4FC8010E94A310DA82C98242E050E0F2
:102A0000BE016F5F7F4FC8010E94A310C8010E94E2
:102A10009E0C892B09F441CFF3E0AF2EB12C23019A
:102A200022E0420E511CD4C0F701428153816481DF
:102A30007581808D918DA28DB38D481759076A07D6
:102A40007B0709F008C1848D958DC59709F003C1F6
:102A500081A192A15DEFC52EDD24DA940C970CF4D0
:102A6000ADC04CE050E0BE016F5F7F4FC8010E94D7
:102A700078128B819C819827892798279A8B898B3C
:102A8000F7014681578129813A814217530709F09E
:102A9000E7C097FFE5C08F7092703BEFC32EDD2437
:102AA000DA94892B09F08AC06F80788476246724B1
:102AB00076242AEFC22EDD24DA946114710409F41D
:102AC0007DC0D12CC12C8D819E8198278927982784
:102AD000C816D906F8F441E050E0BE01635F7F4FAD
:102AE000C8010E9478124D85442331F050E070E017
:102AF00060E0C8010E9478128D858111ECCF44E01E
:102B000050E070E060E0C8010E947812FFEFCF1A39
:102B1000DF0AD9CF912C812C41E050E0BE016D5EDF
:102B20007F4FC8010E9478124B89842F807C09F066
:102B30006CC0442331F050E070E060E0C8010E94B6
:102B400078128B898111E8CF42E050E0BE01615FCD
:102B50007F4FC8010E94781242E050E0BE01635FDF
:102B60007F4FC8010E94781244E050E070E060E0BE
:102B7000C8010E94781242E050E0BE016F5E7F4FB4
:102B8000C8010E9478128F85988949895A898115D0
:102B9000914009F043C0CD84DE84DC24CD24DC24C4
:102BA00081E0C816D104D1F54115544009F04AC05E
:102BB00044E050E0B201C8010E94781221E0A21A5C
:102BC000B10809F46CCEFFEFCF16DF0609F067CE2F
:102BD0000E94F1043B014C01C8010E947F131816AA
:102BE00019060CF421CF0E94F104661977098809AF
:102BF0009909693873418105910548F562E370E0F0
:102C000080E090E00E94BE04E7CF41E050E070E039
:102C100060E0C8010E9478121B8A93CF5427452791
:102C2000542770E060E0C8010E947812FFEF8F1A0D
:102C30009F0A6814790409F06FCF96EFC92EDD243E
:102C4000DA94BCCFE7EFCE2EDD24DA94B7CFCC24D4
:102C5000CA94DC2CB3CF6EEFC62EDD24DA94AECF4F
:102C60004CEFC42EDD24DA94A9CF8EEFC82EDD24DC
:102C7000DA9430CED12CC12C2DCECF92DF92EF92B0
:102C8000FF920F931F93CF93DF93CDB7DEB7AF972C
:102C90000FB6F894DEBF0FBECDBF7C016A0107EC12
:102CA00011E01A8309831C861B8688EE93E0A0E05E
:102CB000B0E08D879E87AF87B88B8FE391E09A87CE
:102CC0008987188F0F8B198E1A8E1B8E1C8E84E0AD
:102CD00089A31BA70AA71CA61DA61EA61FA6809136
:102CE000220590912305A0912405B09125058EA37E
:102CF0009FA3A8A7B9A78B839C83AD83BE831886A7
:102D00001F82AE01465D5F4FCE0101960E94DD132A
:102D100081309105B1F4D701ED91FC910488F589DA
:102D2000E02D1DA30CA38CA59DA5AEA5BFA58EA3CC
:102D30009FA3A8A7B9A7A601BE016C5D7F4FC701DD
:102D40000995AF960FB6F894DEBF0FBECDBFDF91E9
:102D5000CF911F910F91FF90EF90DF90CF9008954A
:102D6000CF92DF92EF92FF920F931F93CF93DF9357
:102D7000CDB7DEB7AF970FB6F894DEBF0FBECDBFAD
:102D80008C016B017A0187EC91E09A8389831B8225
:102D90001C821D821E821C861B8648EE53E060E06A
:102DA00070E04D875E876F87788B2FE331E03A873D
:102DB0002987988F8F8B198E1A8E1B8E1C8E24E07C
:102DC00029A39BA78AA71CA61DA61EA61FA6D801DD
:102DD0001C968C91843060F40E94370C882321F07B
:102DE000F80184850E94120C84E0D8011C968C9313
:102DF0008091220590912305A0912405B09125058D
:102E00008EA39FA3A8A7B9A78B839C83AD83BE8302
:102E100018861F82AE01465D5F4FB601CE01019656
:102E20000E94DD130097C1F0D801ED91FC9106845A
:102E3000F785E02D87EC91E09DA38CA38CA59DA543
:102E4000AEA5BFA58EA39FA3A8A7B9A7A701BE0142
:102E50006C5D7F4FC8010995AF960FB6F894DEBF41
:102E60000FBECDBFDF91CF911F910F91FF90EF90DB
:102E7000DF90CF9008957F928F929F92AF92BF92F2
:102E8000CF92DF92EF92FF920F931F93CF93DF9336
:102E9000CDB7DEB7A6970FB6F894DEBF0FBECDBF95
:102EA0008C01762E942E852E20E2A22ECE01019644
:102EB0007C01DC01EA2D1D92EA95E9F76801F3E453
:102EC000CF0ED11C87EC91E09AA389A38FEF8BA33F
:102ED0008CA38DA38EA343E450E0BE016F5D7F4FB2
:102EE000C6010E94B608019609F4BFC081E089833B
:102EF0008A8386E0B82EBB821C82D80114966D911D
:102F00007D918D919C9117970E944A356D837E83A8
:102F10008F83988789869A8680E890E09C878B8744
:102F20004CE150E0B701C6010E94A310FE013796A4
:102F30008AE1DF011D928A95E9F74801B8E08B0E1E
:102F4000911CF401D70101900D92BA94E1F740E190
:102F500050E0B701C6010E94A310F7011192AA9494
:102F6000E9F796E0A92EB12C40E250E0B701C60186
:102F70000E94A310F1E0AF1AB108B1F783E689838C
:102F800092E89A8393E59B838C8385E38D8381E02C
:102F90008E837F829DE3988797E099878A8786E072
:102FA000F401DE011B9601900D928A95E1F78CE009
:102FB000898B8A8B6AE172E0CE0143960E943A3691
:102FC000D8011B966C91CE0149960E944702F801E8
:102FD0006485CE014B960E944702D8011D966C91E4
:102FE000CE014D960E9447024EE150E0B701C60166
:102FF0000E94A310B3E07B121EC082E3898384E0A9
:103000008A83F80196859B8397859C8390899D830D
:1030100091899E8396E39F838887828D8987838D9C
:103020008A87848D8B87858D8C874CE050E0B70133
:10303000C6010E94A31087E3898386E08A8391E01A
:103040009B8393E09C838D838FE08E838AE38F83C1
:103050008BE388878FEF898749E050E0B701C6018D
:103060000E94A310C6010E949E0CA6960FB6F8946B
:10307000DEBF0FBECDBFDF91CF911F910F91FF90AB
:10308000EF90DF90CF90BF90AF909F908F907F9008
:1030900008950F931F93CF93DF93EC01FB010190F1
:1030A0000020E9F78F01061B170B8A819B81A8017D
:1030B000480F591F2C813D812417350768F028815E
:1030C0003981A801820F931F0E9421364A815B81BA
:1030D000400F511F5B834A83DF91CF911F910F9166
:1030E00008950F931F93CF93DF93EC01888199810B
:1030F000009759F02A813B812617370730F081E08D
:10310000DF91CF911F910F9108958B016F5F7F4FDA
:103110000E945735009759F0998388831B830A834F
:103120002C813D81232B59F7FC011082E8CF80E0F0
:10313000E7CF85ED8093BC0080919203909193033B
:10314000A0919403B09195030796A11DB11D23E0B2
:10315000B695A795979587952A95D1F72091BC00AC
:1031600024FD03C010929003089540919203509162
:1031700093036091940370919503452B462B472B45
:1031800069F30097A105B10541F025E32A95F1F710
:1031900000000197A109B109E1CF809191030C943E
:1031A00092053F924F925F926F927F928F929F9281
:1031B000AF92BF92CF92DF92EF92FF920F931F9345
:1031C000CF93DF93CDB7DEB7EA970FB6F894DEBFA3
:1031D0000FBECDBF7C012A013B0169010E94F104B1
:1031E0004B015C0187010D5B1F4FC8010E947F13DB
:1031F000181619069CF00E94F104681979098A09C9
:103200009B09461657066806790608F466C162E30C
:1032100070E080E090E00E94BE04E7CF42E250E020
:10322000BE016F5F7F4FC8010E9478128981823092
:10323000D1F0312C832DEA960FB6F894DEBF0FBE85
:10324000CDBFDF91CF911F910F91FF90EF90DF9055
:10325000CF90BF90AF909F908F907F906F905F9036
:103260004F903F900895F8018489958983349105A2
:1032700001F76D817E818F8198850E944A354B01CF
:103280005C01F60180829182A282B38246E050E026
:10329000B701685F7F4FCE014D960E941436892B8F
:1032A00041F6F70180819181A281B3818816990648
:1032B000AA06BB0608F4BDCF84819581A681B7819B
:1032C00088159905AA05BB0508F4B3CF89899A89A1
:1032D000AB89BC8986879787A08BB18B4EEC50E079
:1032E00070E060E0C8010E947812312CC70182961C
:1032F00098AB8FA7F701B696FAABE9AB08969CABF3
:103300008BAB67019AE1C90ED11CBD96FEABEDAB4C
:10331000C701429698AF8FABFD97FAAFE9AF47016F
:10332000FEE18F0E911CF801818D928D1816190601
:103330000CF080CFC8010E9497128333910509F4E5
:10334000B2C014F58130910509F464C044F4892BAE
:1033500051F3C8010E949712AC01552775C0833004
:10336000910509F462C00697A1F7C8010E9497125F
:10337000B82E44E050E0B401C8010E947812EB2D51
:10338000E450FF0BAF0160C08A33910509F45FC0C0
:1033900084F585339105B1F1C697D9F6C8010E942D
:1033A00097125C01B601CE0189960E9438138BA555
:1033B0009CA5ADA5BEA5892B8A2B8B2BB1F0EDA9C1
:1033C000FEA94080518062807380B601CE01839651
:1033D0000E9438138DA19EA1AFA1B8A5A5014816E2
:1033E00059066A067B0609F0B8CF44E050E0B60102
:1033F00018C08B33910509F440C08F3F910509F443
:1034000092CFA7CFC8010E949712C8010E949712BD
:10341000382E89CFC8010E94971244E050E06FA96E
:1034200078ADC8010E9478127ECFC8010E94971221
:10343000B82E44E050E069AD7AADC8010E94781220
:103440008B2D8450990BAC0170E060E0EACFC8018D
:103450000E94971244E050E069A97AA9C8010E942D
:103460007812F70166A177A180A591A50E944A353F
:1034700066A377A380A791A756CFC8010E94971291
:1034800044E050E06BA97CA9C8010E947812F701C2
:1034900062A573A584A595A50E944A3562A773A766
:1034A00084A795A740CFC8010E94971244E050E03E
:1034B0006FA578A9C8010E947812F70162A173A1D3
:1034C00084A195A10E944A3562A373A384A395A306
:1034D00066A777A780AB91AB26CF33243A94AACEC8
:1034E0000F931F93CF93DF93CDB7DEB762970FB6DD
:1034F000F894DEBF0FBECDBF8C01CB014AE0BE0108
:103500006F5F7F4F0E948130BE016F5F7F4FC801A8
:103510000E94491862960FB6F894DEBF0FBECDBF69
:10352000DF91CF911F910F9108953F924F925F923B
:103530006F927F928F929F92AF92BF92CF92DF92C3
:10354000EF92FF920F931F93CF93DF93CDB7DEB728
:10355000A1970FB6F894DEBF0FBECDBF5C010DB7CB
:103560001EB719A308A360E070E0CB010E94BE045F
:10357000D50157968D919C915897912C029709F4FB
:10358000BFC356968C9156978F5F56968C935697DD
:1035900054962D913C91232B19F099249394A9C30F
:1035A0008330D8F7F501808191810E943B098823FF
:1035B00009F47FC38E010F5F1F4F3801D501ED91D4
:1035C000FC9180819181DC01ED91FC910084F18579
:1035D000E02D0995181619060CF06BC3D501ED9175
:1035E000FC9145E050E0BE01695E7F4F8081918192
:1035F0000E94FD04009711F3059709F074C0888DAF
:10360000998D982789279827998F888FEA8CFB8C2A
:10361000FE24EF24FE24FB8EEA8E892B09F463C07E
:103620008F89811173C00E94F104F501668377834D
:10363000808791872789308D8A8D9B8D232B09F078
:1036400061C0288D398D2130310509F05BC089308A
:103650009105E1F1883C910519F0049709F047C004
:103660000E94B00A8FEC92E00E945403D501169696
:103670004D915D916D917C9119971E968D919D91C3
:103680000D90BC91A02D481B590B6A0B7B0B2AE0B7
:1036900089E594E00E94090A8AEC92E00E94F90907
:1036A000F50186819781A085B18586879787A08B54
:1036B000B18B01E010E0108F078BC5010E949724A9
:1036C00060E070E0CB010E94BE0478CF0E94B00A97
:1036D0008BEF93E00E94F90983E090E0D5015896C2
:1036E0009C938E935797D5018D919C91FFC20E9418
:1036F000B00A84EE93E00E9454038A8D9B8D0E9451
:10370000550AF1CF059709F059CFEDCFB1E0EB168F
:10371000FB0690F00E94B00A83ED93E00E945403F0
:103720008A8D9B8D0E94550AF501108E178A808123
:1037300091810E944E0942CF8DB69EB6C701019677
:103740000DB71EB7081B190B0FB6F8941EBF0FBE9E
:103750000DBF0F5F1F4FD501ED91FC91A701B8017F
:10376000808191810E94FD048E159F0509F07BC028
:10377000EA8DFB8DE00FF11F10820E94F104F5012C
:1037800066837783808791878F89813109F47CC232
:10379000A0F58630F1F08F3009F4D7C0823099F56A
:1037A000D50157968D919C91892B99F40E94B00A6E
:1037B0008DEC93E00E94F90901E010E0F501108F13
:1037C000078BC5010E94972460E070E0CB010E9446
:1037D000BE04488D598DD12CC12CF12CE12C08EC64
:1037E00010E030E020E060E0C5010E94E81F0FB665
:1037F000F8949EBE0FBE8DBEE1CE8D3189F258F495
:10380000843109F4A2C0F501108E178A808191815C
:103810000E944E09ECCF893281F08733A1F78A8D5F
:103820009B8D892B21F30E94B00A84EB93E00E94C8
:103830005403C8010E946224DACF84819581892BC8
:1038400039F480E490E00E946A2EF5019583848328
:10385000EA8CFB8CE00EF11E1A830983FC82EB825A
:103860000E151F0530F00FB6F8949EBE0FBE8DBE2C
:103870003ACF40E450E0B801D50114968D919C9167
:103880000E944136D5011496ED91FC9117AEC3010B
:103890000E947524FC018081918100E510E08E1565
:1038A0009F0570F489819A81009709F44AC02B81A1
:1038B0003C818217930708F044C00E9451308B016D
:1038C0000E94B00A8DEB93E00E945403D501149638
:1038D0006D917C9189E594E00E94C20A6AE389E5D2
:1038E00094E00E946002C8010E94550AF50180819F
:1038F00091810E944E09D501ED91FC91119714968A
:103900008D919C9115979187808713870287589690
:103910001C921E9257970E94F104DC01CB0188583B
:103920009341A109B109F50182879387A487B587DF
:1039300086839783A087B18786879787A08BB18B73
:1039400056CF60E070E0CB01BACF888D998DD5015C
:1039500055969C938E9354974A8C5B8C6801C40C4B
:10396000D51C1D8F0C8FDF8ECE8E0C151D0508F01B
:1039700013C1F801E080F180CE014C960E947524BD
:10398000DC018D919C918C159D0508F005C18C8DF5
:103990009D8DFC012081213459F401960E94333021
:1039A0004EE0342E380E069744F033243A9405C086
:1039B000CE014C960E948824382EF6E7EF16F2E7E7
:1039C000FF0609F406C138F531E6E31632E7F306DF
:1039D00009F4E6C044E6E41642E7F40609F478C0C8
:1039E00050E7E5165DE6F50609F037C18C8D9D8D33
:1039F0008C159D0508F0D0C0FC0120812134A9F56B
:103A000001960E9433303EE0F32EF80E069794F1B3
:103A1000FF24FA942FC084E6E81687E7F80609F435
:103A2000A2C096E7E91697E7F90609F4E9C0A1E60E
:103A3000EA16A7E7FA0609F010C1CE014C960E94DB
:103A40007524DC018D919C918C159D0508F0A4C016
:103A500061E0832D0E94EB03CE014C960E948824E6
:103A6000BC01832D0E94270497C0CE014C960E9472
:103A70008824F82ECE014C960E9475240C8D1D8D45
:103A800061E272E0C8010E94313660E0892B79F072
:103A900064E272E0C8010E943136892B39F068E295
:103AA00072E0C8010E943136892B49F461E08F2D04
:103AB0000E94EB03CE014C960E94752497CF6CE2D6
:103AC00072E0C8010E943136892BA1F762E0EFCF86
:103AD0007A8A698A1C8A1B8A00E110E01E8B0D8B92
:103AE0006FE272E0CE0141960E944918032D10E06A
:103AF000B801CE0141960E94701AF801E15FFC4FB7
:103B00008491F801E550FD4FF49009511D4FF801E3
:103B1000049160E070E0002389F081110E94940319
:103B2000E02FF0E0EE0FFF1FE352FD4FA591B4919F
:103B3000EC91FE2261E070E009F460E0CE01419674
:103B40000E94701A0B891C890150110929893A8930
:103B5000D12CC12CF12CE12C50E040E064E1C501F6
:103B60000E94E81F19C0CE014C960E947524DC010A
:103B70008D919C918C159D0578F461E0832D0E94B8
:103B8000EB03CE014C960E94882461E0892B09F456
:103B900060E0832D0E94BD03F501158A148A27CEAB
:103BA0007A8A698A1C8A1B8AE0E1F0E0FE8BED8B41
:103BB00062E372E0CE0141960E944918632D70E0E5
:103BC000CE0141960E94701A832D0E948404BC018C
:103BD000B5CF3982BFE1B315F8F2E32DF0E0EE0F77
:103BE000FF1FED5DFC4F2591349121153105A1F2A8
:103BF000E2E023343E0781F2C301F9010995CCCFFD
:103C0000CE014C960E9475248C8D9D8D9C01201BAD
:103C1000310B421A530A9A8389835C824B825E82FB
:103C20004D82398AFFE1F31508F4B6CFE32DF0E0B9
:103C3000EE0FFF1FED59FC4F2591349121153105F1
:103C400009F4AACF02E02234300709F4A5CFB3016A
:103C5000CE014196F90109959FCF0E94B00A83EAEF
:103C600093E00E945403C8010E946224D501549637
:103C70004D915C91D12CC12CF12CE12C02E010E093
:103C800030E020E060E06BCF8A8D9B8D800F911F2C
:103C90001A8309839C838B830817190708F0A7CD23
:103CA000C3010E947524D50155961C921E9254970B
:103CB0009ECD0E94F1042B013C01F5018081918190
:103CC0000E943B09D50157962D913C915897213080
:103CD000310509F094C0F501811132C0468657863E
:103CE000608A718A108E178A808191810E944E09A4
:103CF000912CD50156968C915697815056968C935F
:103D0000892DE8A1F9A10FB6F894FEBF0FBEEDBF53
:103D1000A1960FB6F894DEBF0FBECDBFDF91CF9155
:103D20001F910F91FF90EF90DF90CF90BF90AF90D9
:103D30009F908F907F906F905F904F903F900895ED
:103D400086819781A085B18593018201081B190B9B
:103D50002A0B3B0BD901C801893116EF9107A10548
:103D6000B10560F00E94B00A8CE194E00E94F9096C
:103D7000D50158961C921E925797B6CC893C9F4A03
:103D8000A105B10598F4F50182859385A485B585D3
:103D900093018201081B190B2A0B3B0BD901C801A7
:103DA000893C9F4AA105B10508F4F7CBF50186854A
:103DB0009785A089B18993018201081B190B2A0BF1
:103DC0003B0BD901C80181379741A105B10508F422
:103DD000E4CBD12CC12CF12CE12C10E000E030E040
:103DE00020E050E040E066E0C5010E94E81FD501F8
:103DF0001E964D925D926D927C925197CECB232B65
:103E000009F0CBCBF501468557856089718993010F
:103E10008201041B150B260B370BB901A80188235F
:103E2000A9F0413757416105710508F4B6CB0E94EE
:103E3000B00A8EE094E00E94F909D5018D919C9121
:103E40000E944E09F501108E178A52CF493853410E
:103E50006105710508F4A1CB8D919C910E944E09DA
:103E6000F50100811181D80118968D919C91892BC3
:103E7000B9F10E94B00A8CEA92E00E945403F80162
:103E80006085718589E594E00E94C20A6AE389E54C
:103E900094E00E946002D8011A968D919C910E9434
:103EA000550AF8018081918142855385608571852D
:103EB000DC01ED91FC910088F189E02D09959924B0
:103EC0009394019709F0912CF801948691105DC0AC
:103ED000D5011E964D925D926D927C92519709CFBD
:103EE0000E94B00A8BEB92E00E945403D801149612
:103EF0006C9189E594E00E946B0A6EE289E594E09A
:103F00000E946002F801658189E594E00E946B0AD5
:103F10006EE289E594E00E946002D80116966C91E9
:103F200089E594E00E946B0A6EE289E594E00E94C4
:103F30006002F801678189E594E00E946B0A69ECF0
:103F400071E089E594E00E94EA09D8018D919C9185
:103F5000DC01ED91FC910684F785E02DD8011A96DD
:103F60004D915C911B9727EC31E03A83298314969D
:103F7000CD90DD90ED90FC901797CB82DC82ED82A6
:103F8000FE82BE016F5F7F4F99CF81E090E0F50127
:103F9000938B828B22813381F90101900020E9F714
:103FA00031978F01021B130BD12CC12CF12CE12C6A
:103FB00041E050E06DE1C5010E94E81FF5018285F6
:103FC0009385A485B58586879787A08BB18B91CE85
:103FD0002F923F924F925F926F927F928F929F9219
:103FE000AF92BF92CF92DF92EF92FF920F931F9307
:103FF000CF93DF9300D000D000D0CDB7DEB75C0107
:104000006E834A013901DC018D919C910E943B092C
:10401000882309F4D3C08E818D7F09F401C1BE814C
:10402000B63009F4FDC0BD3109F4FAC0F501878945
:10403000908D019709F0C2C081149104B9F4D501A3
:1040400054968D909C9055978114910479F45296D2
:104050008D919C915397019609F4C9C053969C93F6
:104060008E935297D50152968D909C908E818C5054
:10407000893090F5F50182859385A485B5854681C3
:10408000578160857185481759076A077B0710F4C7
:10409000AC01BD011A012B01F2E42F0E311C411CB1
:1040A000511C0E94F104A2019101261B370B480B01
:1040B000590BDA01C901B7FDA0C0C5010E94951ACC
:1040C0000E94F104A2019101261B370B480B590BEA
:1040D000DA01C901B7FFF1CFC80105966114710477
:1040E00011F485E090E0512C412CE114F10409F029
:1040F0002601480E591EBE81B9839824892498242C
:104100009B828A82C8018C0D9D1D9827892798273C
:104110009D838C83D501ED91FC9180819181DC019F
:10412000ED91FC910280F381E02D45E050E0BE016D
:104130006F5F7F4F09954C0160E070E0CB010E94FA
:10414000BE04BE81BB2381F101151105A9F0D50183
:10415000ED91FC9180819181DC01ED91FC910280D7
:10416000F381E02DA801B3010995880E991E60E046
:1041700070E0CB010E94BE04C114D104A9F0D501A6
:10418000ED91FC9180819181DC01ED91FC910280A7
:10419000F381E02DA601B7010995880E991E60E014
:1041A00070E0CB010E94BE048414950479F1F501FE
:1041B000108E178A808191810E944E0926960FB633
:1041C000F894DEBF0FBECDBFDF91CF911F910F914D
:1041D000FF90EF90DF90CF90BF90AF909F908F9027
:1041E0007F906F905F904F903F902F90089581E067
:1041F00090E0F501938B828B35CFD50156968C914B
:1042000081116ACFC5010E94951A66CF0E94F10400
:10421000D5011A966D937D938D939C931D97CECF68
:104220008114910409F058CF0ACFCF92DF92EF9218
:10423000FF920F931F93CF93DF93CDB7DEB7C6588E
:10424000D1090FB6F894DEBF0FBECDBF8C01CE01F1
:104250000196CF57DF4F99838883C158D040CD57FF
:10426000DF4F19821882C358D04080E890E0CB57C6
:10427000DF4F99838883C558D04067E472E0CE0150
:104280008F579F4F0E94491866E070E0CE018F570C
:104290009F4F0E94701AB801CE018F579F4F0E9406
:1042A0004918CD57DF4F08811981C358D0400150BC
:1042B0001109CF57DF4F28813981C158D040D12C07
:1042C000C12CF12CE12C50E040E064E186E896E05E
:1042D0000E94E81FCA57DF4F0FB6F894DEBF0FBE2B
:1042E000CDBFDF91CF911F910F91FF90EF90DF90A5
:1042F000CF900895CF92DF92EF92FF920F931F938A
:10430000CF93DF93CDB7DEB7C658D1090FB6F89477
:10431000DEBF0FBECDBF7C018B01CE010196CF5712
:10432000DF4F99838883C158D040CD57DF4F198222
:104330001882C358D04080E890E0CB57DF4F998374
:104340008883C558D04067E472E0CE018F579F4FF5
:104350000E944918B701CE018F579F4F0E94701AD3
:10436000B801CE018F579F4F0E94701ACD57DF4F73
:1043700008811981C358D04001501109CF57DF4F30
:1043800028813981C158D040D12CC12CF12CE12C8D
:1043900050E040E064E186E896E00E94E81FCA57DA
:1043A000DF4F0FB6F894DEBF0FBECDBFDF91CF91C8
:1043B0001F910F91FF90EF90DF90CF9008958F9213
:1043C0009F92AF92BF92CF92DF92EF92FF920F93A4
:1043D0001F93CF93DF93CDB7DEB7C75AD1090FB67E
:1043E000F894DEBF0FBECDBF0E940F096B017C01A8
:1043F000CE0101964C01CE55DF4F99838883C25A76
:10440000D040CC55DF4F19821882C45AD04020E8E2
:10441000A22EB12CCA55DF4FB982A882C65AD0400D
:1044200067E472E08F559F4F0E94491861E070E089
:10443000CE018E559F4F0E94701A8E010F571F4F4D
:1044400023E045E0C701B6010E944C2EB801CE0121
:104450008E559F4F0E944918CC55DF4F0881198116
:10446000C45AD04001501109CE55DF4F28813981FF
:10447000C25AD040D12CC12CF12CE12C50E040E0AC
:1044800064E186E896E00E94E81F00913A041091EA
:104490003B04CE55DF4F99828882C25AD040CC551A
:1044A000DF4F19821882C45AD040CA55DF4FB982F3
:1044B000A882C65AD04067E472E0CE018E559F4F65
:1044C0000E94491863E070E0CE018E559F4F0E9414
:1044D000701A4AE0BE016F577F4FC8010E94A93091
:1044E000BE016F577F4FCE018E559F4F0E944918D6
:1044F000CC55DF4F08811981C45AD04001501109B1
:10450000CE55DF4F28813981C25AD04050E040E07B
:1045100064E186E896E00E94E81FC955DF4F0FB6B8
:10452000F894DEBF0FBECDBFDF91CF911F910F91E9
:10453000FF90EF90DF90CF90BF90AF909F908F90C3
:1045400008951F920F920FB60F9211242F933F934D
:104550004F935F936F937F938F939F93AF93BF938B
:10456000EF93FF9389E594E00E94E502FF91EF91BC
:10457000BF91AF919F918F917F916F915F914F917B
:104580003F912F910F900FBE0F901F9018951F9283
:104590000F920FB60F9211242F938F939F93EF9347
:1045A000FF93E0916904F0916A048081E0916F04C7
:1045B000F091700482FD1BC09081809172048F5F26
:1045C0008F7320917304821741F0E0917204F0E040
:1045D000E75AFB4F958F80937204FF91EF919F9163
:1045E0008F912F910F900FBE0F901F901895808183
:1045F000F4CF1F920F920FB60F9211242F933F9377
:104600008F939F93AF93BF938091B9039091BA0317
:10461000A091BB03B091BC033091B80323E0230FFA
:104620002D3758F50196A11DB11D2093B803809335
:10463000B9039093BA03A093BB03B093BC038091DA
:10464000BD039091BE03A091BF03B091C00301963A
:10465000A11DB11D8093BD039093BE03A093BF0322
:10466000B093C003BF91AF919F918F913F912F91D4
:104670000F900FBE0F901F90189526E8230F0296FB
:10468000A11DB11DD2CF1F920F920FB60F92112410
:104690002F933F934F935F936F937F938F939F934A
:1046A000AF93BF93EF93FF938091B900887F8036DB
:1046B00009F44AC0F0F5883209F4A7C018F5803132
:1046C00009F49BC0B8F4882309F4F9C0883009F4D0
:1046D00094C0FF91EF91BF91AF919F918F917F9186
:1046E0006F915F914F913F912F910F900FBE0F905F
:1046F0001F901895883109F488C0803251F7809353
:104700008E0314C0803409F49DC040F48033B9F3A3
:104710008833F9F680938E0385ECB0C0803509F4B8
:1047200085C0883509F496C0883499F60E94991896
:10473000D0CF883909F48CC038F5883729F050F487
:10474000883611F0803729F683E080939003109229
:10475000690357C0883809F47BC0803919F0803864
:1047600009F0B7CF80916903803208F071C0E09101
:10477000690381E08E0F809369038091BB00F0E0B4
:10478000E75BFC4F80833DC0803B39F0E0F4803A2A
:1047900009F479C0883A09F09CCF84E080939003B3
:1047A0001092480310924703E0913104F0913204D3
:1047B00009958091470381110FC081E080934703E1
:1047C0001092270309C0803C09F4A6CF883C09F465
:1047D000A3CF883B09F07DCFE091480381E08E0FA5
:1047E00080934803F0E0E95DFC4F80818093BB003B
:1047F000909148038091470329C080916B03809377
:10480000BB0085EC8093BC0064CF90918D038091B8
:104810008C03981758F5E0918D0381E08E0F8093FB
:104820008D03F0E0E459FC4F8081E9CFE0918D03E6
:1048300081E08E0F80938D038091BB00F0E0E459FE
:10484000FC4F808390918D0380918C039817C8F260
:1048500085E8D8CFE0918D0381E08E0F80938D03A2
:104860008091BB00F0E0E459FC4F808380918F037E
:1048700081115CCF81E080936A0384EA8093BC005D
:104880001092900326CF85EC8093BC001092900389
:1048900080916903803230F4E0916903F0E0E75BD6
:1048A000FC4F10826091690370E0E0912F04F09159
:1048B000300489E493E00995109269030ACF1092BD
:1048C0008E0334CFCF93DF93BC0189E594E00E943F
:1048D000EA09EC0169EC71E089E594E00E94EA09DB
:1048E0008C0F9D1FDF91CF910895DC01ED91FC911C
:1048F0001197309761F012962D913C911397E21722
:10490000F30728F401900020E9F7ED93FC93089554
:10491000FC0180819181009739F0228133818217D7
:10492000930710F40C94333090E080E00895AF9238
:10493000BF92CF92DF92EF92FF920F931F93CF938C
:10494000DF93CDB7DEB7CF5BD1090FB6F894DEBFEA
:104950000FBECDBF5C01CE0186589F4FC654DF4FBE
:1049600099838883CA5BD040C454DF4F1982188270
:10497000CC5BD04080E490E0C254DF4F99838883C1
:10498000CE5BD04065E372E0CE0186549F4F0E941B
:1049900049186AE372E0CE0186549F4F0E9449187D
:1049A00049E750E06DE671E0CE0101960E94783053
:1049B000C454DF4FC880D980CC5BD040C654DF4F91
:1049C000E880F980CA5BD04009E710E09E012F5FC4
:1049D0003F4F50E040E061E1C5010E94E81FC15433
:1049E000DF4F0FB6F894DEBF0FBECDBFDF91CF9182
:1049F0001F910F91FF90EF90DF90CF90BF90AF90FD
:104A00000895E9E5F4E01382128288EE93E0A0E0D5
:104A1000B0E084839583A683B78329E631E03183B0
:104A2000208325EC30E03587248724EC30E037877D
:104A3000268720EC30E0318B208B21EC30E0338B6B
:104A4000228B22EC30E0358B248B26EC30E0378B48
:104A5000268B118E128E138E148EE6EFF4E01382E5
:104A6000128284839583A683B7838BE791E0918339
:104A70008083E2E0F5E087EC91E09183808312820D
:104A8000138214821582E8E0F5E09183808312821C
:104A9000138214821582EEE0F5E091838083128206
:104AA000138214821582E4E1F5E0918380831282FF
:104AB000138214821582EAE1F5E0918380831282E9
:104AC000138214821582E6E2F5E0918380831282DC
:104AD000138214821582E0E2F5E0918380831282D2
:104AE000138214821582ECE2F5E0918380831282B6
:104AF000138214821582E2E3F5E0918380831282AF
:104B0000138214821582E1ECF6E091838083128295
:104B1000138214821582E2EBF6E01382128229E9F5
:104B200031E03183208324E0248728EE33E0368788
:104B30002587A5EAB6E013969C938E931297149658
:104B40001D921D921D921C92179719961C921E92EF
:104B500018971B961C921E921A971C961C921C97D3
:104B60001196FC93EE9340E757E160E070E04483D8
:104B7000558366837783E6E8F6E0B183A0831382EA
:104B8000128215821482168217821086118612866E
:104B900013861486158616861786108A118A138A3C
:104BA000128A158A148A168A108E178A8FEF9FEF41
:104BB0009093850680938406E8E3F5E013821282E1
:104BC0008DE891E09183808387E2848380E181870F
:104BD00082E0828713860895CF93DF93CDB7DEB747
:104BE000E4970FB6F894DEBF0FBECDBF789484B5BE
:104BF000826084BD84B5816084BD85B5826085BDD9
:104C000085B5816085BD80916E00816080936E0066
:104C10001092810080918100826080938100809158
:104C20008100816080938100809180008160809309
:104C300080008091B10084608093B1008091B000C9
:104C400081608093B00080917A00846080937A00C4
:104C500080917A00826080937A0080917A008160EE
:104C600080937A0080917A00806880937A00109215
:104C7000C100E0916904F0916A0482E08083E091D0
:104C80006504F09166041082E0916704F091680475
:104C90008FEC808310927104E0916D04F0916E04AA
:104CA00086E08083E0916B04F0916C0480818061E8
:104CB0008083E0916B04F0916C0480818860808334
:104CC000E0916B04F0916C04808180688083E091B6
:104CD0006B04F0916C0480818F7D80830E94B00A08
:104CE0008EE992E00E94F9098EEF80939F069DEE77
:104CF0009093A0062AEB2093A1068093A2068093AE
:104D0000A3069093A40620E031E0D9010D90002085
:104D1000E9F79D0121503140A0E0B1E0E1E0F0E091
:104D2000AD01405051404217530784F4AF014F5F2B
:104D30005F4F6D91EA57F94F818D8627818F4630FD
:104D4000510514F041E050E0FA01EACF80912704C8
:104D500081112AC010920F0410920E0488EE93E085
:104D6000A0E0B0E08093100490931104A09312048B
:104D7000B09313048FE391E090930D0480930C049F
:104D800087EC91E090931B0480931A0410921C040A
:104D900010921D0410921E0410921F0484E0809350
:104DA000240481E08093270489EC93E09093C80366
:104DB0008093C7038091C6038111ADC060E372E0A8
:104DC00080E090E00E94BE04DFB6F89401EF12E0AC
:104DD00075E0E72E73E0F72E8091C403811125C0A2
:104DE000F8018491F7019491E82FF0E0EE0FFF1F96
:104DF000ED57FD4FA591B4918C91982321F461E07A
:104E00008AE00E94BD0361E08AE00E94EB038CB55A
:104E100080618CBD8CB580648CBD61E08DE00E94AA
:104E2000EB0361E08BE00E94EB038091C4038F5F92
:104E30008093C403DFBEF8010491E02FF0E0EE0F91
:104E4000FF1FE758FD4F859194919093C303809382
:104E5000C203F701E490E092C10361E08AE00E949E
:104E6000EB030E94390780E591E00E94440284E34D
:104E70008093580480E80E9405080E94E20C882371
:104E800009F430C288E00E9405080E94CF0C8830E7
:104E900009F028C280E10E9405080E94CF0C8031F1
:104EA00009F020C280E00E9405080E94CF0C182F54
:104EB000811118C241E050E0BE016F5F7F4F8FE16A
:104EC00090E00E945A0B8981833009F00BC280E484
:104ED0008093C50342E06EE170E0812F0E9461087B
:104EE00042E06FE170E0812F0E9461081F5F143083
:104EF00089F740E06EE170E0812F0E94610840E098
:104F00006FE170E0812F0E9461081F5F183089F700
:104F100081E08093C60380E591E00E94440246E070
:104F200050E06FE976E089E090E00E94550787EC59
:104F300091E09A8389831B821C821D821E8244E039
:104F400050E0BE016D5F7F4F8FE090E00E945507FB
:104F50000091C7031091C803D80192961D921D922B
:104F60001D921C929597F80116A217A210A611A6E1
:104F70009A961D921D921D921C929D9780E69AEE24
:104F8000A0E0B0E086AB97ABA0AFB1AF80EA9FE006
:104F9000A0E0B0E082AF93AFA4AFB5AFD801189650
:104FA00086E0FD01282F11922A95E9F79801225FEA
:104FB0003F4F94E1F90111929A95E9F7EFE9F6E094
:104FC00001900D928A95E1F72C5C3F4F39AB28ABED
:104FD000D9011C920E94DB2F2FEC37E040E050E01B
:104FE0000E942934DC01CB010196A11DB11DF801FD
:104FF00084839583A683B78380839183A283B383BD
:105000005801F3E4AF0EB11CC5010E942A0C64E400
:1050100070E0C5010E94930F882309F4CCC10E945F
:10502000F1042B013C0148EEC42E43E0D42EE12CC8
:10503000F12C912C812CA8A9B9A98C918330B9F1BC
:105040008111C9C1F80184819581A681B78101963A
:10505000A11DB11D84839583A683B7830E94F104AB
:105060006419750986099709A70196010E9492346F
:10507000A90161E0C8010E943B1781E0A8A9B9A974
:105080008C93F1E08F169104B1F20E94F10464193F
:10509000750986099709D801D6962D913D914D91B4
:1050A0005C91D997261737074807590710F6C501AD
:1050B0000E942A0CF80184819581A681B78101960E
:1050C000A11DB11D84839583A683B7830E94F1043B
:1050D000F801FE9660837183828393838A94892882
:1050E00009F069C180E591E00E9444020091C70384
:1050F0001091C803B801625F7F4FCE0101960E94F4
:10510000381344E050E0BE016D5F7F4F8FE090E0C8
:105110000E945507B8016A5E7F4FCE0101960E943A
:10512000381344E050E0BE016D5F7F4F81E090E0B6
:105130000E945507B8016E5E7F4FCE0101960E9416
:10514000381344E050E0BE016D5F7F4F85E090E092
:105150000E945507B801625E7F4FCE0101960E9402
:1051600038138B819C81AD81BE8180932205909301
:105170002305A0932405B09325050E9499047F730D
:105180008091210190912201682779277093220153
:105190006093210168EE73E080E090E00E94BE041D
:1051A00087EC91E09A8389831B821C821D821E8278
:1051B00080E591E00E94440244E050E0BE016D5F52
:1051C0007F4F8FE090E00E945A0B0E94B00A8DE85A
:1051D00092E00E9454036B8189E594E00E946B0A7F
:1051E0006EE289E594E00E9460026C8189E594E0BA
:1051F0000E946B0A6EE289E594E00E9460026D8174
:1052000089E594E00E946B0A6EE289E594E00E94D1
:1052100060026E8189E594E00E946B0A69EC71E09E
:1052200089E594E00E94EA0980E091E09093890684
:10523000809388060E94F104DC01CB0188589341D9
:10524000A109B1098093900690939106A0939206CC
:10525000B093930680938C0690938D06A0938E0650
:10526000B0938F068093940690939506A09396062C
:10527000B09397060E94B00A88EE91E00E94F90967
:10528000E0918606F09187068AE492E09187808714
:1052900080E590E0938782878091860690918706CB
:1052A0000E944E0910929E0610929D060E94F104E3
:1052B0006B017C0180919D0690919E06019709F4F7
:1052C00059C10E94F1046C197D098E099F0960354E
:1052D00076448105910508F04DC186E896E00E946C
:1052E000951AE8CF87E38093580480E80E94050868
:1052F0000E94E20C882329F188E00E9405080E94A0
:10530000CF0C8830F1F480E10E9405080E94CF0C98
:10531000182F8031B1F480E00E9405080E94CF0C64
:1053200081110FC041E050E0BE016F5F7F4F89E304
:1053300090E00E945A0B8981843019F41093C503C0
:10534000E7CD83E38093580480E80E9405080E941B
:10535000E20C882371F180E10E9405080E94CF0CC5
:10536000803139F582E10E9405080E94CF0C82311C
:1053700001F580E00E9405080E94CF0C811119C040
:1053800084E08093C50315E51FA741E050E0BE010E
:10539000615D7F4F8BE190E00E9455071EA741E0C1
:1053A00050E0BE01625D7F4F8AE190E00E945507A8
:1053B000AFCD109258040E94B00A81E992E00E9499
:1053C000F90960E177E280E090E00E94BE04F0E03D
:1053D000E0E00995FFCF843001F5F80184819581E3
:1053E000A681B7810196A11DB11D84839583A683F3
:1053F000B7830E94F1046419750986099709A7010A
:1054000096010E949234A90163E0C8010E943B17F3
:10541000E2E0A8A9B9A9EC9334CE813059F5D801BE
:10542000DA964D915D916D917C91DD979E012F5F94
:105430003F4FC8010E94D1188CAB823009F092C056
:1054400089819A81AB81BC81F80184839583A6838D
:10545000B7830E94F1046419750986099709A701A9
:1054600096010E949234A90163E0C8010E943B1793
:10547000ECA9CFCF823009F004CED801DA964D9155
:105480005D916D917C91DD979E012F5F3F4FC8012B
:105490000E94D1188CAB853009F05DC023E0E8A9EB
:1054A000F9A92083F80182A193A1A4A1B5A1892B18
:1054B0008A2B8B2B41F484E893E0A0E0B0E082A338
:1054C00093A3A4A3B5A3F80186A197A1A0A5B1A514
:1054D000892B8A2B8B2B61F482A193A1A4A1B5A166
:1054E000B695A7959795879586A397A3A0A7B1A7EB
:1054F000F80182A593A5A4A5B5A5892B8A2B8B2B92
:10550000A9F482A193A1A4A1B5A1AC01BD0123E09E
:1055100076956795579547952A95D1F7841B950BF6
:10552000A60BB70B82A793A7A4A7B5A7F80186A1DE
:1055300097A1A0A5B1A586A797A7A0ABB1AB82A55F
:1055400093A5A4A5B5A582AB93ABA4ABB5AB8824BA
:105550008394912C96CDFCA9F63021F4A8A9B9A981
:105560001C928FCDBCA9BF3F09F08BCDE8A9F9A94A
:10557000108287CD80919D0690919E06019709F03B
:105580008BCE10923604109235041092340410928F
:1055900033040E9474058DE592E090933204809369
:1055A00031048EE592E09093300480932F041092A2
:1055B0003D0580914205823018F098E090933D05BA
:1055C0008093400562E370E080E090E00E94BE04BA
:1055D0006091430588E395E00E94380668EE73E029
:1055E00080E090E00E94BE0460E388E395E00E94C2
:1055F00076090BE416E4C8010197F1F760E388E34C
:1056000095E00E947609C8010197F1F760E388E30D
:1056100095E00E94760983E592E00197F1F760E258
:1056200088E395E00E94760960913D05606240E064
:1056300088E395E00E948F0984E080933E0540E076
:105640006CE088E395E00E948F090E94D90932E05E
:10565000F32EF0923F0540E066E088E395E00E947B
:105660008F0940E062E088E395E00E948F090BE338
:105670001FE1C8010197F1F788E08093430560E0DE
:1056800088E395E00E9438060E94D90940E062E074
:1056900088E395E00E948F09C8010197F1F761E066
:1056A00085E00E94EB0361E084E00E94EB0360E090
:1056B00082E00E94EB0360E084E00E94BD0360E0B2
:1056C00085E00E94BD0361E083E00E94EB03E0916E
:1056D0006904F0916A04F082E0916504F091660437
:1056E0001082E0916704F091680487E6808310924D
:1056F0007104E0916D04F0916E0486E08083E09186
:105700006B04F0916C04808180618083E0916B0474
:10571000F0916C04808188608083E0916B04F0914B
:105720006C04808180688083E0916B04F0916C044C
:1057300080818F7D80838FEF90E00E946F038FEFD9
:1057400090E00E946F038FEF90E00E946F038091C2
:1057500084069091850697FF17C00E94F104E4E447
:10576000F5E024E1DF01322F1D923A95E9F76083DD
:105770007183828393837496A6E0E438FA0791F7E5
:105780001092850610928406809184069091850679
:10579000409774F4E4E4F5E090E080E02481358102
:1057A000232B09F44BC20196749680319105B1F711
:1057B00060E080E00E94A60966E572E088E395E07B
:1057C0000E94C20A68EE73E080E090E00E94BE048E
:1057D0000E94D90960E080E00E94A60966E672E0B6
:1057E00088E395E00E94C20A61E080E00E94A60979
:1057F00069E672E088E395E00E94C20ACC24C39473
:10580000D12C86E896E00E94951A0E94F10468ABBC
:1058100079AB8AAB9BAB94E4E92E95E0F92E870136
:10582000F801138A128A84819581892BC1F1408005
:1058300051806280738068A979A98AA99BA964199B
:1058400075098609970981849284A384B4846815B4
:1058500079058A059B0518F1A50194010E949234EF
:10586000C501B4010E943A35460E571E681E791EC6
:10587000D8014D925D926D927C92139751968C91C6
:105880005197882361F01D962D913C911E9721150B
:10589000310509F094C15396DC92CE9252970C5E7A
:1058A0001F4F84E896E08017910709F0B9CFD70120
:1058B00052968D919C915397892B99F11496ED9165
:1058C000FC91159718968C911897882309F48CC130
:1058D00016968D919C910995F7018289938902977B
:1058E00001F58091840690918506892BD1F0848101
:1058F0009581892BB1F0D701E4E11D92EA95E9F792
:105900000E94F104D7016D937D938D939C9313971F
:1059100080918406909185060197909385068093E7
:105920008406B4E1EB0EF11C0E151F0509F0BFCF84
:1059300019A618A61BA61AA61DA61CA670E060E054
:10594000CE0188960E94711828A539A581114EC1F3
:105950002115310519F0C9010E94062F19A618A6B4
:105960001DA61CA61BA61AA60E940F091BA21AA2FE
:105970001DA21CA21FA21EA28E010F5F1F4F22E0BC
:1059800044E00E944C2E7C01009709F43EC1FC01CA
:1059900001900020E9F731978F01081B190BB8011E
:1059A000CE0182960E9471182AA13BA1811126C1C5
:1059B0002115310519F0C9010E94062F1BA21AA258
:1059C0001FA21EA21DA21CA288A599A5009709F4DA
:1059D00024C16AA17BA16115710509F41CC14AA506
:1059E0005BA52EA13FA14217530708F414C10E94E2
:1059F0003A368EA19FA19DA78CA71FA21EA28AA1A5
:105A00009BA1009711F00E94062F60E082E00E94A7
:105A1000A6094CA55DA568A579A588E395E00E9437
:105A2000670280E390E00E946F0389E594E00E94A2
:105A3000C502892BD1F389E594E00E94A302182FB7
:105A40008093370489E594E00E94C502892BD1F345
:105A500089E594E00E94A302312E212C8101082BBC
:105A600010933B0400933A0461E082E00E94A6098F
:105A7000A80170E060E02AE088E395E00E94090A4E
:105A80008FE00E948404BC017695679576956795B2
:105A900083E00E94270464E670E080E090E00E94CA
:105AA000BE0480913A0490913B04803D974008F5F4
:105AB0008091380481111DC00E94330981E08093D8
:105AC000380461E087E00E94A60960EE71E088E397
:105AD00095E00E94C20A61E070E084E090E00E94DC
