:100000000C9461010C9489010C9489010C94890170
:100010000C9489010C9489010C9489010C94890138
:100020000C9489010C9489010C9489010C94890128
:100030000C9489010C9489010C9489010C94890118
:100040000C94D2200C9489010C9442210C941C2114
:100050000C9489010C9489010C9489010C948901F8
:100060000C9474210C94890100407A10F35A00A07A
:10007000724E18090010A5D4E80000E87648170071
:1000800000E40B54020000CA9A3B000000E1F505B1
:10009000000080969800000040420F000000A086FB
:1000A00001000000102700000000E803000000002D
:1000B0006400000000000A000000000001000000D1
:1000C00000002C76D888DC674F0823DFC1DFAE59EB
:1000D000E1B1B796E5E3E453C63AE651997696E87E
:1000E000E6C28426EB898C9B62ED407C6FFCEFBC02
:1000F0009C9F40F2BAA56FA5F490055A2AF75C932D
:100100006B6CF9676DC11BFCE0E40D47FEF520E662
:10011000B500D0ED902E0300943577050080841E45
:10012000080000204E0A000000C80C333333330FA0
:10013000986E12831141EF8D2114893BE65516CF3D
:10014000FEE6DB18D1844B381BF77C1D901DA4BB49
:10015000E424203284725E228100C9F124ECA1E5FE
:100160003D27626C6E6B696E660076657200312E9B
:10017000312E3000682D626561740034350062757F
:1001800066662D696E003235360064657600417210
:100190006475696E6F20556E6F0063707500415411
:1001A0006D6567613332385000636F6E00573531CB
:1001B00030300066772D7479706500544D504C597D
:1001C000624B7473547857006275696C64004D61BA
:1001D0007920203820323032332031303A35343AE9
:1001E000323800000000000000240027002A000030
:1001F000000000250028002B00000000002300263E
:10020000002900040404040404040402020202029B
:1002100002030303030303010204081020408001CA
:100220000204081020010204081020000000080049
:100230000201000003040700000000000000008C21
:10024000018C018C018C018C018C018C018C018C46
:10025000018C018C018C018C018C018C018C018C36
:10026000018C018C018C018C018C018C018C018C26
:10027000018C018C018C018C018C018C018C014062
:100280000A8B011C0A8B01FC09D6098B018B018B9F
:10029000018B018B018B018B018B018B018B018BFE
:1002A000018B018B018B018B018B018B018B018BEE
:1002B000018B018B018B018B018B018B018B010069
:1002C0001F2311241FBECFEFD8E0DEBFCDBF13E048
:1002D000A0E0B1E0EEEDF7E602C005900D92A83186
:1002E000B107D9F726E0A8E1B3E001C01D92AD3F08
:1002F000B207E1F711E0C1E6D1E004C02197FE01A9
:100300000E94EE32C036D107C9F70E940A240C942D
:10031000ED330C940000089508958CBD9DBD0895A3
:1003200020E3FC0120833296862F82958F706F70B8
:100330006A3030F4605D6293682F8111F5CF0895C3
:10034000695CF9CFFC01818D928D0895833081F035
:1003500028F4813099F08230A9F008958730A9F00F
:100360008830C9F08430B1F4809180008F7D03C063
:10037000809180008F7780938000089584B58F7777
:1003800084BD089584B58F7DFBCF8091B0008F77B9
:100390008093B00008958091B0008F7DF9CF1F93B6
:1003A000CF93DF93282F30E0F901E55DFD4F849175
:1003B000F901E95EFD4FD491F901ED5FFD4FC49164
:1003C000CC23A9F0162F81110E94A601EC2FF0E09A
:1003D000EE0FFF1FE151FE4FA591B4918FB7F89436
:1003E000EC91111108C0D095DE23DC938FBFDF9113
:1003F000CF911F910895DE2BF8CFCF93DF9390E03C
:10040000FC01E95EFD4F24918D5F9D4FFC018491BD
:100410008823C9F090E0880F991FFC01EB51FE4F33
:10042000A591B491FC01E151FE4FC591D4916111A8
:100430000DC09FB7F8948C91209582238C9388816E
:10044000282328839FBFDF91CF910895623051F414
:100450009FB7F8943C91822F809583238C93E881F9
:100460002E2BEFCF8FB7F894EC912E2B2C938FBFC0
:10047000EACF1F93CF93DF93182FEB0161E00E9427
:10048000FD01209739F460E0812FDF91CF911F911A
:100490000C94CF01CF3FD10511F461E0F5CFE12FEE
:1004A000F0E0E55DFD4FE491E33031F140F4E130FF
:1004B000B1F0E230E1F0C038D1057CF7E4CFE730AD
:1004C00029F1E83059F1E430B1F780918000806281
:1004D00080938000D0938B00C0938A0004C084B5C1
:1004E000806884BDC7BDDF91CF911F91089584B509
:1004F000806284BDC8BDF7CF809180008068809302
:100500008000D0938900C0938800EDCF8091B00027
:1005100080688093B000C093B300E5CF8091B000B5
:1005200080628093B000C093B400DDCF8E3008F0BD
:100530008E508770806480937C0080917A00806404
:1005400080937A0080917A0086FDFCCF80917800BC
:100550009091790008953FB7F89480914A04909162
:100560004B04A0914C04B0914D0426B5A89B05C046
:100570002F3F19F00196A11DB11D3FBFBA2FA92F22
:10058000982F8827BC01CD01620F711D811D911D1F
:1005900042E0660F771F881F991F4A95D1F708958B
:1005A0008F929F92AF92BF92CF92DF92EF92FF9283
:1005B0006B017C010E94AB024B015C01C114D104B0
:1005C000E104F104B9F00E94AB02681979098A09C3
:1005D0009B09683E73408105910580F321E0C21AB2
:1005E000D108E108F10888EE880E83E0981EA11C6E
:1005F000B11CE4CFFF90EF90DF90CF90BF90AF9011
:100600009F908F9008952FB7F89460914604709151
:10061000470480914804909149042FBF089508959C
:10062000089508954F925F926F927F92AF92BF921A
:10063000CF92DF92EF92FF920F931F93CF93DF93AE
:10064000EC016B017B01E40EF51E8B015801AC1827
:10065000BD080E151F0511F10E94030368877987F5
:100660008A879B87E881F9810284F385E02DCE019A
:10067000099597FF23C00E940303488459846A8424
:100680007B8464197509860997094C805D806E80AA
:100690007F80641575058605970520F3C501DF91F8
:1006A000CF911F910F91FF90EF90DF90CF90BF906F
:1006B000AF907F906F905F904F900895F801819375
:1006C0008F01C4CFAF92BF92CF92DF92EF92FF9291
:1006D0000F931F93CF93DF936C017B018B01040F6A
:1006E000151FEB015E01AE18BF08C017D10759F006
:1006F0006991D601ED91FC910190F081E02DC60148
:100700000995892B79F7C501DF91CF911F910F9141
:10071000FF90EF90DF90CF90BF90AF900895FC01D5
:10072000538D448D252F30E0842F90E0821B930B56
:10073000541710F0CF96089501970895FC01918DFC
:10074000828D981761F0A28DAE0FBF2FB11D5D96FF
:100750008C91928D9F5F9F73928F90E008958FEFA1
:100760009FEF0895FC01918D828D981731F0828D55
:10077000E80FF11D858D90E008958FEF9FEF0895AC
:10078000FC01918D228D892F90E0805C9F4F821B10
:1007900091098F73992708958BE694E00E94C00316
:1007A00021E0892B09F420E0822F089580E090E079
:1007B000892B29F00E94CC0381110C94000008952C
:1007C000FC01A48DA80FB92FB11DA35ABF4F2C91C6
:1007D000848D90E001968F739927848FA689B789BD
:1007E0002C93A089B1898C91837080648C93938DB4
:1007F000848D981306C00288F389E02D80818F7D57
:1008000080830895EF92FF920F931F93CF93DF930E
:10081000EC0181E0888F9B8D8C8D98131AC0E8893C
:10082000F989808185FF15C09FB7F894EE89FF890B
:100830006083E889F98980818370806480839FBFA9
:1008400081E090E0DF91CF911F910F91FF90EF90A9
:100850000895F62E0B8D10E00F5F1F4F0F731127B9
:10086000E02E8C8D8E110CC00FB607FCFACFE889F4
:10087000F989808185FFF5CFCE010E94E003F1CF99
:10088000EB8DEC0FFD2FF11DE35AFF4FF0829FB768
:10089000F8940B8FEA89FB8980818062CFCF682F23
:1008A0008BE694E00C940204CF93DF93EC01888DE7
:1008B0008823B9F0AA89BB89E889F9898C9185FDDB
:1008C00003C0808186FD0DC00FB607FCF7CF8C9169
:1008D00085FFF2CF808185FFEDCFCE010E94E0033E
:1008E000E9CFDF91CF91089520915A03260F332746
:1008F000331F21323105ECF42091A303FC0190E079
:1009000080E0243069F082E00895A0915A0321919B
:10091000AC01465C5C4FA40FB52FB11D2C93019622
:10092000861798F380915A03680F60935A0380E00A
:10093000089581E008951092A30381E08093A203BB
:1009400010927D0361E082E10E94CF0161E083E1CA
:100950000E94CF01E9EBF0E080818E7F808380816F
:100960008D7F808388E48093B80085E48093BC0009
:100970000895CF93DF9391E0909339038823B9F0E2
:10098000C091B800D091BA008091BC008A7B80935E
:10099000BC0060E082E10E94CF0160E083E10E9440
:1009A000CF010E949B04D093BA00C093B800DF919E
:1009B000CF910895E091400480913F04E81730F40E
:1009C000F0E0E75EFC4F808190E008958FEF9FEFAD
:1009D00008959091400480913F042FEF3FEF9817C6
:1009E00048F4E92FF0E0E75EFC4F208130E09F5FA4
:1009F00090934004C901089580913F049091400470
:100A0000891B990B0895CF92DF92EF92FF920F937B
:100A10001F93CF93DF937C01CB018A012091A9031F
:100A2000222389F0EB016B01C40ED51ECC15DD0528
:100A300069F06991D701ED91FC910190F081E02D71
:100A4000C7010995F3CF642F0E947404C801DF9198
:100A5000CF911F910F91FF90EF90DF90CF9008956D
:100A6000CF93DF931F92CDB7DEB769832091A9039F
:100A70002223F9F020913D04203258F021E030E0AB
:100A8000FC013383228390E080E00F90DF91CF91CF
:100A9000089580913E04E82FF0E0E655FC4F9981DF
:100AA00090838F5F80933E0480933D0481E090E0CB
:100AB000ECCF61E0CE0101960E947404F7CFCF9293
:100AC000DF92EF92FF920F931F93CF93DF93FC017E
:100AD000C48121E02093A903C093CA0310923E046D
:100AE00010923D048385682B88E095E00E943005D4
:100AF000D0913D04D13208F092C00E94AB026B014C
:100B00007C018091A303811165C082E08093A303DF
:100B100081E08093A2038FEF8093A1031092A00342
:100B2000D0939F03AAEAB3E0EFE7F3E080E0D813A5
:100B300085C010927E0380917E03CC0FC82BC0939A
:100B40007E0380917D03813009F07CC010927D038B
:100B50000E94AB026B017C0180917E038093BB00FD
:100B60008091A5039091A603A091A703B091A8033B
:100B7000892B8A2B8B2B99F00E94AB020091A50345
:100B80001091A6032091A7033091A8036C197D0949
:100B90008E099F090617170728073907E0F180918A
:100BA000BC0083FDD9CF85EC8093BC000E94AB02D2
:100BB0006B017C018091A303823009F445C08091D0
:100BC000A1038F3F61F18091A103803241F18091B7
:100BD000A10325C08091A5039091A603A091A7032E
:100BE000B091A803892B8A2B8B2B09F48ACF0E9402
:100BF000AB020091A5031091A6032091A7033091A9
:100C0000A8036C197D098E099F0906171707280785
:100C1000390708F076CF8091A4030E94B90410929E
:100C20003E0410923D041092A903DF91CF911F91D1
:100C30000F91FF90EF90DF90CF9008959D91919349
:100C40008F5F75CF85EEB0CF8091A5039091A603FD
:100C5000A091A703B091A803892B8A2B8B2B09F4B1
:100C6000A9CF0E94AB020091A5031091A603209189
:100C7000A7033091A8036C197D098E099F090617F7
:100C800017072807390708F095CFC5CFFC01208149
:100C90002EBD9B012150310941F051810DB407FE59
:100CA000FDCF4EB55EBD4193F5CF61507109860F02
:100CB000971F0DB407FEFDCF2EB5FC0120830895CC
:100CC000E091CC03F091CD0380819091CB03892BEF
:100CD00080830895E091CC03F091CD0390818091C1
:100CE000CB0380958923808308958EBD00000DB4C9
:100CF00007FEFDCF8EB50895AF92BF92CF92DF92DF
:100D0000EF92FF920F931F93CF93DF93CDB7DEB790
:100D100028970FB6F894DEBF0FBECDBF8C017B01C4
:100D20006A0180916A048333E1F45801A40EB51E70
:100D3000A016B10609F46FC00E946A0680EF0E94F7
:100D40007506812F0E947506802F0E9475060F5F21
:100D50001F4FF70181917F010E9475060E94600676
:100D6000E7CF5B01A40EB51E8433C1F40E946A066E
:100D700019830A838D2D80688B83CC8264E070E0B8
:100D8000CE0101960E944606AE14BF0409F441C08C
:100D9000F70181917F010E947506F6CF0E946A06D5
:100DA0000F3F110509F028F419820A8384E08B8330
:100DB0000CC017FD17C019820A8333E016950795FA
:100DC0003A95E1F7007E0C600B8386E0C816D104EB
:100DD000A0F5F701DE011496EA15FB0599F0819163
:100DE0008D93FACFC80126E0969587952A95E1F76D
:100DF000807E19830A830115104C10F48461D7CFCB
:100E00008C61D5CFB6016D5F7F4FCE0101960E94F8
:100E100046060E946006C60128960FB6F894DEBF0B
:100E20000FBECDBFDF91CF911F910F91FF90EF903B
:100E3000DF90CF90BF90AF90089563E070E0CE0157
:100E400001960E944606F70181917F010E94750676
:100E5000AE14BF04C1F7DDCFCF93DF931F92CDB7A0
:100E6000DEB7898341E050E0BE016F5F7F4F90E0C5
:100E700080E00E947C060F90DF91CF91089590E072
:100E800020916A04233339F40C96982F990F990F07
:100E9000990F80E008954896F8CFDA01E091CF03EA
:100EA000F0E0FE2FEE27E60FF71F90E0982F88273F
:100EB000A901BD018E0F9F1F0C947C06CF93DF9379
:100EC00000D0CDB7DEB779836A8322E030E0AE018F
:100ED0004F5F5F4F60E170E00E944D070F900F90F1
:100EE000DF91CF910895CF93DF9300D0CDB7DEB7D8
:100EF00079836A8322E030E0AE014F5F5F4F64E0A8
:100F000070E00E944D070F900F90DF91CF910895F0
:100F1000CF93DF931F92CDB7DEB72091CF0330E0A0
:100F2000322F2227260F371F90E0982F88274983DA
:100F300041E050E0BE016F5F7F4F820F931F0E9420
:100F40007C060F90DF91CF910895CF93DF931F928E
:100F5000CDB7DEB76983DC01ED91FC910280F381AE
:100F6000E02D41E050E0BE016F5F7F4F09950F908B
:100F7000DF91CF910895FC019485FB01848598133E
:100F800003C081E0943008F080E00895CF93DF93B0
:100F90001F92CDB7DEB76983DC01ED91FC91028031
:100FA000F381E02D41E050E0BE016F5F7F4F099576
:100FB0000F90DF91CF9108950895FF920F931F93A3
:100FC000CF93DF93EB01FC01178A168A2A81211146
:100FD00009C02B81211106C02C81211103C02D8154
:100FE000222301F141155105E9F08A01FC01F08C41
:100FF00080E591E00E948D01AE014E5F5F4F24E0DD
:1010000030E06CE070E08F2D0E944D07B8018F2D0D
:101010000E945E0781E090E0DF91CF911F910F91D8
:10102000FF90089580E0F7CFFC01848595850895B1
:10103000FC018489958908952AEA31E0FC01318315
:101040002083FB014089518962897389FC014283B5
:101050005383648375830895DC01ED91FC91048CC6
:10106000F58DE02D099490E080E008958EE00E94D7
:101070009602BC01990F880B990B0E94A93020E0C1
:1010800030E040EA50E40E94083120E030E040E8DF
:101090005AE30E9408312AE037ED43E25CE30E9404
:1010A0006032089590E080E00E944F0490E080E07C
:1010B0000C944F0490E080E00E944F0481E090E0A7
:1010C0000C944F04CF9380E390E00E944F048BE692
:1010D00094E00E94C003892BD1F38BE694E00E9438
:1010E0009E03C82F809318038BE694E00E94C003F0
:1010F000892BD1F38BE694E00E949E0320E03C2FE5
:10110000A901482BCA01CF910895FC019485992328
:1011100069F080819181DC01ED91FC910688F7896D
:10112000E02D099591E0811101C090E0892F08958B
:10113000DC011C961C921C978D919C91DC01ED9119
:10114000FC910488F589E02D0994FC017687658778
:101150000895DC01ED91FC9102A0F3A1E02D099529
:1011600091E089270895862F089581E086270895C4
:1011700021E0FC018485843008F020E0822F08956E
:1011800008958F929F92AF92BF92EF92FF920F932A
:101190001F93CF93DF93CDB7DEB7A1970FB6F89427
:1011A000DEBF0FBECDBF7C01FA01CB0119A22230F8
:1011B00008F42AE08E010F5D1F4F822E912CB12C76
:1011C000A12CBF01A50194010E942F32F901CA018F
:1011D0006A3074F5605DD8016E938D01232B242B4A
:1011E000252B79F790E080E0109789F0FD010190C0
:1011F0000020E9F73197AF014A1B5B0BD701ED9156
:10120000FC910280F381E02DB801C7010995A196F8
:101210000FB6F894DEBF0FBECDBFDF91CF911F9107
:101220000F91FF90EF90BF90AF909F908F90089597
:10123000695CD1CFFC0101900020E9F73197AF0143
:10124000481B590BBC018AE495E00C9462030C9492
:10125000A32C8F929F92AF92BF92CF92DF92EF9288
:10126000FF920F931F93CF93DF937C01EB016C01EF
:1012700082E0C80ED11C4701E5E08E0E911C10E003
:1012800000E0F60141916F0150E070E060E02AE07B
:10129000CE010E94C1085C01E881F9810190F081D2
:1012A000E02D6EE2CE0109958A0D9B1D080F191FD6
:1012B000C814D90431F7F701458150E070E060E0CF
:1012C0002AE0CE010E94C108800F911FDF91CF91CB
:1012D0001F910F91FF90EF90DF90CF90BF90AF9054
:1012E0009F908F9008950F931F93CF938C01C62FDB
:1012F0000E945F056C2F6460C8010E945F056C2F1F
:101300006B7FC8010E945F0583EC90E00197F1F7C5
:10131000CF911F910F9108950F931F93CF93DF9358
:101320008C01D62FC42F607F642B0E94730980E14B
:10133000D89FB00111246C2BC801DF91CF911F9170
:101340000F910C947309CF93DF93CDB7DEB7289735
:101350000FB6F894DEBF0FBECDBF98E0ECE0F1E031
:10136000DE01119601900D929A95E1F79091520548
:10137000961708F46FEF262F30E0220F331F41E05D
:1013800050E04C0F5D1F240F351FF9016081680F7D
:10139000606840E08AE495E028960FB6F894DEBFD6
:1013A0000FBECDBFDF91CF910C948C09FB018081E2
:1013B00091810E94D02D892B81F081E090E00E94E4
:1013C0004F0481E090E00E944F0461E087E00E94BA
:1013D000A3098CEA91E00C941A0981E090E00E9444
:1013E0004F0490E080E00E944F0461E087E00E949B
:1013F000A30986EB91E0EFCFFB01808191810E94F0
:10140000D02D21E0009709F420E020934204892B9D
:1014100051F00E945A0861E087E00E94A30980EC25
:1014200091E00C941A090E94520861E087E00E9442
:10143000A3098AEC91E0F5CFFB01808191810E94A4
:10144000D02D21E0009709F420E020934104892B5E
:1014500061F061E085E00E94CF0160E087E00E94DA
:10146000A30984ED91E00C941A0960E085E00E94E4
:10147000CF0160E087E00E94A3098DED91E0F3CFFA
:10148000FB01808191810E94D02D892B61F061E068
:1014900084E00E94CF0160E087E00E94A30986EE0D
:1014A00091E00C941A0960E084E00E94CF0160E0B2
:1014B00087E00E94A30981EF91E0F3CF41E00E9411
:1014C0008C0981E090E00895AF92BF92CF92DF92B5
:1014D000EF92FF920F931F93CF93DF9300D000D032
:1014E000CDB7DEB78C016B017A0180916A0483333A
:1014F000E9F45B016801C40ED51EC016D106A9F13E
:101500000E946A068FE00E947506812F0E94750670
:10151000802F0E9475060F5F1F4F80E00E947506A6
:10152000F50181935F010E946006E7CF843369F57E
:101530000E946A0619830A838F2D8F778B83EC8232
:1015400064E070E0CE0101960E944606A70170E0BB
:1015500060E0C6010E94C733E114F10421F0B70135
:10156000C6010E9446060E946006C7010F900F90B8
:101570000F900F90DF91CF911F910F91FF90EF90FF
:10158000DF90CF90BF90AF9008950E946A060F3F02
:10159000110509F030F419820A831B8263E070E0C0
:1015A000D1CF17FD0BC019820A8333E0169507953A
:1015B0003A95E1F7007E08600B83F0CFC80126E082
:1015C000969587952A95E1F7807E19830A83011500
:1015D000104C18F480618B83E1CF8861FCCFCF93EE
:1015E000DF931F92CDB7DEB72091CF0330E0322FCB
:1015F0002227260F371F90E0982F882741E050E0E0
:10160000BE016F5F7F4F820F931F0E94640A898122
:101610000F90DF91CF910895CF93C82F462F61E0AF
:1016200070E00E94880761E070E08C2F0E94EF0A52
:101630008111F9CFCF910895CF93C82F80E591E024
:101640000E948D0168E070E08C2FCF910C940C0B00
:10165000CF93C82F80E591E00E948D0160E170E09A
:101660008C2FCF910C940C0BCF93DF93EC01888DD2
:10167000843020F40E94280B84E0888FDF91CF9182
:101680000895CF93C82F80E591E00E948D0163E01B
:1016900070E08C2FCF910C94EF0ACF93DF93EC0185
:1016A0008C858430D0F40E94410B843189F08823EA
:1016B00079F0883169F021E08C3159F4E881F981C1
:1016C0000084F185E02DCE01099521E0892B09F4F4
:1016D00020E0822FDF91CF91089580E0FBCFCF9261
:1016E000DF92EF92FF92CF93DF93EC018C858430F1
:1016F00068F40E941C0B0E9403036B017C018C8523
:101700000E94410B811109C084E08C87DF91CF9149
:10171000FF90EF90DF90CF90089561E070E080E05F
:1017200090E00E94D0020E940303AB01BC014C195F
:101730005D096E097F098D859E85B0E0A0E04817A0
:1017400059076A077B07D8F28C850E94280BDCCFEB
:10175000CF93FC01C08D80E591E00E948D0160E295
:1017600070E08C2F0E940C0B62E070E08C2F0E94C6
:10177000EF0A84FD16C062E070E08C2F0E94EF0A31
:1017800083FF0AC048E162E070E08C2F0E94880766
:1017900080E090E0CF91089580E591E00E948D0176
:1017A000E3CF40E162E070E08C2F0E94880781E087
:1017B000F0CFCF93DF931F92CDB7DEB741E050E07B
:1017C000BE016F5F7F4F90E080E00E94640A8981D4
:1017D0000F90DF91CF910895CF93DF93C4E1D0E0D4
:1017E0000E94D90B882361F061E070E080E090E016
:1017F0000E94D0022197A1F780E0DF91CF91089558
:1018000081E0FBCF1F93CF93DF931F92CDB7DEB75D
:10181000182F80E591E00E948D01812F0E943F07E3
:1018200027E0129FF0011124E25BFB4F22813381FC
:10183000377041E050E0BE016F5F7F4F820F931F12
:101840000E94640A89810F90DF91CF911F910895C2
:10185000FC01808D843040F4218D328D232B21F0CA
:101860000E94020C90E008958FEF9FEF0895CF93B0
:10187000DF93FC012485243028F08FEF9FEFDF9168
:10188000CF910895EC010190F081E02D0084F18565
:10189000E02D0995892B89F38C850E94020C90E03C
:1018A000EECFDA01E091CF03F0E0FE2FEE27E60F56
:1018B000F71F90E0982F8827A901BD018E0F9F1F69
:1018C0000C94640A8F929F92AF92BF92CF92DF9254
:1018D000EF92FF921F93CF93DF93CDB7DEB72C9794
:1018E0000FB6F894DEBF0FBECDBF20916A0414E09E
:1018F000222339F16B017C0180E591E00E948D018A
:101900005E0127E0A20EB11C450110E063E070E02B
:10191000812F0E94EF0AF40181934F01882349F13E
:101920001F5F143099F710E0F50181915F018D314F
:10193000D9F08831C9F08A518230B0F01F5F14307D
:1019400099F7812F2C960FB6F894DEBF0FBECDBF4E
:10195000DF91CF911F91FF90EF90DF90CF90BF90DC
:10196000AF909F908F90089560E170E0812F0E946A
:101970000C0BA12EB12C83EE93E00197F1F742E816
:1019800070E060E0812F0E9488074FEF62E070E016
:10199000812F0E948807B601C114D10491F480916F
:1019A00000019091010101968115F0EC9F0708F468
:1019B0005CC09093010180930001609100017091DF
:1019C0000101812F0E94730786E0E4E1F1E0DE016E
:1019D000119601900D928A95E1F7F70183818F7737
:1019E0008C8384818D8385818E83A7014E5F5F4FB9
:1019F00024E030E06CE070E0812F0E944D07B601DA
:101A0000812F0E945E0726E030E0AE014F5F5F4FFE
:101A100066E070E0812F0E944D0761E070E0812F49
:101A20000E940C0B27E02A9DC0012B9D900D1124D4
:101A30009C01225B3B4F7901F9011182108222E067
:101A400030E0AE01455F5F4F68E270E0812F0E9499
:101A5000510C8B859C85982789279827F7019383BC
:101A600082831682158214826CCF80E090ECA1CF25
:101A7000CF92DF92EF92FF920F931F93CF93DF935A
:101A800000D000D000D0CDB7DEB78C016B017A0159
:101A9000FC01808D843010F40E94280B8AEA91E0CA
:101AA0009A838983F60182819381A481B5818B8396
:101AB0009C83AD83BE83B701CE0101960E94620C68
:101AC000F801808F8430A0F4F586E486128E118EA2
:101AD00081E026960FB6F894DEBF0FBECDBFDF9132
:101AE000CF911F910F91FF90EF90DF90CF900895CD
:101AF00080E0EFCFAF92BF92CF92DF92EF92FF9252
:101B00000F931F93CF93DF9300D000D000D0CDB7B9
:101B1000DEB7082F6B0180E591E00E948D019E01E8
:101B20002F5F3F4F7901590110E063E070E0812F92
:101B30000E94EF0AF50181935F01882341F11F5F45
:101B4000143099F710E0F70181917F018D31D1F0C8
:101B50008831C1F08A518230A8F01F5F143099F7A4
:101B6000812F26960FB6F894DEBF0FBECDBFDF9152
:101B7000CF911F910F91FF90EF90DF90CF90BF908A
:101B8000AF90089560E170E0812F0E940C0BE12E70
:101B9000F12C83EE93E00197F1F7402F70E060E0C5
:101BA000812F0E9488074FEF62E070E0812F0E9432
:101BB0008807B601CD2889F4809100019091010138
:101BC00001968115F0EC9F0798F1909301018093A5
:101BD00000016091000170910101812F0E94730743
:101BE00061E070E0812F0E940C0B27E02E9DC00168
:101BF0002F9D900D11249C01225B3B4F7901F9012F
:101C00001182108222E030E0AE014B5F5F4F68E24C
:101C100070E0812F0E94510C8D819E819827892729
:101C20009827F7019383828316821582148298CFB6
:101C300080E090ECCACFCF92DF92EF92FF921F9399
:101C4000CF93DF93EC017B016A018C85843048F4EB
:101C50000E94410B882319F08C850E941C0B84E0A4
:101C60008C87F70182819381A481B5810097A105BA
:101C7000B10551F490E080E0DF91CF911F91FF908A
:101C8000EF90DF90CF9008958F3F9F4FAF4FBF4FA2
:101C900089F380916A04811103C084E08C87EACFC4
:101CA00070E060E081E20E947A0D182F8C8784300A
:101CB00008F780E591E00E948D01A7014E5F5F4F1C
:101CC00024E030E06CE070E0812F0E944D07B60107
:101CD000812F0E945E0764E070E0812F0E940C0B50
:101CE0000E9403036B017C018C850E94410B8731AC
:101CF00009F18C31F9F0882309F4BCCF0E94030369
:101D0000AB01BC014C195D096E097F098D859E856B
:101D1000B0E0A0E084179507A607B70738F061E0A8
:101D200070E080E090E00E94D002DECF8C850E94BF
:101D3000280BB3CF81E090E09FCF0F931F93CF93F9
:101D4000DF93EC018B01888D843010F40E94280B06
:101D500080916A04811107C094E0988FDF91CF9140
:101D60001F910F910895B80182E00E947A0D888F2B
:101D7000843030F41D870C871A8E198E81E0EECFE7
:101D800080E0ECCF7F928F929F92AF92BF92CF92E2
:101D9000DF92EF92FF920F931F93CF93DF9300D0C8
:101DA000CDB7DEB7782E8B014A01590122E030E031
:101DB000AE014F5F5F4F64E270E00E94510CE9801A
:101DC000FA80FE24EF24FE24E00EF11E9701377006
:101DD00040916A04072D10E0433309F042C0085FC8
:101DE0001F4F102F0027110F110F110FC901800F66
:101DF000911F4733C9F1A9014A0D5B1D413058407D
:101E000098F160E078E06B01C21AD30AA601B40130
:101E10000E947C06A5014C195D09B4016C0D7D1D65
:101E2000C8010E947C06EA0CFB1CF982EA8222E0CF
:101E300030E0AE014F5F5F4F64E270E0872D0E949B
:101E40004D070F900F90DF91CF911F910F91FF9051
:101E5000EF90DF90CF90BF90AF909F908F907F904A
:101E60000895005F1F4FBDCFA501B401DACFEF92F7
:101E7000FF921F93CF93DF9300D0CDB7DEB7182F1B
:101E800022E030E0AE014F5F5F4F60E270E00E9401
:101E9000510CE980FA80FE24EF24FE2422E030E099
:101EA000AE014F5F5F4F60E270E0812F0E94510CE6
:101EB00089819A81982789279827E816F90689F455
:101EC00087E0189FF0011124E25BFB4FF582E4826A
:101ED000C7010F900F90DF91CF911F91FF90EF906E
:101EE00008957C01DBCF1F93CF93DF93182F80E5FC
:101EF00091E00E948D01812F0E94370FEC0163E079
:101F000070E0812F0E94EF0A873121F08C3111F0AF
:101F1000D0E0C0E0CE01DF91CF911F910895CF9323
:101F2000DF93EC018C85843060F40E94410B873193
:101F300011F08C3131F48C850E94730F811598401B
:101F400088F3DF91CF910895FC018485843010F4EB
:101F50000C94730F90E080E008959F92AF92BF922F
:101F6000CF92DF92EF92FF920F931F93CF93DF9365
:101F70008C015B01942EE52EFC01C688D788F08C7D
:101F800080E591E00E948D018F2D0E94370FC92DB1
:101F9000DE2D8C179D0708F4EC019E01A501B6010A
:101FA0008F2D0E94C20EF801868997898C0F9D1F84
:101FB000978B868BCE01DF91CF911F910F91FF9070
:101FC000EF90DF90CF90BF90AF909F9008958F9249
:101FD0009F92AF92BF92CF92DF92EF92FF920F93B8
:101FE0001F93CF936C015B018A01FC01C485C4304F
:101FF000F0F57A014130584018F0E12C88E0F82ED5
:1020000080E591E00E948D018C2F0E94370F4C01DA
:1020100063E070E08C2F0E94EF0A873111F08C3161
:1020200049F58E149F0460F380E591E00E948D01D4
:102030009701A50170E060E08C2F0E94C20E60E263
:1020400070E08C2F0E940C0B62E070E08C2F0E94DD
:10205000EF0A84FD17C063E070E08C2F0E94EF0A46
:1020600081110BC081E090E0F6019383828310E040
:1020700000E010C0F12CE12CD7CF80E591E00E9468
:102080008D01E2CF40E162E070E08C2F0E94880772
:10209000EF2841F3C801CF911F910F91FF90EF906E
:1020A000DF90CF90BF90AF909F908F900895FF9258
:1020B0000F931F93CF93DF9300D0CDB7DEB7F82EE9
:1020C00022E030E0AE014F5F5F4F66E270E00E94B9
:1020D000510C09811A8110270127102722E030E0D6
:1020E000AE014F5F5F4F66E270E08F2D0E94510C92
:1020F00089819A819827892798270817190749F411
:10210000C8010F900F90DF91CF911F910F91FF9019
:1021100008958C01E3CF1F93CF93DF93182F87E0AF
:10212000189FE0011124C25BDB4F888199810097E1
:1021300061F480E591E00E948D01812F0E9457108B
:102140002E81821B910999838883DF91CF911F9102
:102150000895FC018485843010F40C948B1090E079
:1021600080E008954F925F927F928F929F92AF92FC
:10217000BF92CF92DF92EF92FF920F931F93CF9374
:10218000DF9300D0CDB7DEB7782E6B014A01A82EC1
:10219000B12C27E0829FC0011124FC01E25BFB4FC0
:1021A0007F010081118180E591E00E948D01081579
:1021B000190554F4872D0E945710F70126818C01D0
:1021C000021B1109118300830115110529F563E034
:1021D00070E0872D0E94EF0A843159F0882349F07E
:1021E00001E010E08C3111F410E000E01195019550
:1021F0001109C8010F900F90DF91CF911F910F919E
:10220000FF90EF90DF90CF90BF90AF909F908F9016
:102210007F905F904F900895801691060CF4840192
:1022200087E08A9DF0018B9DF00D1124E25BFB4F4E
:10223000E280F380C114D10451F12701F7E05F225D
:10224000872D0E943F07840D951D20916A04273336
:1022500009F453C09801240D351D2130384008F48D
:102260004CC020E038E0490184189508A401B6016B
:102270000E94640A2601480C591C6801C818D90834
:10228000872D0E943F07A601B2010E94640AE00E5A
:10229000F11E87E08A9DF0018B9DF00D1124E25B19
:1022A000FB4FF382E28220813181201B310B31838D
:1022B00020838681800F912F911D8A3F910510F414
:1022C000232BF1F487E08A9DF0018B9DF00D112402
:1022D000E25BFB4F1682F982EA8222E030E0AE0137
:1022E0004F5F5F4F68E270E0872D0E944D0760E40A
:1022F00070E0872D0E940C0B7CCFA801B601C5CFE2
:10230000868377CFCF93DF93FC01218D328D21150A
:10231000310529F48FEF9FEFDF91CF910895EC0104
:10232000808D4217530708F0A9010E94B2101816B9
:10233000190684F7298D3A8D281B390B3A8F298F7E
:10234000EBCF0F931F93CF93DF931F92CDB7DEB7E1
:10235000FC01218D328D232B41F48FEF9FEF0F90E5
:10236000DF91CF911F910F9108958C0141E050E0D2
:10237000BE016F5F7F4FFC01808D0E94B210181666
:1023800019065CF7F801818D928D0197928F818FEC
:10239000898190E0E4CFCF93DF931F92CDB7DEB772
:1023A00041E050E0BE016F5F7F4FFC0184850E94D9
:1023B000B2101816190634F4898190E00F90DF915D
:1023C000CF9108958FEF9FEFF9CFFC018485843082
:1023D00010F40C94B21090E080E008950F931F93D6
:1023E000CF93DF9300D0CDB7DEB7FC012485243036
:1023F000E0F48C0180E591E00E948D0122E030E064
:10240000AE014F5F5F4F60E170E0F80184850E948C
:10241000510C89819A819827892798270F900F90CE
:10242000DF91CF911F910F91089590E080E0F6CF5A
:102430000F931F93CF93DF9300D0CDB7DEB7FC018E
:1024400024852430E0F48C0180E591E00E948D0128
:1024500022E030E0AE014F5F5F4F64E070E0F801D2
:1024600084850E94510C89819A8198278927982711
:102470000F900F90DF91CF911F910F91089590E0F1
:1024800080E0F6CFDC018AEA91E08D939D9384E0B1
:10249000FB0101900D928A95E1F70895EF92FF926A
:1024A0000F931F93CF93DF9300D000D0CDB7DEB74B
:1024B0008C017B01FB0184858430A8F08AEA91E0DD
:1024C000F801918380831282138214821582C801DD
:1024D0000F900F900F900F90DF91CF911F910F9160
:1024E000FF90EF90089580E591E00E948D0124E037
:1024F00030E0AE014F5F5F4F6CE070E0F701848524
:102500000E94510CBE016F5F7F4FC8010E944212B2
:10251000DECF0F931F93CF93DF93CDB7DEB728970E
:102520000FB6F894DEBF0FBECDBF8C01D80159960F
:102530004D915C915A974115510551F0ED91FC91E7
:10254000048CF58DE02D70E060E0C8010995EECFB8
:10255000F801808D0E948B10892BB1F148E050E08A
:10256000BE016F5F7F4FD80158968C910E94B210C8
:1025700018161906F4F4D801509684E0FE0131963D
:1025800001900D928A95E1F78D8190E0982F882730
:102590002E81820F911DF801958B848B8F81282FBE
:1025A00030E0322F22278885820F932F911D928F42
:1025B000818F28960FB6F894DEBF0FBECDBFDF9196
:1025C000CF911F910F91089590E080E0F2CF4F924C
:1025D0005F926F927F928F929F92AF92BF92CF92B3
:1025E000DF92EF92FF920F931F93CF93DF93CDB7BC
:1025F000DEB763970FB6F894DEBF0FBECDBF7C0188
:102600006B013A01FB0120E090E080E06AE031914B
:10261000332309F461C040ED430F4A3008F04DC048
:10262000689FA001699F500D1124CA01C097830FB4
:10263000911D37FD9A958F3F910549F340F3F701BE
:10264000428153816481758180914005909141055B
:10265000A0914205B0914305481759076A077B07C7
:1026600009F40DC28701085F1F4F0E9403036F70BA
:1026700077277C5FC8010E949D0E813009F004C25B
:102680008AEA91E09A838983F70182819381A48108
:10269000B5818B839C83AD83BE8345E350E0BE014F
:1026A0006F5F7F4FC8010E94DD07892BA9F5D12CF0
:1026B000C12CC8010E94340B17C03E3209F0BFCFB5
:1026C000233009F4BCCFD301A20FB11D12968C9315
:1026D0002F5F90E080E09BCF233009F0B0CFF30173
:1026E0008583CC24C394D12CC60163960FB6F8948D
:1026F000DEBF0FBECDBFDF91CF911F910F91FF9035
:10270000EF90DF90CF90BF90AF909F908F907F9091
:102710006F905F904F9008950E940303F7017783B5
:10272000668342E050E0B7016A5F7F4FC8010E94B4
:10273000AD0F81E090E09A83898342E050E0BE01D2
:102740006F5F7F4FC8010E94AD0F80E091E09A83D8
:10275000898342E050E0BE016F5F7F4FC8010E9455
:10276000AD0F1A82198242E050E0BE016F5F7F4FC9
:10277000C8010E94AD0F42E050E0BE016F5F7F4F85
:10278000C8010E94AD0F42E050E0BE016F5F7F4F75
:10279000C8010E94AD0F5601F6018081882301F126
:1027A0006501F60181912F01882311F08E32B1F479
:1027B00046018A189B081814190474F48D8641E0A8
:1027C00050E0BE01635F7F4FC8010E94AD0FA401BE
:1027D000B501C8010E94AD0F5201DECF6201E1CF09
:1027E0001D8641E050E0BE01635F7F4FC8010E943B
:1027F000AD0FC12CDD24D394DA82C98242E050E0CF
:10280000BE016F5F7F4FC8010E94AD0FDA82C9829F
:1028100042E050E0BE016F5F7F4FC8010E94AD0FE4
:10282000C8010E94A80B892B09F441CFF3E0AF2E19
:10283000B12C230122E0420E511CD4C0F701428189
:10284000538164817581808D918DA28DB38D4817E0
:1028500059076A077B0709F008C1848D958DC597D4
:1028600009F003C181A192A15DEFC52EDD24DA94A8
:102870000C970CF4ADC04CE050E0BE016F5F7F4F91
:10288000C8010E9482118B819C81982789279827F3
:102890009A8B898BF7014681578129813A814217AA
:1028A000530709F0E7C097FFE5C08F7092703BEFC8
:1028B000C32EDD24DA94892B09F08AC06F807884D6
:1028C0007624672476242AEFC22EDD24DA9461145C
:1028D000710409F47DC0D12CC12C8D819E81982773
:1028E00089279827C816D906F8F441E050E0BE01C0
:1028F000635F7F4FC8010E9482114D85442331F0F0
:1029000050E070E060E0C8010E9482118D85811165
:10291000ECCF44E050E070E060E0C8010E9482111A
:10292000FFEFCF1ADF0AD9CF912C812C41E050E084
:10293000BE016D5E7F4FC8010E9482114B89842FBA
:10294000807C09F06CC0442331F050E070E060E01E
:10295000C8010E9482118B898111E8CF42E050E0CA
:10296000BE01615F7F4FC8010E94821142E050E0CA
:10297000BE01635F7F4FC8010E94821144E050E0B6
:1029800070E060E0C8010E94821142E050E0BE01A8
:102990006F5E7F4FC8010E9482118F859889498997
:1029A0005A898115914009F043C0CD84DE84DC242E
:1029B000CD24DC2481E0C816D104D1F54115544062
:1029C00009F04AC044E050E0B201C8010E948211FF
:1029D00021E0A21AB10809F46CCEFFEFCF16DF0692
:1029E00009F067CE0E9403033B014C01C8010E941D
:1029F0008912181619060CF421CF0E9403036619D8
:102A0000770988099909693873418105910548F565
:102A100062E370E080E090E00E94D002E7CF41E006
:102A200050E070E060E0C8010E9482111B8A93CFE1
:102A300054274527542770E060E0C8010E948211A6
:102A4000FFEF8F1A9F0A6814790409F06FCF96EF91
:102A5000C92EDD24DA94BCCFE7EFCE2EDD24DA9444
:102A6000B7CFCC24CA94DC2CB3CF6EEFC62EDD24B6
:102A7000DA94AECF4CEFC42EDD24DA94A9CF8EEFDA
:102A8000C82EDD24DA9430CED12CC12C2DCECF929D
:102A9000DF92EF92FF920F931F93CF93DF93CDB707
:102AA000DEB7AF970FB6F894DEBF0FBECDBF7C0187
:102AB0006A010AEA11E01A8309831C861B8688EEE4
:102AC00093E0A0E0B0E08D879E87AF87B88B8EE162
:102AD00091E09A878987188F0F8B198E1A8E1B8E1B
:102AE0001C8E84E089A31BA70AA71CA61DA61EA6F0
:102AF0001FA68091340590913505A0913605B091BF
:102B000037058EA39FA3A8A7B9A78B839C83AD830A
:102B1000BE8318861F82AE01465D5F4FCE010196CF
:102B20000E94E71281309105B1F4D701ED91FC913B
:102B30000488F589E02D1DA30CA38CA59DA5AEA549
:102B4000BFA58EA39FA3A8A7B9A7A601BE016C5DD0
:102B50007F4FC7010995AF960FB6F894DEBF0FBE41
:102B6000CDBFDF91CF911F910F91FF90EF90DF903C
:102B7000CF900895CF92DF92EF92FF920F931F9321
:102B8000CF93DF93CDB7DEB7AF970FB6F894DEBF24
:102B90000FBECDBF8C016B017A018AEA91E09A8366
:102BA00089831B821C821D821E821C861B8648EE26
:102BB00053E060E070E04D875E876F87788B2EE191
:102BC00031E03A872987988F8F8B198E1A8E1B8E4A
:102BD0001C8E24E029A39BA78AA71CA61DA61EA6BF
:102BE0001FA6D8011C968C91843060F40E94410B82
:102BF000882321F0F80184850E941C0B84E0D80111
:102C00001C968C938091340590913505A0913605E2
:102C1000B09137058EA39FA3A8A7B9A78B839C83E8
:102C2000AD83BE8318861F82AE01465D5F4FB6013D
:102C3000CE0101960E94E7120097C1F0D801ED91F4
:102C4000FC910684F785E02D8AEA91E09DA38CA390
:102C50008CA59DA5AEA5BFA58EA39FA3A8A7B9A728
:102C6000A701BE016C5D7F4FC8010995AF960FB6F5
:102C7000F894DEBF0FBECDBFDF91CF911F910F91B2
:102C8000FF90EF90DF90CF9008957F928F929F9268
:102C9000AF92BF92CF92DF92EF92FF920F931F936A
:102CA000CF93DF93CDB7DEB7A6970FB6F894DEBF0C
:102CB0000FBECDBF8C01762E942E852E20E2A22E43
:102CC000CE0101967C01DC01EA2D1D92EA95E9F71F
:102CD0006801F3E4CF0ED11C8AEA91E09AA389A39C
:102CE0008FEF8BA38CA38DA38EA343E450E0BE0192
:102CF0006F5D7F4FC6010E94DD07019609F4BFC0DA
:102D000081E089838A8386E0B82EBB821C82D80149
:102D100014966D917D918D919C9117970E94E73249
:102D20006D837E838F83988789869A8680E890E07A
:102D30009C878B874CE150E0B701C6010E94AD0F24
:102D4000FE0137968AE1DF011D928A95E9F7480175
:102D5000B8E08B0E911CF401D70101900D92BA944A
:102D6000E1F740E150E0B701C6010E94AD0FF70165
:102D70001192AA94E9F796E0A92EB12C40E250E016
:102D8000B701C6010E94AD0FF1E0AF1AB108B1F76B
:102D900083E6898392E89A8393E59B838C8385E31A
:102DA0008D8381E08E837F829DE3988797E099876A
:102DB0008A8786E0F401DE011B9601900D928A95C8
:102DC000E1F78CE0898B8A8B6CEF71E0CE01439642
:102DD0000E94D733D8011B966C91CE0149960E9470
:102DE0009001F8016485CE014B960E949001D801B4
:102DF0001D966C91CE014D960E9490014EE150E0DF
:102E0000B701C6010E94AD0FB3E07B121EC082E382
:102E1000898384E08A83F80196859B8397859C83C8
:102E200090899D8391899E8396E39F838887828D75
:102E30008987838D8A87848D8B87858D8C874CE0ED
:102E400050E0B701C6010E94AD0F87E3898386E099
:102E50008A8391E09B8393E09C838D838FE08E83B4
:102E60008AE38F838BE388878FEF898749E050E07F
:102E7000B701C6010E94AD0FC6010E94A80BA6961D
:102E80000FB6F894DEBF0FBECDBFDF91CF911F917B
:102E90000F91FF90EF90DF90CF90BF90AF909F90F9
:102EA0008F907F9008950F931F93CF93DF93EC0142
:102EB000FB0101900020E9F78F01061B170B8A81A7
:102EC0009B81A801480F591F2C813D81241735078C
:102ED00068F028813981A801820F931F0E94BE33B8
:102EE0004A815B81400F511F5B834A83DF91CF9101
:102EF0001F910F9108950F931F93CF93DF93EC01D0
:102F000088819981009759F02A813B8126173707DC
:102F100030F081E0DF91CF911F910F9108958B01E7
:102F20006F5F7F4F0E94F432009759F09983888336
:102F30001B830A832C813D81232B59F7FC011082CE
:102F4000E8CF80E0E7CF85ED8093BC008091A503BA
:102F50009091A603A091A703B091A8030796A11D85
:102F6000B11D23E0B695A795979587952A95D1F73A
:102F70002091BC0024FD03C01092A303089540914A
:102F8000A5035091A6036091A7037091A803452B58
:102F9000462B472B69F30097A105B10541F02AE2C2
:102FA0002A95F1F700C00197A109B109E1CF8091FD
:102FB000A4030C94B9043F924F925F926F927F9258
:102FC0008F929F92AF92BF92CF92DF92EF92FF9239
:102FD0000F931F93CF93DF93CDB7DEB7EA970FB66A
:102FE000F894DEBF0FBECDBF7C012A013B01690111
:102FF0000E9403034B015C0187010D5B1F4FC80159
:103000000E948912181619069CF00E940303681981
:1030100079098A099B09461657066806790608F455
:1030200066C162E370E080E090E00E94D002E7CFEA
:1030300042E250E0BE016F5F7F4FC8010E948211E3
:1030400089818230D1F0312C832DEA960FB6F89425
:10305000DEBF0FBECDBFDF91CF911F910F91FF90CB
:10306000EF90DF90CF90BF90AF909F908F907F9028
:103070006F905F904F903F900895F80184899589F3
:103080008334910501F76D817E818F8198850E943F
:10309000E7324B015C01F60180829182A282B38209
:1030A00046E050E0B701685F7F4FCE014D960E9429
:1030B000B133892B41F6F70180819181A281B381DF
:1030C00088169906AA06BB0608F4BDCF84819581AF
:1030D000A681B78188159905AA05BB0508F4B3CF69
:1030E00089899A89AB89BC8986879787A08BB18BA0
:1030F0004EEC50E070E060E0C8010E948211312C7B
:10310000C701829698AB8FA7F701B696FAABE9ABE9
:1031100008969CAB8BAB67019AE1C90ED11CBD969A
:10312000FEABEDABC701429698AF8FABFD97FAAF00
:10313000E9AF4701FEE18F0E911CF801818D928D60
:10314000181619060CF080CFC8010E94A111833314
:10315000910509F4B2C014F58130910509F464C0F9
:1031600044F4892B51F3C8010E94A111AC015527E9
:1031700075C08330910509F462C00697A1F7C801B4
:103180000E94A111B82E44E050E0B401C8010E9491
:103190008211EB2DE450FF0BAF0160C08A33910523
:1031A00009F45FC084F585339105B1F1C697D9F66E
:1031B000C8010E94A1115C01B601CE0189960E944E
:1031C00042128BA59CA5ADA5BEA5892B8A2B8B2B66
:1031D000B1F0EDA9FEA94080518062807380B601F4
:1031E000CE0183960E9442128DA19EA1AFA1B8A5E7
:1031F000A501481659066A067B0609F0B8CF44E0D7
:1032000050E0B60118C08B33910509F440C08F3FE0
:10321000910509F492CFA7CFC8010E94A111C8015E
:103220000E94A111382E89CFC8010E94A11144E04B
:1032300050E06FA978ADC8010E9482117ECFC8010D
:103240000E94A111B82E44E050E069AD7AADC801EA
:103250000E9482118B2D8450990BAC0170E060E0CC
:10326000EACFC8010E94A11144E050E069A97AA9FF
:10327000C8010E948211F70166A177A180A591A5DE
:103280000E94E73266A377A380A791A756CFC80113
:103290000E94A11144E050E06BA97CA9C8010E94E2
:1032A0008211F70162A573A584A595A50E94E73256
:1032B00062A773A784A795A740CFC8010E94A11158
:1032C00044E050E06FA578A9C8010E948211F7017F
:1032D00062A173A184A195A10E94E73262A373A3A6
:1032E00084A395A366A777A780AB91AB26CF3324A1
:1032F0003A94AACE0F931F93CF93DF93CDB7DEB747
:1033000062970FB6F894DEBF0FBECDBF8C01CB0124
:103310004AE0BE016F5F7F4F0E941E2EBE016F5FAD
:103320007F4FC8010E94531762960FB6F894DEBF14
:103330000FBECDBFDF91CF911F910F9108953F92A6
:103340004F925F926F927F928F929F92AF92BF92B5
:10335000CF92DF92EF92FF920F931F93CF93DF9361
:10336000CDB7DEB7A1970FB6F894DEBF0FBECDBFC5
:103370005C010DB71EB719A308A360E070E0CB0194
:103380000E94D002D50157968D919C915897912C0F
:10339000029709F495C056968C9156978F5F569672
:1033A0008C93569754962D913C91232B19F0992488
:1033B00093947FC08330D8F7F501808191810E947A
:1033C0008508882309F43CC38E010F5F1F4F380125
:1033D000D501ED91FC9180819181DC01ED91FC9111
:1033E0000084F185E02D0995181619060CF028C304
:1033F000D501ED91FC9145E050E0BE01695E7F4F43
:10340000808191810E941203009711F3059709F0C2
:103410004AC0888D998D982789279827998F888FFA
:10342000EA8CFB8CFE24EF24FE24FB8EEA8E892B93
:10343000D1F18F89811169C00E940303F501668370
:103440007783808791872789308D4A8D5B8D232BE9
:1034500009F056C0288D398D2130310509F050C052
:1034600049305105E1F0483C510519F0443051050F
:10347000D1F4D5011E966D937D938D939C935197B6
:10348000E1E0F0E05896FC93EE935797C5010E9457
:10349000B52260E070E0CB010E94D00299CF83E0BA
:1034A00090E0908F878BD5018D919C910E94980818
:1034B000912CD50156968C915697815056968C93A7
:1034C000892DE8A1F9A10FB6F894FEBF0FBEEDBF9C
:1034D000A1960FB6F894DEBF0FBECDBFDF91CF919E
:1034E0001F910F91FF90EF90DF90CF90BF90AF9022
:1034F0009F908F907F906F905F904F903F90089536
:103500004530510509F064CFCECFF501808191811E
:10351000F1E0EF16FF0640F0D50158961C921E927E
:1035200057970E94980854CF8DB69EB697012F5F8B
:103530003F4FEDB7FEB7E21BF30B0FB6F894FEBF9B
:103540000FBEEDBF0DB71EB70F5F1F4FA701B8012C
:10355000DC018D919C910E9412038E159F0509F04C
:103560006AC0EA8DFB8DE00FF11F10820E940303F9
:10357000F50166837783808791878F89813109F48C
:103580004AC258F58630D1F08F3009F4AEC082308F
:1035900051F5D50157968D919C915897892B71F4CF
:1035A000E1E0F0E05896FC93EE935797C5010E9436
:1035B000B52260E070E0CB010E94D002488D598DA9
:1035C000D12CC12CF12CE12C08EC10E030E020E0F3
:1035D00060E0C5010E941A1E12C08D31D1F258F46C
:1035E000843109F482C0F501108E178A808191819F
:1035F0000E94980804C0893241F08733A1F70FB6C2
:10360000F8949EBE0FBE8DBEE3CE84819581892B3A
:1036100039F480E490E00E94072CF50195838483BF
:10362000EA8CFB8CE00EF11E1A830983FC82EB828C
:103630000E151F0530F00FB6F8949EBE0FBE8DBE5E
:1036400032CF40E450E0B801D50114968D919C91A1
:103650000E94DE33D5011496ED91FC9117AEC301A3
:103660000E949322FC018081918100E510E08E157B
:103670009F0560F489819A81009799F12B813C81A3
:103680008217930770F50E94EE2D8B01D5018D9165
:103690009C910E949808D501ED91FC911197149688
:1036A0008D919C91159791878087138702875896F3
:1036B0001C921E9257970E940303DC01CB0188588D
:1036C0009341A109B109F50182879387A487B58742
:1036D00086839783A087B18786879787A08BB18BD6
:1036E0008ECF60E070E0CB01D0CF888D998DD50171
:1036F00055969C938E9354974A8C5B8C6801C40CAE
:10370000D51C1D8F0C8FDF8ECE8E0C151D0508F07D
:1037100013C1F801E080F180CE014C960E94932203
:10372000DC018D919C918C159D0508F005C18C8D57
:103730009D8DFC012081213459F401960E94D02DE9
:103740004EE0342E380E069744F033243A9405C0E8
:10375000CE014C960E94A622382EF6E7EF16F2E72D
:10376000FF0609F406C138F531E6E31632E7F30641
:1037700009F4E6C044E6E41642E7F40609F478C02A
:1037800050E7E5165DE6F50609F037C18C8D9D8D95
:103790008C159D0508F0D0C0FC0120812134A9F5CD
:1037A00001960E94D02D3EE0F32EF80E069794F17C
:1037B000FF24FA942FC084E6E81687E7F80609F498
:1037C000A2C096E7E91697E7F90609F4E9C0A1E671
:1037D000EA16A7E7FA0609F010C1CE014C960E943E
:1037E0009322DC018D919C918C159D0508F0A4C05D
:1037F00061E0832D0E94FD01CE014C960E94A6221D
:10380000BC01832D0E94390297C0CE014C960E94C4
:10381000A622F82ECE014C960E9493220C8D1D8D6F
:1038200063E072E0C8010E94CE3360E0892B79F03A
:1038300066E072E0C8010E94CE33892B39F06AE05D
:1038400072E0C8010E94CE33892B49F461E08F2DCC
:103850000E94FD01CE014C960E94932297CF6EE00C
:1038600072E0C8010E94CE33892BA1F762E0EFCF4E
:103870007A8A698A1C8A1B8A00E110E01E8B0D8BF4
:1038800061E172E0CE0141960E945317032D10E0D2
:10389000B801CE0141960E947A19F801E55DFD4F0D
:1038A0008491F801E95EFD4FF4900D5F1D4FF80122
:1038B000049160E070E0002389F081110E94A6016C
:1038C000E02FF0E0EE0FFF1FE750FE4FA591B491FF
:1038D000EC91FE2261E070E009F460E0CE014196D7
:1038E0000E947A190B891C890150110929893A898A
:1038F000D12CC12CF12CE12C50E040E064E1C50159
:103900000E941A1E19C0CE014C960E949322DC011F
:103910008D919C918C159D0578F461E0832D0E941A
:10392000FD01CE014C960E94A62261E0892B09F48C
:1039300060E0832D0E94CF01F501158A148A5FCEC5
:103940007A8A698A1C8A1B8AE0E1F0E0FE8BED8BA3
:1039500064E172E0CE0141960E945317632D70E03E
:10396000CE0141960E947A19832D0E949602BC01D5
:10397000B5CF3982BFE1B315F8F2E32DF0E0EE0FD9
:10398000FF1FE15CFD4F2591349121153105A1F216
:10399000E1E02C383E0781F2C301F9010995CCCF53
:1039A000CE014C960E9493228C8D9D8D9C01201BF4
:1039B000310B421A530A9A8389835C824B825E825E
:1039C0004D82398AFFE1F31508F4B6CFE32DF0E01C
:1039D000EE0FFF1FE158FD4F259134912115310560
:1039E00009F4AACF01E02B38300709F4A5CFB301C1
:1039F000CE014196F90109959FCFD50154964D917D
:103A00005C91D12CC12CF12CE12C02E010E030E0D3
:103A100020E060E074CF8A8D9B8D800F911F1A8308
:103A200009839C838B830817190708F0E8CDC3012D
:103A30000E949322D50155961C921E925497DFCD79
:103A40000E9403032B013C01F501808191810E94BA
:103A50008508D50157962D913C912130310509F00B
:103A60005EC0F501811109C046865786608A718A59
:103A7000108E178A8081918119CD86819781A085CA
:103A8000B18593018201081B190B2A0B3B0BD9014D
:103A9000C801893116EF9107A105B10548F7893CA6
:103AA0009F4AA105B10590F482859385A485B585CB
:103AB00093018201081B190B2A0B3B0BD901C8018A
:103AC000893C9F4AA105B10508F471CCF5018685B2
:103AD0009785A089B18993018201081B190B2A0BD4
:103AE0003B0BD901C80181379741A105B10508F405
:103AF0005ECCD12CC12CF12CE12C10E000E030E0A8
:103B000020E050E040E066E0C5010E941A1ED501A9
:103B10001E964D925D926D927C92519748CC232BCC
:103B200009F045CCF5014685578560897189930177
:103B30008201041B150B260B370BB901A801882342
:103B400081F0413757416105710508F430CC80811F
:103B500091810E949808D50158961C921E92579701
:103B6000A7CC493853416105710508F420CC808108
:103B700091810E949808D5010D911C91F8016085F2
:103B800071858081918142855385DC01ED91FC91A5
:103B90006115710599F00088F189E02D099521E002
:103BA000019709F020E0F8012487948491101CC04B
:103BB000F50146865786608A718A7BCC0684F78534
:103BC000E02D2AEA31E03A832983D8011496CD907A
:103BD000DD90ED90FC901797CB82DC82ED82FE8227
:103BE000BE016F5F7F4FDACF81E090E0D501539641
:103BF0009C938E93529712962D913C91F9010190CE
:103C00000020E9F731978F01021B130BD12CC12C37
:103C1000F12CE12C41E050E06DE1C5010E941A1E3B
:103C2000F50182859385A485B58586879787A08BC6
:103C3000B18B3FCC2F923F924F925F926F927F92C7
:103C40008F929F92AF92BF92CF92DF92EF92FF92AC
:103C50000F931F93CF93DF9300D000D000D0CDB748
:103C6000DEB75C016E834A013901DC018D919C91C4
:103C70000E948508882309F4D3C08E818D7F09F4C2
:103C800001C1BE81B63009F4FDC0BD3109F4FAC0EE
:103C9000F5018789908D019709F0C2C081149104C4
:103CA000B9F4D50154968D909C9055978114910448
:103CB00079F452968D919C915397019609F4C9C05D
:103CC00053969C938E935297D50152968D909C90CB
:103CD0008E818C50893090F5F50182859385A4857D
:103CE000B5854681578160857185481759076A07F0
:103CF0007B0710F4AC01BD011A012B01F2E42F0E79
:103D0000311C411C511C0E940303A2019101261B7E
:103D1000370B480B590BDA01C901B7FDA0C0C5012B
:103D20000E949F190E940303A2019101261B370BD9
:103D3000480B590BDA01C901B7FFF1CFC80105964D
:103D40006114710411F485E090E0512C412CE114D0
:103D5000F10409F02601480E591EBE81B98398244A
:103D6000892498249B828A82C8018C0D9D1D9827E6
:103D7000892798279D838C83D501ED91FC918081C3
:103D80009181DC01ED91FC910280F381E02D45E011
:103D900050E0BE016F5F7F4F09954C0160E070E01D
:103DA000CB010E94D002BE81BB2381F10115110518
:103DB000A9F0D501ED91FC9180819181DC01ED911B
:103DC000FC910280F381E02DA801B3010995880ED2
:103DD000991E60E070E0CB010E94D002C114D104B2
:103DE000A9F0D501ED91FC9180819181DC01ED91EB
:103DF000FC910280F381E02DA601B7010995880EA0
:103E0000991E60E070E0CB010E94D00284149504FA
:103E100079F1F501108E178A808191810E949808AE
:103E200026960FB6F894DEBF0FBECDBFDF91CF91BF
:103E30001F910F91FF90EF90DF90CF90BF90AF90C8
:103E40009F908F907F906F905F904F903F902F90BA
:103E5000089581E090E0F501938B828B35CFD501F9
:103E600056968C9181116ACFC5010E949F1966CF29
:103E70000E940303D5011A966D937D938D939C93B5
:103E80001D97CECF8114910409F058CF0ACFCF925D
:103E9000DF92EF92FF920F931F93CF93DF93CDB7F3
:103EA000DEB7C658D1090FB6F894DEBF0FBECDBF3E
:103EB0008C01CE010196CF57DF4F99838883C1587B
:103EC000D040CD57DF4F19821882C358D04080E8C8
:103ED00090E0CB57DF4F99838883C558D04069E283
:103EE00072E0CE018F579F4F0E94531766E070E03B
:103EF000CE018F579F4F0E947A19B801CE018F577C
:103F00009F4F0E945317CD57DF4F08811981C35827
:103F1000D04001501109CF57DF4F28813981C15856
:103F2000D040D12CC12CF12CE12C50E040E064E1D8
:103F300088EB96E00E941A1ECA57DF4F0FB6F8941E
:103F4000DEBF0FBECDBFDF91CF911F910F91FF90CC
:103F5000EF90DF90CF900895CF92DF92EF92FF9293
:103F60000F931F93CF93DF93CDB7DEB7C658D10918
:103F70000FB6F894DEBF0FBECDBF7C018B01CE0122
:103F80000196CF57DF4F99838883C158D040CD57D2
:103F9000DF4F19821882C358D04080E890E0CB5799
:103FA000DF4F99838883C558D04069E272E0CE0123
:103FB0008F579F4F0E945317B701CE018F579F4FC6
:103FC0000E947A19B801CE018F579F4F0E947A192B
:103FD000CD57DF4F08811981C358D04001501109D6
:103FE000CF57DF4F28813981C158D040D12CC12C07
:103FF000F12CE12C50E040E064E188EB96E00E9477
:104000001A1ECA57DF4F0FB6F894DEBF0FBECDBFE2
:10401000DF91CF911F910F91FF90EF90DF90CF90A4
:1040200008958F929F92AF92BF92CF92DF92EF92BC
:10403000FF920F931F93CF93DF93CDB7DEB7C75A8D
:10404000D1090FB6F894DEBF0FBECDBF0E9436086F
:104050006B017C01CE0101964C01CE55DF4F998357
:104060008883C25AD040CC55DF4F19821882C45A77
:10407000D04020E8A22EB12CCA55DF4FB982A882C9
:10408000C65AD04069E272E08F559F4F0E94531785
:1040900061E070E0CE018E559F4F0E947A198E012B
:1040A0000F571F4F23E045E0C701B6010E94E92BDF
:1040B000B801CE018E559F4F0E945317CC55DF4F4C
:1040C00008811981C45AD04001501109CE55DF4FE3
:1040D00028813981C25AD040D12CC12CF12CE12C3D
:1040E00050E040E064E188EB96E00E941A1E0E94D6
:1040F00062088C01CE55DF4F99828882C25AD04027
:10410000CC55DF4F19821882C45AD040CA55DF4FB0
:10411000B982A882C65AD04069E272E0CE018E55BB
:104120009F4F0E94531763E070E0CE018E559F4F62
:104130000E947A194AE0BE016F577F4FC8010E9462
:10414000462EBE016F577F4FCE018E559F4F0E9466
:104150005317CC55DF4F08811981C45AD040015004
:104160001109CE55DF4F28813981C25AD04050E025
:1041700040E064E188EB96E00E941A1EC955DF4FCB
:104180000FB6F894DEBF0FBECDBFDF91CF911F9168
:104190000F91FF90EF90DF90CF90BF90AF909F90E6
:1041A0008F9008951F920F920FB60F9211242F93A4
:1041B0003F938F939F93AF93BF93809146049091C9
:1041C0004704A0914804B09149043091450423E08C
:1041D000230F2D3758F50196A11DB11D20934504DD
:1041E0008093460490934704A0934804B0934904F5
:1041F00080914A0490914B04A0914C04B0914D04DD
:104200000196A11DB11D80934A0490934B04A09385
:104210004C04B0934D04BF91AF919F918F913F910A
:104220002F910F900FBE0F901F90189526E8230F27
:104230000296A11DB11DD2CF1F920F920FB60F9201
:1042400011242F933F934F935F936F937F938F939B
:104250009F93AF93BF93EF93FF938BE694E00E94FD
:10426000E003FF91EF91BF91AF919F918F917F916B
:104270006F915F914F913F912F910F900FBE0F90D3
:104280001F9018951F920F920FB60F9211242F9323
:104290008F939F93EF93FF93E0917B04F0917C04C5
:1042A0008081E0918104F091820482FD1BC09081A5
:1042B000809184048F5F8F7320918504821741F071
:1042C000E0918404F0E0E559FB4F958F80938404DE
:1042D000FF91EF919F918F912F910F900FBE0F90B3
:1042E0001F9018958081F4CF1F920F920FB60F92F6
:1042F00011242F933F934F935F936F937F938F93EB
:104300009F93AF93BF93EF93FF938091B900887F02
:10431000803609F44AC0F0F5883209F4A7C018F5D0
:10432000803109F49BC0B8F4882309F4F9C08830BF
:1043300009F494C0FF91EF91BF91AF919F918F913C
:104340007F916F915F914F913F912F910F900FBE91
:104350000F901F901895883109F488C0803251F76A
:104360008093A10314C0803409F49DC040F48033CD
:10437000B9F38833F9F68093A10385ECB0C080359A
:1043800009F485C0883509F496C0883499F60E94EE
:10439000A317D0CF883909F48CC038F5883729F0B5
:1043A00050F4883611F0803729F683E08093A30318
:1043B00010927C0357C0883809F47BC0803919F00B
:1043C000803809F0B7CF80917C03803208F071C04B
:1043D000E0917C0381E08E0F80937C038091BB0091
:1043E000F0E0E45AFC4F80833DC0803B39F0E0F4BC
:1043F000803A09F479C0883A09F09CCF84E0809330
:10440000A30310925B0310925A03E0913B04F091D6
:104410003C04099580915A0381110FC081E080937B
:104420005A0310923A0309C0803C09F4A6CF883C95
:1044300009F4A3CF883B09F07DCFE0915B0381E0D5
:104440008E0F80935B03F0E0E65CFC4F80818093ED
:10445000BB0090915B0380915A0329C080917E0339
:104460008093BB0085EC8093BC0064CF9091A00347
:1044700080919F03981758F5E091A00381E08E0F7B
:104480008093A003F0E0E158FC4F8081E9CFE091F8
:10449000A00381E08E0F8093A0038091BB00F0E029
:1044A000E158FC4F80839091A00380919F0398175F
:1044B000C8F285E8D8CFE091A00381E08E0F809309
:1044C000A0038091BB00F0E0E158FC4F8083809115
:1044D000A20381115CCF81E080937D0384EA809305
:1044E000BC001092A30326CF85EC8093BC001092F1
:1044F000A30380917C03803230F4E0917C03F0E0F0
:10450000E45AFC4F108260917C0370E0E091390422
:10451000F0913A048CE593E0099510927C030ACF60
:104520001092A10334CFDC01ED91FC9111973097EB
:1045300061F012962D913C911397E217F30728F43E
:1045400001900020E9F7ED93FC930895FC01808130
:104550009181009739F0228133818217930710F4FB
:104560000C94D02D90E080E00895AF92BF92CF924E
:10457000DF92EF92FF920F931F93CF93DF93CDB70C
:10458000DEB7CF5BD1090FB6F894DEBF0FBECDBF4B
:104590005C01CE0186589F4FC654DF4F99838883B4
:1045A000CA5BD040C454DF4F19821882CC5BD04024
:1045B00080E490E0C254DF4F99838883CE5BD04083
:1045C00067E172E0CE0186549F4F0E9453176CE161
:1045D00072E0CE0186549F4F0E94531749E750E086
:1045E0006AE671E0CE0101960E94152EC454DF4F99
:1045F000C880D980CC5BD040C654DF4FE880F980BA
:10460000CA5BD04009E710E09E012F5F3F4F50E0AA
:1046100040E061E1C5010E941A1EC154DF4F0FB690
:10462000F894DEBF0FBECDBFDF91CF911F910F91E8
:10463000FF90EF90DF90CF90BF90AF900895EBE6A2
:10464000F4E01382128288EE93E0A0E0B0E084836D
:104650009583A683B78328E431E03183208325EC5A
:1046600030E03587248724EC30E03787268720EC3C
:1046700030E0318B208B21EC30E0338B228B22EC2D
:1046800030E0358B248B26EC30E0378B268B118E77
:10469000128E138E148EE8E0F5E01382128284836A
:1046A0009583A683B7838AE591E091838083E4E1D3
:1046B000F5E08AEA91E0918380831282138214826A
:1046C0001582EAE1F5E091838083128213821482DD
:1046D0001582E0E2F5E091838083128213821482D6
:1046E0001582E6E2F5E091838083128213821482C0
:1046F0001582ECE2F5E091838083128213821482AA
:104700001582E8E3F5E0918380831282138214829C
:104710001582E2E3F5E09183808312821382148292
:104720001582EEE3F5E09183808312821382148276
:104730001582E4E4F5E0918380831282138214826F
:104740001582E3EFF6E09183808312821382148254
:104750001582E4EEF6E01382128228E731E031831D
:10476000208324E0248728EE33E036872587A7EDD1
:10477000B6E013969C938E93129714961D921D92F9
:104780001D921C92179719961C921E9218971B96B1
:104790001C921E921A971C961C921C971196FC93C1
:1047A000EE9340E757E160E070E044835583668311
:1047B0007783E8EBF6E0B183A0831382128215823F
:1047C000148216821782108611861286138614862A
:1047D000158616861786108A118A138A128A158AF8
:1047E000148A168A108E178A8FEF9FEF9093B70660
:1047F0008093B606EAE4F5E0138212828CE691E03B
:104800009183808387E2848380E1818782E082874D
:1048100013860895CF93DF93CDB7DEB7E3970FB636
:10482000F894DEBF0FBECDBF789484B5826084BD9E
:1048300084B5816084BD85B5826085BD85B58160A4
:1048400085BD80916E00816080936E001092810022
:1048500080918100826080938100809181008160DD
:10486000809381008091800081608093800080919E
:10487000B10084608093B1008091B000816080932A
:10488000B00080917A00846080937A0080917A00F1
:10489000826080937A0080917A00816080937A00B0
:1048A00080917A00806880937A001092C1008EEF28
:1048B0008093D1069DEE9093D2062AEB2093D306E7
:1048C0008093D4068093D5069093D606ACE2B2E0EE
:1048D000E1E0F0E09F012F5F3F4F4D91E854F94F29
:1048E000818D8427818FF9012630310514F0E1E0B4
:1048F000F0E022E0AC34B20769F780913104811115
:104900002AC0109219041092180488EE93E0A0E0D7
:10491000B0E080931A0490931B04A0931C04B093FE
:104920001D048EE191E090931704809316048AEAA7
:1049300091E0909325048093240410922604109211
:104940002704109228041092290484E080932E04F6
:1049500081E08093310483ED93E09093D2038093C0
:10496000D1038091D0038111ADC060E372E080E09B
:1049700090E00E94D002DFB6F8940DE012E0E1E290
:10498000EE2EE2E0FE2E8091CE03811125C0F801CB
:104990008491F7019491E82FF0E0EE0FFF1FEB51A7
:1049A000FE4FA591B4918C91982321F461E08AE0A7
:1049B0000E94CF0161E08AE00E94FD018CB5806118
:1049C0008CBD8CB580648CBD61E08DE00E94FD01E2
:1049D00061E08BE00E94FD018091CE038F5F8093A8
:1049E000CE03DFBEF8010491E02FF0E0EE0FFF1FD1
:1049F000E151FE4F859194919093CD038093CC0328
:104A0000F701E490E092CB0361E08AE00E94FD01AF
:104A10000E94600680E591E00E948D0184E380930E
:104A20006A0480E80E942C070E94EC0B882309F49A
:104A3000FDC188E00E942C070E94D90B883009F044
:104A4000F5C180E10E942C070E94D90B803109F04A
:104A5000EDC180E00E942C070E94D90B182F811114
:104A6000E5C141E050E0BE016F5F7F4F8FE190E014
:104A70000E94640A8981833009F0D8C180E4809360
:104A8000CF0342E06EE170E0812F0E94880742E090
:104A90006FE170E0812F0E9488071F5F143089F753
:104AA00040E06EE170E0812F0E94880740E06FE1F6
:104AB00070E0812F0E9488071F5F183089F781E01E
:104AC0008093D00380E591E00E948D0146E050E0A4
:104AD00061ED76E089E090E00E947C068AEA91E050
:104AE0009A8389831B821C821D821E8244E050E0CF
:104AF000BE016D5F7F4F8FE090E00E947C060091C9
:104B0000D1031091D203D80192961D921D921D924D
:104B10001C929597F80116A217A210A611A69A96B4
:104B20001D921D921D921C929D9780E69AEEA0E028
:104B3000B0E086AB97ABA0AFB1AF80EA9FE0A0E05A
:104B4000B0E082AF93AFA4AFB5AFD801189686E0BE
:104B5000FD01282F11922A95E9F79801225F3F4F16
:104B600094E1F90111929A95E9F7E1EDF6E00190EF
:104B70000D928A95E1F72C5C3F4F39AB28ABD901F8
:104B80001C920E94782D2FEC37E040E050E00E940C
:104B9000C631DC01CB010196A11DB11DF801848352
:104BA0009583A683B78380839183A283B3835801BF
:104BB000F3E4AF0EB11CC5010E94340B64E470E055
:104BC000C5010E949D0E882309F499C10E94030328
:104BD0002B013C0143E0242E58EEC52E53E0D52E88
:104BE000E12CF12C912C812CA8A9B9A98C918330AE
:104BF000B9F181118EC1F80184819581A681B781B7
:104C00000196A11DB11D84839583A683B7830E945D
:104C100003036419750986099709A70196010E9483
:104C20002F32A90161E0C8010E94451681E0A8A9C0
:104C3000B9A98C93F1E08F169104B1F20E9403039D
:104C40006419750986099709D801D6962D913D9169
:104C50004D915C91D997261737074807590710F6E9
:104C6000C5010E94340BF80184819581A681B7812A
:104C70000196A11DB11D84839583A683B7830E94ED
:104C80000303F801FE9660837183828393838A9481
:104C9000892809F034C180E591E00E948D010091DE
:104CA000D1031091D203B801625F7F4FCE0101960C
:104CB0000E94421244E050E0BE016D5F7F4F8FE0E2
:104CC00090E00E947C06B8016A5E7F4FCE0101969B
:104CD0000E94421244E050E0BE016D5F7F4F81E0D0
:104CE00090E00E947C06B8016E5E7F4FCE01019677
:104CF0000E94421244E050E0BE016D5F7F4F85E0AC
:104D000090E00E947C06B801625E7F4FCE01019662
:104D10000E9442128B819C81AD81BE8180933405BB
:104D200090933505A0933605B09337050E94AB02EA
:104D30007F7380910001909101016827792770931A
:104D400001016093000168EE73E080E090E00E9452
:104D5000D0028AEA91E09A8389831B821C821D8299
:104D60001E8280E591E00E948D0144E050E0BE018A
:104D70006D5F7F4F8FE090E00E94640A8CE292E0CA
:104D80009093BB068093BA060E940303DC01CB011B
:104D900088589341A109B1098093C2069093C30634
:104DA000A093C406B093C5068093BE069093BF0639
:104DB000A093C006B093C1068093C6069093C70621
:104DC000A093C806B093C906E091B806F091B90661
:104DD0008DE492E09187808780E590E093878287D9
:104DE0008091B8069091B9060E9498081092D0065A
:104DF0001092CF060E9403034B015C018091CF0605
:104E00009091D006019709F451C10E9403036819DB
:104E100079098A099B09603576448105910508F076
:104E200045C188EB96E00E949F19E8CF87E3809305
:104E30006A0480E80E942C070E94EC0B882329F169
:104E400088E00E942C070E94D90B8830F1F480E1A1
:104E50000E942C070E94D90B182F8031B1F480E0FA
:104E60000E942C070E94D90B81110FC041E050E035
:104E7000BE016F5F7F4F89E390E00E94640A8981E1
:104E8000843019F41093CF031ACE83E380936A041D
:104E900080E80E942C070E94EC0B882371F180E1CE
:104EA0000E942C070E94D90B803139F582E10E94C3
:104EB0002C070E94D90B823101F580E00E942C075B
:104EC0000E94D90B811119C084E08093CF0315E5AE
:104ED0001FA741E050E0BE01615D7F4F8BE190E094
:104EE0000E947C061EA741E050E0BE01625D7F4F3C
:104EF0008AE190E00E947C06E2CD10926A0460E1B3
:104F000077E280E090E00E94D002F0E0E0E00995D6
:104F1000FFCF843001F5F80184819581A681B781A6
:104F20000196A11DB11D84839583A683B7830E943A
:104F300003036419750986099709A70196010E9460
:104F40002F32A90163E0C8010E944516E2E0A8A93A
:104F5000B9A9EC936FCE813069F5D801DA964D91FD
:104F60005D916D917C91DD979E012F5F3F4FC80150
:104F70000E94DB17382EB2E08B1391C089819A8191
:104F8000AB81BC81F80184839583A683B7830E949B
:104F900003036419750986099709A70196010E9400
:104FA0002F32A90163E0C8010E944516A8A9B9A93A
:104FB0003C9240CE823009F03DCEF80142AD53AD77
:104FC00064AD75AD9E012F5F3F4FC8010E94DB1796
:104FD000382EF5E08F135CC0A8A9B9A92C92F8016E
:104FE00082A193A1A4A1B5A1892B8A2B8B2B41F47B
:104FF00084E893E0A0E0B0E082A393A3A4A3B5A3C8
:10500000F80186A197A1A0A5B1A5892B8A2B8B2B8E
:1050100061F482A193A1A4A1B5A1B695A795979596
:10502000879586A397A3A0A7B1A7F80182A593A50A
:10503000A4A5B5A5892B8A2B8B2BA9F482A193A1BA
:10504000A4A1B5A1AC01BD0123E076956795579564
:1050500047952A95D1F7841B950BA60BB70B82A712
:1050600093A7A4A7B5A7F80186A197A1A0A5B1A56C
:1050700086A797A7A0ABB1AB82A593A5A4A5B5A51C
:1050800082AB93ABA4ABB5AB88248394912CD2CDE7
:10509000F6E08F1304C0A8A9B9A91C92CBCDBFEF2D
:1050A0003B12C8CDE8A9F9A91082C4CD8091CF06E2
:1050B0009091D006019709F093CE1092400410927F
:1050C0003F0410923E0410923D040E949B048FE026
:1050D00093E090933C0480933B0480E193E09093B1
:1050E0003A048093390410924F0580915405823020
:1050F00018F098E090934F058093520562E370E0BA
:1051000080E090E00E94D002609155058AE495E02D
:105110000E945F0568EE73E080E090E00E94D0029C
:1051200060E38AE495E00E9473090BE416E4C80189
:105130000197F1F760E38AE495E00E947309C801E2
:105140000197F1F760E38AE495E00E94730983E533
:1051500092E00197F1F760E28AE495E00E9473091A
:1051600060914F05606240E08AE495E00E948C09FE
:1051700084E08093500540E06CE08AE495E00E9472
:105180008C0940E061E08AE495E00E948C090BE321
:105190001FE1C8010197F1F742E0F42EF0925105AA
:1051A00040E066E08AE495E00E948C0940E062E01D
:1051B0008AE495E00E948C09C8010197F1F788E024
:1051C0008093550560E08AE495E00E945F0540E029
:1051D00061E08AE495E00E948C09C8010197F1F72B
:1051E00040E062E08AE495E00E948C09C8010197E2
:1051F000F1F761E083E00E94FD0161E085E00E943B
:10520000FD0161E084E00E94FD0160E085E00E9414
:10521000CF0160E084E00E94CF0160E080E00E9466
:10522000A30989E592E00E941A0961E080E00E94EA
:10523000A3098CE592E00E941A09E0917B04F091A9
:105240007C04F082E0917704F09178041082E09180
:105250007904F0917A0487E6808310928304E091C8
:105260007F04F091800486E08083E0917D04F091DA
:105270007E04808180618083E0917D04F0917E04D2
:10528000808188608083E0917D04F0917E0480813C
:1052900080688083E0917D04F0917E0480818F7D21
:1052A00080838FEF90E00E944F048FEF90E00E9488
:1052B0004F048FEF90E00E944F048091B6069091CA
:1052C000B70697FF22C00E940303E6E5F5E050E031
:1052D00040E026E1249FD001259FB00D11248D01CF
:1052E0000A5A1A4FD801322F1D923A95E9F7608376
:1052F0007183828393834F5F5F4F76964031510570
:1053000049F71092B7061092B6068091B6069091B2
:10531000B7064097CCF5E6E5F5E090E080E0248123
:105320003581232B09F00CC226813781232B09F00C
:1053300007C226E1289F8001299F100D11240A5AD7
:105340001A4F84EF91E0A0E0B0E0F80183879487E2
:10535000A587B68781E190E2958384831286108ABF
:10536000178681E0838B0E940303D8016D937D93A0
:105370008D939C9313978091B6069091B7060196F2
:105380009093B7068093B606CC24CA9423E0D22E1D
:1053900022242394312C8FE00E949602B601681BD0
:1053A000790B769567957695679583E00E9439022B
:1053B00064E670E080E090E00E94D00260E082E06D
:1053C0000E94A30919A618A61BA61AA61DA61CA60C
:1053D00070E060E0CE0188960E947B1728A539A571
:1053E0008111B5C12115310519F0C9010E94A32C05
:1053F00019A618A61DA61CA61BA61AA60E9436084A
:105400001BA21AA21DA21CA21FA21EA28E010F5F28
:105410001F4F22E044E00E94E92B7C01009709F431
:10542000A5C1FC0101900020E9F731978F01081B0D
:10543000190BB801CE0182960E947B172AA13BA1CD
:1054400081118DC12115310519F0C9010E94A32CCC
:105450001BA21AA21FA21EA21DA21CA288A599A56A
:10546000009709F48BC16AA17BA16115710509F44C
:1054700083C14AA55BA52EA13FA14217530708F49B
:105480007BC10E94D7338EA19FA19DA78CA71FA28D
:105490001EA28AA19BA1009711F00E94A32C4CA5EB
:1054A0005DA568A579A58AE495E00E9462030E9443
:1054B00062088C01909344048093430461E082E08D
:1054C0000E94A309A80170E060E02AE08AE495E068
:1054D0000E94C1080E94360820E030E04CE052E40F
:1054E0000E94D232181604F5809141048823E1F01D
:1054F0001092410460E085E00E94CF0160E087E007
:105500000E94A3098FE592E00E941A0989E692E0C1
:105510000E94471F81E992E00E94471F70E060E00F
:1055200082E090E00E94AC1F80914304909144047B
:10553000803D9740F8F48091420481111BC00E9485
:105540005A0861E087E00E94A30980EC91E00E9484
:105550001A0981E08093420461E070E084E090E009
:105560000E94AC1F89EA92E00E94471F89EC92E0FA
:105570000E94471F8091430490914404883B9B40C4
:10558000F1F4809142048823D1F00E94520861E036
:1055900087E00E94A3098AEC91E00E941A09109208
:1055A000420470E060E084E090E00E94AC1F85EE71
:1055B00092E00E94471F8AEF92E00E94471F88EB0B
:1055C00096E00E949F190E94030368AB79AB8AABF7
:1055D0009BAB86E5E82E85E0F82E8701D80155962D
:1055E0001C921E92549714968D919C911597892B1D
:1055F00029F416968D919C91892BC9F1F801408070
:1056000051806280738068A979A98AA99BA96419CD
:1056100075098609970983849484A584B6846815DE
:1056200079058A059B0518F1A50194010E942F3286
:10563000C501B4010E94D732460E571E681E791E5E
:10564000D8014D925D926D927C92139753968C91F6
:105650005397882361F01F962D913C915097211507
:10566000310509F09CC055963C922E9254970A5EE3
:105670001F4F36E0063B130709F0B0CF10E000E003
:10568000D70154968D919C915597892BE9F11A96E3
:105690008C911A97882309F497C01696ED91FC9186
:1056A000179718968D919C910995F7018489958992
:1056B000029751F58091B6069091B706892B21F19A
:1056C00084819581892B21F486819781892BE1F052
:1056D00026E1209FF001219FF00D1124EA5AFA4F94
:1056E000DF011D922A95E9F70E940303F701608309
:1056F0007183828393838091B6069091B706019758
:105700009093B7068093B6060F5F1F4FF6E1EF0E3A
:10571000F11C0031110509F0B3CF88A599A50097B8
:1057200011F00E94A32C20E030E0232B09F433CEAB
:105730000E94CC03882309F42ECE0E9400002BCEB9
:10574000019676968031910509F0E9CD1DCE1DA612
:105750001CA668EC72E0C9010E94D7334FCE1FA38C
:105760000EA3B701C9010E94D73378CE8AA19BA1AD
:10577000009709F06BCE6CCE0E94A32C8AA19BA14E
:1057800099A788A78CA19DA19BA78AA78EA19FA15D
:105790009DA78CA71BA21AA21DA21CA278CEF8015D
:1057A000818992898217930708F061CF358A248A0C
:1057B0000196928B818B8217930708F458CF22E0D1
:1057C00030E0358B248B53CF1496ED91FC910995E5
:1057D0006CCFEF920F931F93CF93DF93E80134E0E8
:1057E00047FD34E1042E000C550B57FF03C05195C3
:1057F00041955109E32E022F242FAE010E94602E05
:10580000CE01DF91CF911F910F91EF9008950F93EB
:105810001F93CF93DF938230910510F482E090E0E4
:10582000E091FB06F091FC0630E020E0B0E0A0E063
:10583000309799F42115310509F44AC0281B390B1A
:1058400024303105D8F58A819B816115710589F174
:10585000FB0193838283FE0111C04081518102814B
:10586000138148175907E0F04817590799F4109722
:1058700061F012960C93129713961C933296CF01F7
:10588000DF91CF911F910F9108950093FB06109324
:10589000FC06F4CF2115310551F04217530738F0BB
:1058A000A901DB019A01BD01DF01F801C1CFEF01C0
:1058B000F9CF9093FC068093FB06CDCFFE01E20F5B
:1058C000F31F819391932250310939832883D7CFD5
:1058D0002091F9063091FA06232B41F4209104011E
:1058E000309105013093FA062093F90620910201C8
:1058F000309103012115310541F42DB73EB7409198
:10590000060150910701241B350BE091F906F09137
:10591000FA06E217F307A0F42E1B3F0B28173907EE
:1059200078F0AC014E5F5F4F2417350748F04E0FFB
:105930005F1F5093FA064093F906819391939FCF8E
:10594000F0E0E0E09CCFCF93DF930097E9F0FC011B
:10595000329713821282A091FB06B091FC06ED01F2
:1059600030E020E01097A1F420813181820F931F55
:105970002091F9063091FA062817390709F061C01D
:10598000F093FA06E093F906DF91CF910895EA01CA
:10599000CE17DF07E8F54A815B819E01411551056D
:1059A000B1F7E901FB83EA8349915991C40FD51FEF
:1059B000EC17FD0761F4808191810296840F951F99
:1059C000E90199838883828193819B838A83F0E0B4
:1059D000E0E012968D919C9113970097B9F52D9167
:1059E0003C911197CD010296820F931F2091F906E9
:1059F0003091FA062817390739F6309751F5109289
:105A0000FC061092FB06B093FA06A093F906BCCFF1
:105A1000D383C28340815181840F951FC817D90752
:105A200061F44E5F5F4F88819981480F591F518300
:105A300040838A819B81938382832115310509F0FC
:105A4000B0CFF093FC06E093FB069ECFFD01DC0196
:105A5000C0CF13821282D7CF8F929F92AF92BF9204
:105A6000CF92DF92EF92FF92CF93DF93EC016881A8
:105A700079818A819B81611571058105910521F4E8
:105A800064E279ED8BE597E02DE133EF41E050E002
:105A90000E94C63149015A019B01AC01A7EAB1E459
:105AA0000E94E5316B017C01ACEEB4EFA5019401DD
:105AB0000E94F331C60ED71EE81EF91EF7FE06C07F
:105AC00081E0C81AD108E10880E8F80AC882D982C2
:105AD000EA82FB82C701B6019F77DF91CF91FF90E9
