:100000000C9435000C945D000C945D000C945D0024
:100010000C945D000C945D000C945D000C945D00EC
:100020000C945D000C945D000C945D000C945D00DC
:100030000C945D000C945D000C945D000C945D00CC
:100040000C94CC010C945D000C943C020C941602B0
:100050000C945D000C945D000C945D000C945D00AC
:100060000C945D000C945D00050311241FBECFEFBE
:10007000D8E0DEBFCDBF11E0A0E0B1E0E4E7F6E0FC
:1000800002C005900D92A231B107D9F721E0A2E19B
:10009000B1E001C01D92A83BB207E1F710E0C5E353
:1000A000D0E004C02197FE010E943203C433D1077F
:1000B000C9F70E946E020C9438030C9400003FB7FD
:1000C000F8948091170190911801A0911901B091B5
:1000D0001A0126B5A89B05C02F3F19F00196A11D56
:1000E000B11D3FBFBA2FA92F982F8827BC01CD0182
:1000F000620F711D811D911D42E0660F771F881FE1
:10010000991F4A95D1F708958F929F92AF92BF920F
:10011000CF92DF92EF92FF920E945F004B015C0151
:1001200080E1C82E87E2D82EE12CF12C0E945F00DE
:10013000681979098A099B09683E73408105910510
:10014000A8F321E0C21AD108E108F10888EE880E70
:1001500083E0981EA11CB11CC114D104E104F10478
:1001600029F7FF90EF90DF90CF90BF90AF909F90D6
:100170008F900895AF92BF92CF92DF92EF92FF924D
:100180000F931F93CF93DF936C017B018B01040FBF
:10019000151FEB015E01AE18BF08C017D10759F05B
:1001A0006991D601ED91FC910190F081E02DC6019D
:1001B0000995892B79F7C501DF91CF911F910F9197
:1001C000FF90EF90DF90CF90BF90AF900895FC012B
:1001D000538D448D252F30E0842F90E0821B930BAC
:1001E000541710F0CF96089501970895FC01918D52
:1001F000828D981761F0A28DAE0FBF2FB11D5D9655
:100200008C91928D9F5F9F73928F90E008958FEFF6
:100210009FEF0895FC01918D828D981731F0828DAA
:10022000E80FF11D858D90E008958FEF9FEF089501
:10023000FC01918D228D892F90E0805C9F4F821B65
:1002400091098F73992708958BE191E00E9418011D
:1002500021E0892B09F420E0822F089580E090E0CE
:10026000892B29F00E94240181110C94000008952B
:10027000FC01A48DA80FB92FB11DA35ABF4F2C911B
:10028000848D90E001968F739927848FA689B78912
:100290002C93A089B1898C91837080648C93938D09
:1002A000848D981306C00288F389E02D80818F7DAC
:1002B00080830895EF92FF920F931F93CF93DF9364
:1002C000EC0181E0888F9B8D8C8D98131AC0E88992
:1002D000F989808185FF15C09FB7F894EE89FF8961
:1002E0006083E889F98980818370806480839FBFFF
:1002F00081E090E0DF91CF911F910F91FF90EF90FF
:100300000895F62E0B8D10E00F5F1F4F0F7311270E
:10031000E02E8C8D8E110CC00FB607FCFACFE88949
:10032000F989808185FFF5CFCE010E943801F1CF98
:10033000EB8DEC0FFD2FF11DE35AFF4FF0829FB7BD
:10034000F8940B8FEA89FB8980818062CFCF682F78
:100350008BE191E00C945A01CF93DF93EC01888DEF
:100360008823B9F0AA89BB89E889F9898C9185FD30
:1003700003C0808186FD0DC00FB607FCF7CF8C91BE
:1003800085FFF2CF808185FFEDCFCE010E9438013D
:10039000E9CFDF91CF9108951F920F920FB60F9280
:1003A00011242F933F938F939F93AF93BF9380918B
:1003B000130190911401A0911501B0911601309193
:1003C000120123E0230F2D3758F50196A11DB11D11
:1003D000209312018093130190931401A0931501AF
:1003E000B09316018091170190911801A091190105
:1003F000B0911A010196A11DB11D80931701909330
:100400001801A0931901B0931A01BF91AF919F9168
:100410008F913F912F910F900FBE0F901F901895C5
:1004200026E8230F0296A11DB11DD2CF1F920F9275
:100430000FB60F9211242F933F934F935F936F93B7
:100440007F938F939F93AF93BF93EF93FF938BE132
:1004500091E00E943801FF91EF91BF91AF919F9180
:100460008F917F916F915F914F913F912F910F905D
:100470000FBE0F901F9018951F920F920FB60F92FC
:1004800011242F938F939F93EF93FF93E0912B0170
:10049000F0912C018081E0913101F091320182FDD7
:1004A0001BC09081809134018F5F8F732091350143
:1004B000821741F0E0913401F0E0E55EFE4F958F48
:1004C00080933401FF91EF919F918F912F910F9025
:1004D0000FBE0F901F9018958081F4CF789484B54B
:1004E000826084BD84B5816084BD85B5826085BD30
:1004F00085B5816085BD80916E00816080936E00BE
:1005000010928100809181008260809381008091AF
:100510008100816080938100809180008160809360
:1005200080008091B10084608093B1008091B00020
:1005300081608093B00080917A00846080937A001B
:1005400080917A00826080937A0080917A00816045
:1005500080937A0080917A00806880937A0010926C
:10056000C100E0912B01F0912C0182E08083E091A9
:100570002701F09128011082E0912901F0912A01D0
:1005800087E6808310923301E0912F01F0913001D2
:1005900086E08083E0912D01F0912E0180818061C1
:1005A0008083E0912D01F0912E018081886080830D
:1005B000E0912D01F0912E01808180688083E0918F
:1005C0002D01F0912E0180818F7D8083C0E0D0E0ED
:1005D00090E080E00E94A70181E090E00E94A701E6
:1005E0000E94840081E090E00E94A70190E080E0FA
:1005F0000E94A7010E948400209751F30E942401C9
:10060000882331F30E940000E3CFEBE1F1E0138295
:10061000128288EE93E0A0E0B0E084839583A68305
:10062000B78384E091E09183808385EC90E09587A7
:10063000848784EC90E09787868780EC90E0918BAC
:10064000808B81EC90E0938B828B82EC90E0958B99
:10065000848B86EC90E0978B868B118E128E138E96
:10066000148E0895EE0FFF1F0590F491E02D09946C
:04067000F894FFCF2C
:10067400000000005A01BA00E700AC011801F600BE
:020684000A0169
:00000001FF
