:100000000C945C000C946E000C946E000C946E00CA
:100010000C946E000C946E000C946E000C946E00A8
:100020000C946E000C946E000C946E000C946E0098
:100030000C946E000C946E000C946E000C946E0088
:100040000C94F9000C946E000C946E000C946E00ED
:100050000C946E000C946E000C946E000C946E0068
:100060000C946E000C946E00000000080002010069
:100070000003040700000000000000000000000072
:10008000250028002B0000000000240027002A0083
:10009000040404040404040402020202020203032E
:1000A0000303030301020408102040800102040836
:1000B000102001020408102011241FBECFEFD8E049
:1000C000DEBFCDBF21E0A0E0B1E001C01D92AB30AA
:1000D000B207E1F70E9443010C941D020C9400004A
:1000E000E7EAF0E02491E3E9F0E08491882399F0D5
:1000F00090E0880F991FFC01EA57FF4FA591B4913A
:10010000FC01E458FF4F859194918FB7F894EC91DE
:10011000E22BEC938FBF0895EBE6F0E02491E7EA41
:10012000F0E09491E3E9F0E0E491EE23C9F02223BA
:1001300039F0233001F1A8F4213019F1223029F1EE
:10014000F0E0EE0FFF1FE458FF4FA591B4912FB7D9
:10015000F894EC91811126C090959E239C932FBF1B
:1001600008952730A9F02830C9F0243049F72091AC
:1001700080002F7D03C0209180002F772093800086
:10018000DFCF24B52F7724BDDBCF24B52F7DFBCF68
:100190002091B0002F772093B000D2CF2091B000F3
:1001A0002F7DF9CF9E2BDACF3FB7F89480910701CE
:1001B00090910801A0910901B0910A0126B5A89B70
:1001C00005C02F3F19F00196A11DB11D3FBFBA2FE9
:1001D000A92F982F8827BC01CD01620F711D811DA9
:1001E000911D42E0660F771F881F991F4A95D1F72E
:1001F00008951F920F920FB60F9211242F933F93E1
:100200008F939F93AF93BF938091030190910401CB
:10021000A0910501B09106013091020123E0230F66
:100220002D3758F50196A11DB11D20930201809331
:10023000030190930401A0930501B09306018091FE
:10024000070190910801A0910901B0910A0101965E
:10025000A11DB11D8093070190930801A09309018E
:10026000B0930A01BF91AF919F918F913F912F91D0
:100270000F900FBE0F901F90189526E8230F02963F
:10028000A11DB11DD2CF789484B5826084BD84B5A0
:10029000816084BD85B5826085BD85B5816085BD81
:1002A00080916E00816080936E0010928100809139
:1002B00081008260809381008091810081608093C1
:1002C0008100809180008160809380008091B100E6
:1002D00084608093B1008091B00081608093B00011
:1002E00080917A00846080937A0080917A008260A5
:1002F00080937A0080917A00816080937A00809167
:100300007A00806880937A001092C1000E94700089
:100310000BE610E090E0E92E90E0F92E109201013A
:1003200010920001C0910001D0910101CF3FD10591
:1003300011F008F07BC00E947000209789F580E0E2
:100340000E948C000E94D4002B013C0184E6882E80
:10035000912CA12CB12C0E94D40064197509860936
:100360009709683E734081059105A8F3F1E08F1A63
:100370009108A108B10828EE420E23E0521E611C2C
:10038000711C81149104A104B10429F7809100012A
:100390009091010101969093010180930001C2CFD9
:1003A000CF3FD10511F481E0CBCFF80184918330A8
:1003B00019F140F48130B1F08230C9F0C038D10574
:1003C00094F7BDCF873011F1883041F18430B1F717
:1003D00080918000806280938000D0938B00C093D6
:1003E0008A00B0CF84B5806884BDC7BDABCF84B56B
:1003F000806284BDC8BDA6CF809180008068809354
:100400008000D0938900C09388009CCF8091B00079
:1004100080688093B000C093B30094CF8091B00007
:1004200080628093B000C093B4008CCFE114F104DB
:0E04300009F474CF0E94000071CFF894FFCF42
:00000001FF
